:020000040800F2
:1000000038090020290200089B450008C535000872
:10001000994500081F040008B94E000800000000C0
:10002000000000000000000000000000A1450008E2
:10003000F9040008000000009D450008A3450008E1
:10004000430200084302000843020008430200087C
:10005000430200089F4500084302000843020008CD
:10006000430200084302000843020008430200085C
:1000700065040008710400084302000843020008F8
:10008000430200084302000843020008430200083C
:10009000430200084302000843020008430200082C
:1000A00043020008414600084302000835460008A4
:1000B000430200084302000843020008D535000847
:1000C000C935000843020008430200084302000843
:1000D00043020008430200084302000843020008EC
:1000E00043020008430200084302000843020008DC
:1000F00059460008430200084D4600084302000824
:1001000043020008430200084302000843020008BB
:10011000ED4B0008430200084302000843020008B8
:10012000430200084302000843020008430200089B
:10013000430200084302000843020008430200088B
:10014000430200084302000843020008430200087B
:10015000430200084302000843020008430200086B
:10016000430200084302000843020008430200085B
:100170004302000843020008430200080000000098
:10018000430200080705000800F002F800F03CF800
:100190000AA090E8000C82448344AAF10107DA45E2
:1001A00001D100F031F8AFF2090EBAE80F0013F0F8
:1001B000010F18BFFB1A43F001031847344E00002B
:1001C000544E0000103A24BF78C878C1FAD85207BC
:1001D00024BF30C830C144BF04680C6070470000C1
:1001E0000023002400250026103A28BF78C1FBD840
:1001F000520728BF30C148BF0B6070471FB504F0DD
:10020000E1FE1FBD10B510BD00F0CFF81146FFF79D
:10021000F5FF04F063FE00F0EDF803B4FFF7F2FF22
:1002200003BC00F0F5F80000094880470948004782
:10023000FEE7FEE7FEE7FEE7FEE7FEE7FEE7FEE796
:10024000FEE7FEE704480549054A064B70470000F3
:1002500025460008890100083803002038090020DD
:10026000380500203805002053EA020C00F06980B0
:100270002DE9F04B4FF00006002B1FBFB3FA83F5BA
:1002800003FA05F424FA05F65E4012BF1643B2FAEB
:1002900082F502FA05F4C5F120051EBF22FA05FC1D
:1002A00044EA0C04203556EA044C4FEA144418BFC3
:1002B000641C4FF000084FF00009904271EB030CF2
:1002C00039D3002919BFB1FA81F701FA07F6B0FA5C
:1002D00080F700FA07F6C7F120071EBF20FA07FCD7
:1002E00046EA0C062037B6FBF4FCA7EB0507103FE7
:1002F00007F01F0BCBF120060CFA0BFB2CFA06F6CD
:1003000044BFB3460026202FA4BF5E464FF0000B2B
:100310005BEA060C08BF4FF0010B19EB0B09ABFBB6
:10032000027C48EB0608C01B06FB02CC0BFB03CC8F
:1003300071EB0C01C1E70B46024641464846BDE859
:10034000F08B13B54FF000004FF00001AFF30080C9
:10035000BDE81C4070474FF0000200B513469446BC
:100360009646203922BFA0E80C50A0E80C50B1F10D
:100370002001BFF4F7AF090728BFA0E80C5048BF21
:100380000CC05DF804EB890028BF40F8042B08BFBF
:10039000704748BF20F8022B11F0804F18BF00F8BB
:1003A000012B7047704770477047754600F02CF876
:1003B000AE4605006946534620F00700854618B052
:1003C00020B5FFF73FFFBDE820404FF000064FF09B
:1003D00000074FF000084FF0000B21F00701AC467A
:1003E000ACE8C009ACE8C009ACE8C009ACE8C00999
:1003F0008D46704710B50446AFF300802046BDE837
:100400001040FFF70ABF000000487047D4020020E8
:1004100001491820ABBEFEE7260002007047FEE748
:100420002DE9F0418846054600244FF400570C4E54
:1004300011E000223946304600F094FC404600F0BE
:1004400001FB01223946304600F08CFC404600F0AA
:10045000F9FA641CE4B2AC42EBD3BDE8F0810000D1
:1004600000080240014800F0ADB80000740200200E
:10047000014800F0A7B8000014020020016818230A
:10048000CAB2103AB2FBF3F2054B6FF30901032A2B
:100490009B5CC36500D9091D816508467047000053
:1004A000CE4F000810B5014600208B698A6A4FF0D4
:1004B000C07453B1B3F5005F15D072B1012A0CD0EE
:1004C000022A0AD0032A09D104E01AB1012A06D06F
:1004D000022A03D1C96AC90100D5012010BDC96A29
:1004E000A142FAD010BD002AF7D0012AF2D0022A88
:1004F000F3D0032AF3D010BD7047020A4A70887007
:10050000704772B6FEE770472DE9F0410446876DEB
:1005100000F05EFC064694F835000025022806D05F
:100520008020606584F834500120BDE8F0812068A7
:10053000016821F0160101602068416921F0800105
:100540004161206C08B9A06C20B12068016821F0DD
:10055000080101602068016821F0010101600CE0E0
:1005600000F036FC801B052807D920206065032099
:1005700084F8350084F83450D7E720680068C00755
:10058000EED194F85C103F208840B860012084F8D8
:10059000350084F834500020C7E790F83510022960
:1005A00003D08021416501207047052180F8351076
:1005B0000068016821F0010101600020704790F897
:1005C000350070472DE9F84304464FF00009CDF897
:1005D000009063484FF41651A56D0068B0FBF1F729
:1005E0002E6894F85C10082000FA01F131420FD017
:1005F00021680A6852070BD50A6822F004020A60D3
:1006000094F85C108840A860606D40F0010060655F
:1006100094F85C104FF0010808FA01F0304208D05D
:1006200021684969090604D5A860606D40F00200A0
:10063000606594F85C1004208840304208D021683E
:100640000968890704D5A860606D40F00400606502
:1006500094F85C1010208840304218D02168096856
:10066000090714D5A86020680168490304D500680B
:10067000000308D5A16C07E00168C90503D401682F
:1006800021F008010160216C09B12046884794F8E7
:100690005C1020208840304231D021680968C906AA
:1006A0002DD5A86094F8350005282068016806D08B
:1006B000490347D5006800031DD4616C1CE021F09C
:1006C000160101602068416921F080014161206CC0
:1006D00008B9A06C20B12068016821F00801016010
:1006E00094F85C103F208840A86084F8358084F836
:1006F0003490216D1FE0E16B09B120468847606DA1
:1007000000282BD0606DC00714D0052084F8350078
:100710002068016821F0010101600098401C0090F0
:10072000B84203D820680068C007F6D184F8358045
:1007300084F83490E16C002910D001B02046BDE867
:10074000F04308470168C905D5D4016821F01001BC
:10075000016084F8358084F83490CCE7BDE8F883F4
:10076000180000202DE9F041044600F031FB054659
:10077000002C7CD0A249206888423ED0A049183184
:1007800088423AD09E493031884236D09C4948311F
:10079000884232D09A49603188422ED098497831C7
:1007A00088422AD096499031884226D09449A8316F
:1007B000884222D0934988421FD0924918318842FA
:1007C0001BD090493031884217D08E494831884239
:1007D00013D08C49603188420FD08A4978318842E1
:1007E0000BD088499031884207D08649A831884289
:1007F00003D0B72184A004F070FB6068C0B1B0F1F1
:10080000007F15D0B0F1806F12D0B0F1C06F0FD063
:10081000B0F1006F0CD0B0F1206F09D0B0F1406F93
:1008200006D0B0F1606F03D0B82177A004F055FB7B
:10083000A06838B1402805D0802803D0B92172A023
:1008400004F04BFBE068B0F5007F04D018B1BA218A
:100850006DA004F042FB2069B0F5806F04D018B1A0
:10086000BB2169A004F039FB606958B100E071E078
:10087000B0F5006F06D0B0F5805F03D0BC2162A058
:1008800004F02BFBA06948B1B0F5005F06D0B0F5CD
:10089000804F03D0BD215CA004F01FFBE06940B194
:1008A000B0F5807F05D0202803D0BE2156A004F0EB
:1008B00014FB206A60B1B0F5803F09D0B0F5003F6D
:1008C00006D0B0F5403F03D0BF214FA004F005FB98
:1008D000606A002832D0042806D0C0214AA004F063
:1008E000FCFA606A002829D0A06A48B1012807D024
:1008F000022805D0032803D0C52143A004F0EDFA57
:10090000E06A60B1B0F5000F09D0B0F1807F06D089
:10091000B0F1C07F03D0C6213BA004F0DEFA206B0B
:1009200060B1B0F5001F09D0B0F5800F06D0B0F56A
:10093000C00F03D0C72134A004F0CFFA022084F8FE
:100940003500002684F834602068016821F0010138
:1009500001600EE00120BDE8F08100BF00F038FA30
:10096000401B052805D920206065032084F8350048
:10097000F1E720680068C007F0D1226811683048AC
:100980000140D4E901031843D4E903352B4318434C
:1009900063691843A3691843E3691843236A18433A
:1009A0000843616A042903D1D4E90B1319430843AE
:1009B000106020684069656A20F0070029460543F9
:1009C000012704290CD1A06A0543E06A40B1204602
:1009D000FFF768FD20B14020606584F83570B9E705
:1009E000206845612046FFF749FD94F85C203F21CF
:1009F00091408160666584F835700020ABE70000A7
:100A000010600240106402402E2E2F4472697665F9
:100A100072732F53544D3332463478785F48414CCB
:100A20005F4472697665722F5372632F73746D33EE
:100A300032663478785F68616C5F646D612E630044
:100A40003F8010F070B5044600F0C2F90546601C06
:100A500002D004480078044400F0BAF9401BA042D8
:100A6000FAD370BD0C0000202DE9F84FDFF888B2F2
:100A70000D46044658451BD0A048844218D0A048D3
:100A8000844215D09F48844212D09F4884420FD0A0
:100A90009E4884420CD09E48844209D09D4884429E
:100AA00006D09D48844203D0AC219CA004F015FAE6
:100AB00028680104090C01D0000C03D0AD2197A0D7
:100AC00004F00BFA6868F8B101281DD011281BD07A
:100AD000022819D0122817D0B0F5881F14D0B0F50D
:100AE000041F11D0B0F5441F0ED0B0F5901F0BD0ED
:100AF000B0F5081F08D0B0F5481F05D0032803D073
:100B0000AE2186A004F0E9F900264FF0010A4FF06B
:100B1000030900BF0AFA06F02F68804607404745E0
:100B20007ED1287900F00300012801D002281DD1D0
:100B3000E86848B1012807D0022805D0032803D06F
:100B4000C02176A004F0C9F9A168720009FA02F088
:100B50008143E86890400843A0606068297920EAF2
:100B60000800C1F30011B140014361602879C0431E
:100B7000800712D0A86838B1012805D0022803D018
:100B8000D12166A004F0A9F9E168720009FA02F027
:100B90008143A86890400843E060287900F0030092
:100BA00002282ED12869F8B109281DD001281BD0B0
:100BB000022819D0032817D0042815D0052813D0EF
:100BC000062811D007280FD008280DD00A280BD0EE
:100BD0000B2809D00C2807D00D2805D00F2803D0EA
:100BE000DE214EA004F079F9F00804EB8002106ACF
:100BF0007107CB0E0F219940884329699940014321
:100C000011622068720009FA02F18843297901F023
:100C10000301914001432160686810F4403F00E007
:100C200063E062D04C48016841F480410160006893
:100C300026F0030100F48040009048480A18D2F8DA
:100C40000808B1070B0F0F21994088435C4501D17B
:100C5000002123E029498C4201D101211EE02849CD
:100C60008C4201D1022119E026498C4201D1032195
:100C700014E025498C4201D104210FE023498C4224
:100C800001D105210AE022498C4201D1062105E06B
:100C900020498C4201D1072100E0082199400143FD
:100CA000C2F808182E4908686A68B843D20200D50D
:100CB000384308602A49091D08686A68B8439202E7
:100CC00000D5384308602649091F08686A68B84398
:100CD000920300D5384308602149083908686A68DA
:100CE000B843D20300D538430860761C102EFFF4B9
:100CF00011AFBDE8F88F0000000002400004024080
:100D000000080240000C02400010024000140240A3
:100D100000180240001C0240002002402E2E2F44EA
:100D20007269766572732F53544D33324634787836
:100D30005F48414C5F4472697665722F5372632F2E
:100D400073746D3332663478785F68616C5F677096
:100D5000696F2E63000000004438024000300140FB
:100D6000083C014070B515460C00064604D140F21F
:100D70009D1108A004F0B1F845B1012D04D04FF445
:100D8000CF7104A004F0A9F8B46170BD2004B06173
:100D900070BD00002E2E2F447269766572732F533A
:100DA000544D3332463478785F48414C5F44726921
:100DB0007665722F5372632F73746D333266347895
:100DC000785F68616C5F6770696F2E630000000078
:100DD00001488068704700000C0000207047704791
:100DE0002DE9F041016804464A694E6890F83E00DA
:100DF0000025D743FA0506D4F243D20503D46FF495
:100E0000807201254A61B90508D4F143C90505D4AA
:100E100022686FF4007145F002055161790525D40F
:100E2000F143C90522D4638D94F83D10226B20282C
:100E300008D13BB9212910D029290ED0282901D168
:100E4000212A0AD022686FF48061516145F00405BF
:100E5000102806D0402804D008E0204603F01AF8F5
:100E600004E02068016841F400710160380508D48D
:100E7000F043C00505D421686FF4006045F0080513
:100E80004861002D07D0206C284320642046BDE82F
:100E9000F04102F003BCBDE8F0812DE9F0470268A3
:100EA00000215368C66A90F83E4090F83D50102CDF
:100EB00012D0402C10D0046C002C7DD05469E44337
:100EC000A6077AD4DE43B60577D4036C03B19169E3
:100ED000BDE8F04702F0BABF976951694FF42A0C98
:100EE000C9435FEAC1784FF02A4904D066452AD049
:100EF0004E4528D010E0DE43B6050DD4C16A6145E9
:100F000001D1012103E0C16A494501D10821C16233
:100F1000BDE8F04702F0DABE0E0716D4DE43B60590
:100F200013D4416CC9B21161416B09B1C96B29B9C4
:100F3000816B002907D0C96B002904D00068416883
:100F400041F400614160BDE8F0878E0706D4DE43BE
:100F5000B60503D4BDE8F04702F02CBEFE4352684C
:100F600076074FEA02521DD4002AECDB0A0608D4A9
:100F7000DA43520505D4490705D5BDE8F04702F02C
:100F8000BDBD4907DFD4D9438905DCD4212D05D067
:100F9000402CD8D1BDE8F04702F0DEBEBDE8F047F6
:100FA00002F06ABD002ACEDB4A060BD4DA435205B2
:100FB00008D4490708D501E00DE00EE0BDE8F04790
:100FC00002F098BC4907BED4D9438905BBD4BDE81B
:100FD000F04702F026BC916970E7E10606D4D943D8
:100FE000890503D4BDE8F04702F096BF2821212DE2
:100FF00027D0292D25D0650655D4DD436D0552D463
:10100000640752D590F83D30448D002C9BD0126976
:10101000446A2270426A521C4262428D521E4285CC
:10102000428D002A8FD12A2B8DD10268536823F478
:10103000806353602222026380F83D1000F020FBA1
:1010400081E7250623D4DD436D0520D4640720D530
:1010500090F83D30448D002CF2D0446A247814611D
:10106000426A521C4262428D521E4285428D002AC3
:10107000E6D1292BE4D10268536823F480635360DE
:101080002122026380F83D1000F0FBFA5BE7610764
:10109000D6D4D9438905D3D4418D0029D0D0416A13
:1010A000097811610AE06107CAD4D9438905C7D418
:1010B000418D0029C4D01169426A1170416A491CEE
:1010C0004162418D491E41853DE7704770B504007E
:1010D0007DD08A49206888420AD08949884207D051
:1010E0008849884204D04FF4DF7187A003F0F5FEF1
:1010F00060689349401E884204D940F2BF1182A023
:1011000003F0EBFEA0684FF4804530B1A84204D054
:101110004FF4E0717CA003F0E0FEE068800A04D0A8
:1011200040F2C11178A003F0D8FE2069A84207D090
:10113000B0F5404F04D04FF4E17173A003F0CDFE41
:10114000606930B1012804D040F2C3116EA003F0F1
:10115000C4FEA06930F0FE0004D04FF4E2716AA032
:1011600003F0BBFEE06930B1402804D040F2C51165
:1011700065A003F0B2FE206A30B1802804D04FF49D
:10118000E37161A003F0A9FE94F83D00002520B9A9
:1011900084F83C50204600F02FFA242084F83D00CB
:1011A0002068016821F0010101602068016841F4B4
:1011B000004101602068016821F40041016000F0F5
:1011C000B7FC604A6168914202D85F4901E002E0E1
:1011D0005E49884201D2012070BD5D492368B0FBA1
:1011E000F1F15E6826F03F060E435E60636893424D
:1011F00006D94FF4967359434FF47A73B1FBF3F168
:101200002368491C1E6A26F03F0631431962616853
:10121000914210D84900401EB0FBF1F2521CC2F3BB
:101220000B02042A01D2042022E0B0FBF1F0401CA2
:10123000C0F30B001CE0A368F3B301EBC10202EBA7
:101240000116421EB2FBF6F2521C42F48042120515
:1012500049D093B301EBC10202EB0111401EB0FB78
:10126000F1F0401CC0F30B0040F4804040F400401B
:101270002168CA694CF6FF739A431043C861D4E9E8
:10128000071001432068026822F0C0021143016088
:10129000D4E9030101432068826848F2FF339A438E
:1012A00011438160D4E9050108432168CA6822F02E
:1012B000FF021043C86001E00EE016E020680168FC
:1012C00041F0010101602564202084F83D00256380
:1012D00084F83E50002070BD01EB4106421EB2FB77
:1012E000F6F2521CB3E70120C2E701EB4101401EB8
:1012F000B0FBF1F0401CC0F30B00B7E70054004016
:1013000000580040005C00402E2E2F447269766524
:1013100072732F53544D3332463478785F48414CC2
:101320005F4472697665722F5372632F73746D33E5
:1013300032663478785F68616C5F6932632E63006F
:101340007F1A0600A086010080841E0000093D006F
:1013500040420F002DE9FF4F81B089460446FFF758
:1013600037FD054694F83D004FF0000820287DD158
:101370001923012250492046009502F0A1FE0028C1
:1013800074D194F83C00012870D0012084F83C000E
:1013900020680168C90703D1016841F001010160BB
:1013A0002068016821F400610160242084F83D0078
:1013B000002626644148E0624FF0011B2027206888
:1013C000016841F480710160009500225946204671
:1013D000049B02F075FE50B120680068C00502D57C
:1013E0004FF400702064032005B0BDE8F08F216841
:1013F00009F0FE000861FFF7EBFC2168054648692B
:101400004969C0F34000C1F380214FF0A00A0FE00A
:10141000FFF7DEFC411B0498814200D808B984F82C
:101420003DA0216848694969C0F34000C1F38021AB
:1014300094F83D20A02A02D008B90029E8D084F809
:101440003D7020684169C943890716D4016841F499
:1014500000710160206841698069192301221649E1
:101460002046009502F02CFEB8B900E021E084F897
:101470003D7084F83C600020B6E7016841F40071DB
:10148000016021686FF480604861192301220A49D4
:101490002046009502F014FE08B10120A4E703984D
:1014A00008F1010880458AD384F83D7084F83C60D7
:1014B000F3E7022098E70000020010000000FFFFA1
:1014C00070477047704700002DE9F84F1F4690465F
:1014D0008A460446DDF82890FFF77AFC054694F822
:1014E0003D0020287FD11923012240492046009544
:1014F00002F0E6FD002876D194F83C00012872D075
:10150000012084F83C0020680168C90703D1016804
:1015100041F0010101602068016821F4006101606F
:10152000212084F83D00102084F83E000026266427
:10153000C4F824806785608D20852D48E0622B46A5
:101540004A465146204602F049FA90B9206841695E
:101550008069009036E02A464946204602F02FFE78
:1015600050B1206C042804D12068016841F4007156
:1015700001600120BDE8F88F606A21680078086189
:10158000606A401C6062618D491E6185218D491E23
:1015900089B2218522685369DB435B070BD451B1C3
:1015A00000781061606A401C6062608D401E60853A
:1015B000208D401E20852A464946204602F05AFDCD
:1015C0000028CED1208D0028C5D154F83D0B0168EC
:1015D00041F400710160202004F81E09E677667767
:1015E0000020C7E7FFE70220C4E700000200100068
:1015F0000000FFFF7047704710B586B00446142105
:101600006846FEF7A8FE1B492068884230D11A4878
:10161000016841F0020101600068694600F00200C3
:101620000590C0200090122001900120029003201C
:101630000390042004901148FFF716FA0E4810306A
:10164000016841F4001101600068002200F40010FC
:10165000059011461F2000F0B5F81F2000F080F81B
:1016600000221146202000F0ADF8202000F078F88C
:1016700006B010BD00540040303802400004024063
:101680007047704702488168027811448160704752
:101690000C0000200B4810B5016841F40071016096
:1016A000016841F480610160016841F4807101606A
:1016B000032000F0D7F8072000F006F800F024F827
:1016C000002010BD003C024070B50D4D04464FF4A3
:1016D0007A712878B1FBF0F00A490968B1FBF0F0A3
:1016E00000F0CCFC48B9102C07D200222146501E35
:1016F00000F068F800206C6070BD012070BD000033
:101700000C00002018000020144808B5016841F4BE
:1017100080410160006800F4804000900F48001F85
:10172000016841F080510160006800F08050009035
:10173000042000F097F800220121052000F042F873
:10174000052000F00DF800221146512000F03AF873
:10175000BDE80840512000F003B8000044380240C2
:1017600010B5040003D5BC2107A003F0B6FB002C84
:1017700009DB04F01F01012088406109890001F1A3
:10178000E021C1F8000110BD2E2E2F44726976654C
:1017900072732F53544D3332463478785F48414C3E
:1017A0005F4472697665722F5372632F73746D3361
:1017B00032663478785F68616C5F636F72746578E5
:1017C0002E63000070B515460C460646102A03D35A
:1017D000A82114A003F081FB102C03D3A92111A090
:1017E00003F07BFB1E480068C0F30223C3F107022D
:1017F0002046042A00D90422191D072901D20023FA
:1018000000E0DB1E012404FA02F1491E0140994068
:101810009C40641E2C4021433046BDE8704003F0DC
:101820004CBB00002E2E2F447269766572732F53C5
:10183000544D3332463478785F48414C5F44726986
:101840007665722F5372632F73746D3332663478FA
:10185000785F68616C5F636F727465782E630000F7
:101860000CED00E010B5044607280BD0062C09D07B
:10187000052C07D0042C05D0032C03D0902108A000
:1018800003F02BFB154904F0070208684FF6FF032D
:10189000184040EA0220124A1043086010BD0000C0
:1018A0002E2E2F447269766572732F53544D333246
:1018B000463478785F48414C5F4472697665722F90
:1018C0005372632F73746D3332663478785F686156
:1018D0006C5F636F727465782E6300000CED00E03E
:1018E0000000FA052DE9F0470E4604007DD020687F
:1018F000401E0E2804D940F25A217AA003F0EDFAD6
:1019000096B1012E10D0022E0ED0032E0CD0042E34
:101910000AD0052E08D0062E06D0072E04D040F29D
:101920005B2170A003F0D9FADFF8F081D8F800004D
:10193000F7B200F00700B04207D288F80070D8F87C
:10194000000000F00700B0424FD12068744D8107BD
:1019500029D5400703D5286840F4E0502860207856
:10196000000703D5286840F460402860A068A0B153
:10197000802812D0902810D0A0280ED0B0280CD0EB
:10198000C0280AD0D02808D0E02806D0F02804D0FB
:1019900040F27E2153A003F0A0FA2868A16820F04D
:1019A000F000084328602078C00743D0DFF870912A
:1019B0006068A9F1080988B1012822D0022824D042
:1019C000032822D040F2852146A003F086FA606801
:1019D000012816D0022818D0032816D0D9F8000004
:1019E0008007002833DA286800E030E0616820F0E2
:1019F000030008432860FFF7EBF9814641F2883A7B
:101A000011E0D9F800008003EBE7D9F8000080016D
:101A1000E7E700BFFFF7DCF9A0EB0901514502D968
:101A20000320BDE8F0872868616800F00C00B0EB87
:101A3000810FEFD1D8F80010404601F00701B14204
:101A400007D90770006800F00700B04201D00120FC
:101A5000E7E720784FF4805640074FF4A0574FF443
:101A6000C0584FF4E05914D5E06860B1B0420AD0D4
:101A7000B84208D0404506D0484504D040F2C321C2
:101A800018A003F02AFA2868E16820F4E05008431F
:101A900028602078000715D5206960B1B0420AD0CF
:101AA000B84208D0404506D0484504D040F2CA218B
:101AB0000CA003F012FA2868216920F4604040EA83
:101AC000C100286000F054F82968164AC1F30311D8
:101AD000515CC8401449086014480068FFF7F4FDE1
:101AE00000209EE72E2E2F447269766572732F5365
:101AF000544D3332463478785F48414C5F447269C4
:101B00007665722F5372632F73746D333266347837
:101B1000785F68616C5F7263632E6300003C024013
:101B200008380240D64F000818000020100000209E
:101B30000448054900680968044AC1F38221515CE0
:101B4000C84070471800002008380240E64F0008DF
:101B50000448054900680968044AC1F34231515CF0
:101B6000C84070471800002008380240E64F0008BF
:101B7000154810B5006810F00C02144813D0144931
:101B8000042A0FD0082A0ED10F4C241F2268236884
:101B900002F03F025B0207D52068C0F38810A0FB6B
:101BA000010106E0084610BD2168C1F38811A1FBC0
:101BB00000010023FEF758FB2168C1F30141491CD5
:101BC0004900B0FBF1F010BD083802400024F400D9
:101BD00040787D012DE9F84F04007DD020680F2862
:101BE00003D9E621F7A003F078F92078DFF80C9408
:101BF000C007A9F1040555D060684FF480364FF452
:101C0000A02738B1B04205D0B84203D0EB21EDA0F7
:101C100003F063F9F948001D0168C1F3810101294E
:101C200008D00068C0F3810002280AD1D9F800006A
:101C3000400206D52868800334D560680028CCD0DF
:101C400030E06068B04203D1286840F480300CE096
:101C5000B842286803D140F480202860F4E720F4DB
:101C600080302860286820F480202860606860B197
:101C7000FFF7AEF8064604E0FFF7AAF8801B6428D9
:101C80007ED828688003F7D50CE0FFF7A1F8064658
:101C900005E000BFFFF79CF8801B6428F0D8286897
:101CA0008003F7D42078DFF8588380074FF0000ACC
:101CB00056D5E06830B1012804D040F21D11C1A012
:101CC00003F00BF920691F2804D94FF48F71BDA0D0
:101CD00003F003F9C94800E092E0001D016811F02B
:101CE0000C0F08D00068C0F38100022810D1D9F889
:101CF000000040020CD42868800702D5E068012863
:101D00007ED12868216920F0F80040EAC10017E080
:101D1000E068B8B10120C8F80000FFF759F806469E
:101D200005E000BFFFF754F8801B0228A8D82868F8
:101D30008007F7D5286820F0F801206941EAC00043
:101D400028600DE0C8F800A0FFF742F8064604E05E
:101D5000FFF73EF8801B022892D828688007F7D446
:101D6000207800072ED5A54EA64F60697036D0B1F9
:101D7000012808D04FF4AF7192A003F0AEF800E054
:101D80004BE1606978B101203860FFF721F8074620
:101D900005E000BFFFF71CF8C01B0228C6D830685A
:101DA0008007F7D50EE0C7F800A0FFF711F8074647
:101DB00005E000BFFFF70CF8C01B0228B6D830685A
:101DC0008007F7D42078400776D5A068002740B177
:101DD000012806D0052804D04FF4C57179A003F07E
:101DE0007CF8DFF818B20BF13C0BDBF80000C00008
:101DF0000DD4DBF8001041F08051CBF8001000E06A
:101E000038E1DBF80000012700F0805000907E4EA2
:101E10003068C00511D4306840F480703060FEF73F
:101E2000D7FF009006E000BFFEF7D2FF0099401AEE
:101E3000022891D83068C005F6D5704EA0686C367F
:101E400001280FD00528306810D020F00100306044
:101E5000306820F004003060A068B8B1FEF7B8FF29
:101E600000900FE0306840F00100F4E740F004001B
:101E70003060F7E7FEF7ACFF0099411A41F2883075
:101E800081428BD830688007F4D50EE0FEF7A0FFC2
:101E9000009007E0FEF79CFF0099411A41F288305C
:101EA00081428BD830688007F4D42FB1DBF8001062
:101EB00021F08051CBF80010A069002876D00128CD
:101EC00009D0022807D040F2CD113EA003F005F85A
:101ED000A0690028F2D04948001D0068C0F38100C5
:101EE0000228A0696DD0022805D0C8F860A0FEF7CE
:101EF0006FFF044694E0E06938B1B0F5800F04D07C
:101F00004FF4EB712FA002F0E8FF206A3F2804D9BC
:101F100040F2D7112BA002F0E0FF606A3238B0F532
:101F2000BF7F04D94FF4EC7126A002F0D6FFA06A5F
:101F300002280AD0042808D0062806D0082804D091
:101F400040F2D9111FA002F0C8FFE06A801E0D28E0
:101F500004D94FF4ED711BA002F0BFFF4746C8F84B
:101F600060A0FEF735FF064605E000BFFEF730FF34
:101F7000801B022851D828688001F7D4D4E90701D2
:101F80000843A16A214A490802EB0141626A41EA19
:101F90008211084394F82C1040EA0161C9F800103E
:101FA00001203866FEF714FF044606E064E000BF37
:101FB000FEF70EFF001B02282FD828688001F7D5F6
:101FC0005AE031E02E2E2F447269766572732F53DA
:101FD000544D3332463478785F48414C5F447269DF
:101FE0007665722F5372632F73746D333266347853
:101FF000785F68616C5F7263632E6300043802402F
:1020000000004742800E4742007000400000FFFF82
:10201000FEF7DEFE001B022802D90320BDE8F88F80
:1020200028688001F4D427E00128F7D0D9F800000F
:10203000E26900F4800191421CD1226A00F03F0164
:10204000914217D147F6C071626A0140B1EB821F1D
:1020500010D1A26A4FF0FF3300F4403103EB52027B
:10206000B1EB024F06D194F82C1000F07060B0EB89
:10207000016F01D00120D1E70020CFE710B5401E4D
:10208000B0F1807F01D3012010BD4FF0E0246061EA
:102090000F21601702F011FF0020A06107202061CE
:1020A000002010BD7047704770B50C4605460068AB
:1020B0003E49884207D03E49884204D040F2EE7142
:1020C0003CA002F00AFF2068B0F5006F05D020B1F7
:1020D00040F2EF7137A002F000FF6068B0F5806F4A
:1020E00005D020B14FF4FE6132A002F0F6FEA068E8
:1020F00068B1B0F5807F0AD0B0F5007F07D0B0F5A9
:10210000407F04D040F2F1712AA002F0E6FEE068C0
:10211000FF2804D940F2F27126A002F0DEFE206909
:10212000B0F5805F05D020B140F2F37121A002F03C
:10213000D4FE606938B1B0F5005F04D040F2F471AC
:102140001CA002F0CAFEE069B0F5804F05D020B1B6
:1021500040F2F57117A002F0C0FE95F83C0001288E
:1021600022D0012085F83C00E068A26820F440708D
:102170001043626820F480601043226820F40060FD
:102180001043226920F480501043626920F400500B
:102190001043E269002120F4804010432A68506413
:1021A00085F83C10002070BD022070BD0000014089
:1021B000000401402E2E2F447269766572732F53EE
:1021C000544D3332463478785F48414C5F447269ED
:1021D0007665722F5372632F73746D333266347861
:1021E000785F68616C5F74696D5F65782E6300006D
:1021F0002DE9F05F044600683A4E3B4FDFF8EC8073
:10220000DFF8EC90DFF8ECA00D464FF0804BB042C9
:1022100015D0584513D0B84211D040450FD048458D
:102220000DD04FEAB641884209D03349884206D0E2
:10223000504504D040F2B17130A002F04EFE286843
:1022400090B1102810D020280ED030280CD0402873
:102250000AD0502808D0602806D0702804D040F258
:10226000B27126A002F039FE6868802805D020B13E
:1022700040F2B37121A002F030FE94F83C00012836
:102280002DD0012284F83C20022084F83D002168F2
:1022900048688B6820F0700C286840EA0C004860A1
:1022A0002068B0420FD058450DD0B8420BD0404501
:1022B00009D0484507D0504505D01F49884202D073
:1022C0001E49884204D1696823F080031943816064
:1022D00084F83D20002084F83C00BDE8F09F0220F7
:1022E000FBE700000000014000040040000800403F
:1022F000000C004000040140001400402E2E2F442A
:102300007269766572732F53544D33324634787840
:102310005F48414C5F4472697665722F5372632F38
:1023200073746D3332663478785F68616C5F74699A
:102330006D5F65782E63000000400140001800408A
:1023400010B5040058D03F49206888422BD0B0F126
:10235000804F28D03C49884225D03C49884222D031
:102360003B4988421FD03B4988421CD03A498842A9
:1023700019D03A49884216D03949884213D0394990
:10238000884210D0384988420DD0384988420AD056
:102390003749884207D03749884204D040F21311A8
:1023A00035A002F09AFDA06860B110280AD020285C
:1023B00008D0402806D0602804D04FF48A712EA09F
:1023C00002F08BFD206950B1B0F5807F07D0B0F5E9
:1023D000007F04D040F2151127A002F07EFDA06915
:1023E00030B1802804D04FF48B7123A002F075FD2A
:1023F00094F83D0010B107E0012010BD002084F8E2
:102400003C00204600F054F8022084F83D00211DD5
:10241000206802F027F9012084F8460084F83E0085
:1024200084F83F0084F8400084F8410084F84200BA
:1024300084F8430084F8440084F8450084F83D00A3
:10244000002010BD000001400004004000080040D2
:10245000000C004000100040001400400004014047
:102460000040014000440140004801400018004085
:10247000001C0040002000402E2E2F44726976651B
:1024800072732F53544D3332463478785F48414C41
:102490005F4472697665722F5372632F73746D3364
:1024A00032663478785F68616C5F74696D2E6300A2
:1024B00008B500680F4988421AD10F48016841F0F9
:1024C000010101600068002200F00100009001217C
:1024D0001920FFF777F91920FFF742F9002211467A
:1024E0001B20FFF76FF9BDE808401B20FFF738B944
:1024F00008BD000000000140443802402DE9F84FBB
:1025000005460020009095F83C000C46012841D07B
:10251000012085F83C00022085F83D0020684FF43A
:10252000805B584516D0702814D0B0F5005F11D0EC
:1025300040280FD050280DD060280BD050B1102863
:1025400008D0202806D0302804D041F2B741D4A0CA
:1025500002F0C3FC2868816821F0770121F47F41F3
:1025600081602068DC49DD4ADD4BDE4EDE4FDFF85E
:102570007CC3DFF87C834FF080494FF4004A502839
:102580007ED00FDC202804D007DC0028FBD01028E8
:1025900077D161E10220BDE8F88F3028F9D04028DA
:1025A000F6D126E160286DD0702874D0584544D00B
:1025B0004FF400584045EBD1286888420ED048457A
:1025C0000CD090420AD0984208D0B04206D0B8420F
:1025D00004D041F2E241B2A002F07FFCA06858B101
:1025E000584509D0404507D0B0F5405F04D041F2CE
:1025F000E541ABA002F071FC6068504509D040B1E4
:10260000022806D00A2804D041F2E641A4A002F034
:1026100064FCE0680F2804D941F2E741A0A002F071
:102620005CFCD4E90121E368286802F0F9F8286825
:10263000816841F48041816029E128688842FBD0AB
:102640004845F9D09042F7D09842F5D0B042F3D047
:10265000A8498842F0D0A8498842EDD0B842EBD0D2
:102660006045E9D0A5498842E6D0A5498842E3D033
:102670004045E1D0A3498842DED0A349884203E027
:102680004FE002E180E006E0D6D041F2C34184A0F1
:1026900002F023FCFBE02868884212D0484510D0A5
:1026A00090420ED098420CD0B0420AD0B84208D026
:1026B000604506D0404504D041F2CA4178A002F0FE
:1026C0000CFCA06860B158450AD0B0F5005F07D097
:1026D000B0F5405F04D041F2CD4171A002F0FDFBA6
:1026E0006068504509D040B1022806D00A2804D0BD
:1026F00041F2CE416AA002F0F0FBE0680F2804D955
:1027000041F2CF4166A002F0E8FBD4E90121E36881
:10271000286802F085F82968886840F077008860AA
:10272000B5E02868884212D0484510D090420ED0BB
:1027300098420CD0B0420AD0B84208D0604506D0CA
:10274000404504D041F2F64155A002F0C6FB606856
:10275000504509D040B1022806D00A2804D041F2E1
:10276000F9414FA002F0B9FBE0680F2804D941F20B
:10277000FA414BA002F0B1FBE2686168286802F000
:1027800011FA5021286831E02868884212D0484563
:1027900010D090420ED098420CD0B0420AD0B8422D
:1027A00008D0604506D0404504D041F206513CA017
:1027B00002F093FB6068504509D040B1022806D072
:1027C0000A2804D041F2095135A002F086FBE068E6
:1027D0000F2804D941F20A5131A002F07EFBE268D1
:1027E0006168286802F0EFF96021286802F022F899
:1027F0004DE02868884212D0484510D090420ED053
:1028000098420CD0B0420AD0B84208D0604506D0F9
:10281000404504D041F2165121A002F05EFB6068F1
:10282000504509D040B1022806D00A2804D041F210
:1028300019511BA002F051FBE0680F2804D941F2A6
:102840001A5117A002F049FBE2686168286802F09B
:10285000A9F940212868C9E72868884212D048456C
:1028600010D090420ED098420CD0B0420AD0B8425C
:1028700008D0604506D0404504D041F2295108A057
:1028800002F02BFB21682868B0E7012000900120AE
:1028900085F83D00002085F83C0000987BE60000AC
:1028A0002E2E2F447269766572732F53544D333236
:1028B000463478785F48414C5F4472697665722F80
:1028C0005372632F73746D3332663478785F686146
:1028D0006C5F74696D2E63000000014000040040CD
:1028E00000080040000C004000040140004001408E
:1028F0000018004000100040001400400044014057
:1029000000480140001C004000200040704770B5A6
:102910000446006801694FF00005C943890715D4D2
:10292000C168C943890711D4E91E016101202077DC
:10293000206880698007204602D0FFF7E7FF04E0A7
:1029400000F0C2F8204600F0D3FA2577206801692C
:10295000C943490717D4C168C943490713D46FF065
:1029600004010161022020772068806910F4407F13
:10297000204602D0FFF7CAFF04E000F0A5F8204689
:1029800000F0B6FA257720680169C943090716D413
:10299000C168C943090712D46FF00801016104201E
:1029A00020772068C0698007204602D0FFF7AEFF7D
:1029B00004E000F089F8204600F09AFA25772068B4
:1029C0000169C943C90617D4C168C943C90613D4EC
:1029D0006FF010010161082020772068C06910F4B1
:1029E000407F204602D0FFF791FF04E000F06CF832
:1029F000204600F07DFA257720680169C943C907A0
:102A000008D1C168C943C90704D1891E01612046A4
:102A100000F05EFB20680169C943090609D4C1685A
:102A2000C943090605D46FF0800101612046FFF714
:102A300039FB20680169C943490609D4C168C94303
:102A4000490605D46FF040010161204600F041FBCA
:102A500020680169C94389060BD4C168C943890646
:102A600007D46FF0200101612046BDE87040FFF7F8
:102A70001ABB70BD10B586B0044614216846FDF738
:102A80006AFC0E492068884216D10D480021026870
:102A900042F004020260006800F0040005904FF468
:102AA000207000900220CDE901010320CDE9031040
:102AB00069460448FDF7D8FF06B010BD0004014088
:102AC0003038024000080240704700002DE9F05FF6
:102AD00016000D4604464FF000090CD0042E0AD013
:102AE000082E08D00C2E06D03C2E04D041F27701DF
:102AF00077A002F0F2F92868602806D0702804D088
:102B000041F2780172A002F0E8F9A86830B1022819
:102B100004D041F279016EA002F0DFF9286930B1EA
:102B2000042804D041F27A0169A002F0D6F994F8A1
:102B30003C0001281CD001207349744A744B754F26
:102B4000DFF8D4C1DFF8D4A1DFF8D4B184F83C00B9
:102B50004FF0804876B1042E41D0082E6AD00C2E5A
:102B60007DD08146002084F83C004846BDE8F09FB7
:102B70000220FBE7206888421ED040451CD09042CE
:102B80001AD0984218D0B84216D0604514D050459B
:102B900012D0644988420FD0634988420CD058450E
:102BA0000AD06249884207D06149884204D041F284
:102BB000840147A002F091F92946206801F042FE05
:102BC0002068816941F0080181612068816921F0F4
:102BD00004018161206881692A69114328E0206825
:102BE000884212D0404510D090420ED098420CD06E
:102BF000B8420AD0604508D0504506D0584504D0A8
:102C000041F2950132A002F068F92946206801F0EE
:102C10008BFE2068816941F40061816120688169CF
:102C200021F480618161206881692A6941EA022179
:102C3000816197E7206888420ED040450CD09042D1
:102C40000AD0984208D0B84206D0604504D041F27C
:102C5000A6011FA002F041F92946206800E010E01B
:102C600001F0D8FE2068C16941F00801C161206807
:102C7000C16921F00401C1612068C1692A69114359
:102C800024E0206888420ED040450CD090420AD003
:102C9000984208D0B84206D0604504D041F2B7014E
:102CA0000BA002F01AF92946206801F029FF2068DC
:102CB000C16941F40061C1612068C16921F480618A
:102CC000C1612068C1692A6941EA0221C16149E7FD
:102CD0002E2E2F447269766572732F53544D333202
:102CE000463478785F48414C5F4472697665722F4C
:102CF0005372632F73746D3332663478785F686112
:102D00006C5F74696D2E6300000001400004004098
:102D100000080040000C0040000401400040014059
:102D2000001800400044014000480140001C0040E1
:102D30000020004010B5040058D03F492068884268
:102D40002BD0B0F1804F28D03C49884225D03C4957
:102D5000884222D03B4988421FD03B4988421CD040
:102D60003A49884219D03A49884216D039498842AE
:102D700013D03949884210D0384988420DD038499B
:102D800088420AD03749884207D03749884204D060
:102D900040F2295135A002F0A0F8A06860B11028D7
:102DA0000AD0202808D0402806D0602804D040F25D
:102DB0002A512EA002F091F8206950B1B0F5807F21
:102DC00007D0B0F5007F04D040F22B5127A002F0CD
:102DD00084F8A06930B1802804D040F22C5123A09F
:102DE00002F07BF894F83D0010B107E0012010BD1F
:102DF000002084F83C00204600F054F8022084F8BB
:102E00003D00211D206801F02DFC012084F84600C2
:102E100084F83E0084F83F0084F8400084F84100C4
:102E200084F8420084F8430084F8440084F84500A4
:102E300084F83D00002010BD000001400004004067
:102E400000080040000C004000100040001400404A
:102E5000000401400040014000440140004801409E
:102E600000180040001C0040002000402E2E2F447F
:102E70007269766572732F53544D333246347878C5
:102E80005F48414C5F4472697665722F5372632FBD
:102E900073746D3332663478785F68616C5F74691F
:102EA0006D2E630008B500680F4988421AD10F489B
:102EB000016841F0020101600068002200F0020098
:102EC000009011462C20FEF77DFC2C20FEF748FCDC
:102ED000002211462E20FEF775FCBDE808402E208A
:102EE000FEF73EBC08BD000000040140443802402B
:102EF000704700002DE9F05F05460068DFF86C813F
:102F00000227DFF86C91DFF86CA1DFF86CB15B4E43
:102F10000C46404507D1002C63D0042C68D0082C07
:102F20006DD00C2C56D0B0F1804F4CD0484507D115
:102F3000002C56D0042C5BD0082C60D00C2C49D02F
:102F4000504506D1F4B3042C52D0082C57D00C2C89
:102F500040D0584506D1ACB3042C49D0082C4ED0F3
:102F60000C2C37D0B04206D164B3042C40D0082CCE
:102F700045D00C2C2ED04249884202D114B3042CE7
:102F800036D04049884200D1E4B13F49884200D15F
:102F9000C4B13E49884202D1A4B1042C28D03C4996
:102FA000884200D174B13B49884200D154B140F20B
:102FB000AF5139A001F091FF24B1042C18D0082C96
:102FC0001DD007E00DE064B1042C11D0082C16D000
:102FD0000C2CECD195F84100012817D00120BDE858
:102FE000F09F95F83E000128F8D185F83E700FE07B
:102FF00095F83F000128F1D185F83F7008E095F879
:1030000040000128EAD185F8407001E085F8417060
:1030100001222146286801F089FB2868404501D03B
:10302000B04203D1426C42F40042426428684045F9
:1030300010D0B0F1804F0DD048450BD0504509D08D
:10304000584507D0B04205D00D49884202D00F49FB
:10305000884204D1816801F00701062903D0016884
:1030600041F0010101600020B9E7000000000140CB
:103070000004004000080040000C00400004014033
:103080000040014000440140004801400018004059
:10309000001C0040002000402E2E2F4472697665EF
:1030A00072732F53544D3332463478785F48414C15
:1030B0005F4472697665722F5372632F73746D3338
:1030C00032663478785F68616C5F74696D2E630076
:1030D0007047704770477047F8B501680446086844
:1030E000CA684B6910F00F0F4FF0000559D003F07C
:1030F000010602F49077374365D0C10705D0D105AA
:1031000003D5216C41F001012164410705D5D907A0
:1031100003D0216C41F002012164810705D5D90754
:1031200003D0216C41F004012164010707D502F0AE
:103130002001314303D0216C41F008012164216C4E
:1031400000293AD0800604D5900602D5204601F029
:1031500082FD20684069216CC0F38010090700D40B
:1031600060B3204601F050FD20684069400621D53B
:103170002068143050E8001F21F0400140E80012A0
:10318000002AF5D1A06BA8B16C490165A06BFDF7D1
:1031900004FA002811D0A06B016D01B0BDE8F04029
:1031A000084783060FD593060DD52046BDE8F840A5
:1031B00001F051BD2046FFF78EFFF8BD2046FFF716
:1031C0008AFF2564F8BD266B2023012E79D1C6061F
:1031D00077D5D60675D508684868009048694006D6
:1031E00040D5A16B086840680004000CEAD0A28DAD
:1031F0008242E7D9E085C869B0F5807F2DD020688C
:103200000C3050E8001F21F4807140E80012002AC1
:10321000F5D12068143050E8001F21F0010140E88A
:103220000012002AF5D12068143050E8001F21F068
:10323000400140E80012002AF5D184F83E302563B1
:1032400020680C3050E8001F21F0100140E8001207
:10325000002AF5D1A06BFDF757F9A08DE18D401A3A
:1032600081B229E0A08DE18D401A81B2E08D002865
:10327000A8D00029A6D020680C3050E8002F22F4F6
:10328000907240E80026002EF5D12068143050E8F6
:10329000002F22F0010240E80026002EF5D184F82C
:1032A0003E30256320680C3050E8002F22F01002D9
:1032B00040E80023002BF5D12046FFF70BFFF8BDB7
:1032C000FFE705062BD5150629D594F83D002128E2
:1032D000F5D1A068B0F5805F01D12069B0B1206A56
:1032E000411C2162216800784860E08C401E000487
:1032F000000CE084E3D12068C16821F08001C16046
:103300002068C16841F04001C160D8E7206A0088A8
:10331000C0F308004860206A801C2062E5E7400690
:10332000CDD55006CBD5CA68204622F04002CA60EF
:1033300084F83D3000F045F9C1E70000F94B000882
:1033400070B5040023D0A0693B4900283B4A3C4BA0
:103350003C4D20681DD088420CD090420AD0984243
:1033600008D0A84206D040F2731137A001F0B5FD95
:10337000A06908B3A069B0F5807F1DD0B0F5007FCB
:103380001AD0B0F5407F17D04FF4BA7111E0012088
:1033900070BD884210D090420ED098420CD039496E
:1033A000884209D03849884206D0A84204D04FF458
:1033B000BC7125A001F091FDA06838B1B0F5805F27
:1033C00004D04FF4BD7120A001F087FDE06938B151
:1033D000B0F5004F04D040F27B111BA001F07DFD41
:1033E00094F83D00002520B984F83C50204600F0B8
:1033F0004DF8242084F83D002068C16821F4005174
:10340000C160204601F088FC2068016921F49041E8
:1034100001612068416921F02A0141612068C16889
:1034200041F40051C1602564202084F83D0084F8F7
:103430003E00002070BD000000100140004400402C
:1034400000480040001401402E2E2F44726976651A
:1034500072732F53544D3332463478785F48414C61
:103460005F4472697665722F5372632F73746D3384
:1034700032663478785F68616C5F756172742E6350
:1034800000000000004C0040005000402DE9F047D3
:1034900086B0064614216846FCF75DFF4249424863
:1034A000DFF80081D6F800C000241038022303257D
:1034B0004F054FF440624FF480694FF4807AC44561
:1034C00039D1D1F800C04CF4002CC1F800C0096813
:1034D00001F400210591016841F0040101600068D8
:1034E000694600F0040005900820CDE903508DE8FE
:1034F0001C002E48FDF7B8FA2E4D2D482860C5E96E
:103500000174C5E903496C61C5E9064A2C62284685
:103510006C62FDF727F908B1FCF7F3FFB5630022F1
:1035200011463420AE63FEF74DF93420FEF718F94A
:1035300006B0BDE8F087DFF88080C445F8D1D1F847
:1035400000C04CF4802CC1F800C0096801F480214F
:103550000591016841F0020101600068694600F0D0
:10356000020005900720CDE903508DE81C001348A8
:10357000FDF77AFA0F4D0E48603518382860C5E916
:103580000174C5E903496C61C5E9064A2C62284605
:103590006C62FDF7E7F808B1FCF7B3FFB563AE6303
:1035A000C6E70000004C00404038024000080240DE
:1035B0004060024014020020004800400004024025
:1035C00070477047FEE700000148FDF709BC0000A6
:1035D000A80000200148FDF760BC0000A800002002
:1035E00038B5806B002190F83D202B4B46F2A81493
:1035F0001B68B3FBF4F3C3EBC30303EB8303009338
:103600003BB15B1E009303681B689B0505D5009BBF
:10361000F6E7036C43F020030364436B03B1D96303
:10362000836B03B1D96303681C6824F480641C6055
:103630004185436B03B11965836B03B11965036859
:103640001C6824F001041C6090F83D402023602C8D
:103650000BD0282434EA02020FD080F83D3080F8E5
:103660003E1000BFFDF731FD38BD80F83D3080F8D9
:103670003E100164FDF7B2FB38BD0268136843F0E9
:10368000010313600268136843F4806313600163ED
:1036900080F83D40E6E700001800002070B50446C1
:1036A00090F83D0094F83E10102901D0402906D131
:1036B000222804D121680A6822F400620A602821C5
:1036C00031EA00024FF000054FF0200626D02168B5
:1036D0004968090505D4602803D084F83D6084F862
:1036E0003E50256320684168090537D5416821F4BB
:1036F00000614160606B90F835203C49012A11D08F
:103700000165606BFCF749FF38B32068016821F060
:103710000101016084F83D60606B1CE0256384F862
:103720003D10DFE7A06B0165A06BFCF736FFA0B191
:1037300020684169C943490605D40069616A087077
:10374000606A401C60622068016821F0010101602C
:1037500084F83D60A06B016D884710E094F83D103F
:10376000602910D04169C943490605D40069616ADE
:103770000870606A401C60622046FDF7A6FC206C61
:10378000C1071CD115E084F83D6025644169C94337
:10379000490605D40069616A0870606A401C60626D
:1037A0002068016821F0010101602046FDF716FB49
:1037B000E5E7810703D4410701D4000704D5206859
:1037C000416821F4E061416094F83D00216C4907B3
:1037D0000BD5282809D10648E062256384F83D60AE
:1037E00084F83E502046FDF76BFE70BDE1350008C1
:1037F0000000FFFF01684A69D24352050FD46FF4FD
:1038000080624A61002140F8301F20224273817398
:10381000026942F004020261017301207047002036
:10382000704710B5C26A438D0168042B06D0438DE2
:10383000032B08D0438D022B1DD012E04A6822F4DE
:1038400080624A600CE04B6823F480634B60042A7A
:1038500006D0022A04D001680A6822F480620A6055
:1038600001680969426A1170416A491C4162418DCF
:10387000491E418510BD012A30D0102A2ED0042ABD
:1038800030D0022A2ED00A6842F400720A60016821
:103890000969426A1170416A491C4162428D521E97
:1038A0004285026812690A70416A491C4162418D71
:1038B000491E418501684A6822F440724A6020210D
:1038C00080F83D1090F83E200021402A80F83E10FC
:1038D0000CD012210163FDF7F4FD10BD0A6822F43B
:1038E0008062D3E70A6842F48062CFE70163FDF7A4
:1038F00081FE10BD38B590F83D1022290FD1418DC1
:1039000003290DD901680969426A1170416A491C8D
:103910004162418D491E4185418D032906D038BD44
:10392000C26A022A02D0012906D029B10068416882
:1039300021F48061416038BD274946F2A813002276
:103940000968B1FBF3F101EB8101009101682023CB
:10395000009C641E009422D00C68A405F8D40C6866
:1039600024F480640C6001684C6824F4E0644C60CA
:1039700001680969446A2170416A491C4162418DAC
:10398000491E418580F83D3090F83E1080F83E2079
:1039900040291DD012210163FDF793FD38BD046C51
:1039A00044F0200404644C6824F4E0644C60016832
:1039B0000969446A2170416A491C4162418D491E6E
:1039C000418580F83D3080F83E20FDF77EFB38BD14
:1039D0000263FDF70FFE38BD18000020F8B504465D
:1039E000C06A1E460D461746082807D0012805D094
:1039F00010F5803F02D0206B122804D120680168A6
:103A000041F480710160134600224FF001112046FD
:103A1000009600F055FB40B120680068C00502D553
:103A20004FF4007020640320F8BD2069B0F5804F8A
:103A30000ED00620216800EAD51040F0F0000861A1
:103A400033463A460B49204600F06EFB78B902E057
:103A500005F0FE0000E0E8B2216808610549334640
:103A60003A46891F204600F05FFB0028DCD0012089
:103A7000F8BD00000800010010B5C26A90F83D10C2
:103A800021290BD1418D51B1416A02680978116138
:103A9000416A491C4162418D491E418510BD202368
:103AA0000021082A13D0202A11D012F5803F0ED011
:103AB0000268546824F4E06454601122026380F8C0
:103AC0003E1080F83D3000BFFDF7FCFC10BD0268E1
:103AD000546824F4E06454600268146844F4007488
:103AE0001460016380F83D3090F83E2080F83E106D
:103AF000402AE9D1FDF77FFD10BD000010B590F818
:103B00003D1090F83E30C26A048DB4B1212903D033
:103B1000402B11D122290FD1418DE1B390F83E10F5
:103B2000402942D0416A026809781161416A491C02
:103B30004162418D491E418510BD2129E8D12023D4
:103B40000021082A13D0202A11D012F5803F0ED070
:103B50000268546824F4E06454601122026380F81F
:103B60003E1080F83D3000BFFDF7ACFC10BD026890
:103B7000546824F4E06454600268146844F40074E7
:103B80001460016380F83D3090F83E2080F83E10CC
:103B9000402AE9D100E002E0FDF72DFD10BD0068EC
:103BA000416821F48061416010BDBDE8104000F023
:103BB000D3B8000078B590F83E50C26A036B90F815
:103BC0003D6000240168222E7AD1066D0EB9402D89
:103BD00076D0056D1DB90569B5F5404F09D0458D05
:103BE00005B3468D384D012E0ED0438D022B3AD0B1
:103BF0005DE04A698A6900920A6842F480720A604C
:103C0000016D491C016578BDAA4213D10A6822F4EE
:103C100080620A6001684A68120503D50A6822F4C6
:103C2000806216E04A698A6900920A6842F400726A
:103C30000A6039E0082A10D0202A0ED0122B0AD0B0
:103C4000042A03D0022A01D0102AE7D10A6842F4DC
:103C500080620A6024E0012AE0D00A6822F48062CF
:103C60000A600168DEE7042A21D0022A1FD0102A48
:103C70001DD00B6823F480630B6001680B6843F46C
:103C800000630B6001684B681B0509D5AA4212D07E
:103C9000012A10D0082A0ED0102A0CD0202A0AD0CF
:103CA00001684A6989690091046578BD08E00B687C
:103CB00043F48063E5E74A6842F480524A60EFE7E4
:103CC000486988690090F0E70000FFFF90F83E1017
:103CD000402910D00169B1F5804F19D0016DA9B309
:103CE000016D012910D1416C5FF0F10201F44071C6
:103CF00042EAD11106E0016D0029416C05D0C9B23C
:103D000041F0010100680161704701F0FE01F9E72F
:103D100090F83D102129416C09D0C9B241F0010150
:103D200002681161416B29B1C96B49B902E001F028
:103D3000FE01F5E7816B0029E6D0C96B0029E3D0CD
:103D40000068416841F4006141607047FFE7416CE1
:103D5000F02201F44071CBE710B590F83D10026DF0
:103D600022B3026D012A2FD0026D022A1DD1222911
:103D70002FD0428D0AB1212933D0428D002A14D18F
:103D8000212912D101684A6822F4E0624A60016880
:103D90000A6842F400720A6000210163202280F860
:103DA0003D2080F83E10FDF726FC10BDC16C0129B6
:103DB000816C02D0C1F3072108E00268C9B2116129
:103DC000016D891C016510BD816CC9B20268116169
:103DD00004E001680A6842F480720A60016D491CBF
:103DE000F0E7416A026809781161416A491C416241
:103DF000418D491E418510BD2DE9F0410024114D32
:103E0000012627466100642301220F48FDF7A2FA2C
:103E100040B12F55641CE4B2802CF3D3687D38B1D7
:103E2000BDE8F0812E55F5E764210120FCF7F8FA92
:103E3000642301222A210448FDF78CFA0028F3D1DB
:103E4000EEE700001C000020A800002038B50C465A
:103E500090F83D2000212825954302680B4605D0A7
:103E600051699169009180F83C3038BD556825F45E
:103E700080655560E243540700D50121120601D543
:103E8000828900E0028B80F83C3092B2FCF7A7FFF9
:103E900038BD00002DE9F04190F83D40C26A002392
:103EA00020261C4F01686FF48065082A01D0202A63
:103EB00001D1282C04D0212C16D04D61BDE8F08111
:103EC000C7624A6822F4E0624A6001684D61016895
:103ED0000A6822F480620A60036380F83D6080F81B
:103EE0003E30FDF7EDFAE9E7C7622122026380F870
:103EF0003D6080F83E304A6822F4E0624A60016822
:103F00004D6101680A6822F480620A60FDF7B9FB1E
:103F1000D4E700000000FFFFF8B590F83D600446CC
:103F20000068416821F4E061416020680025416932
:103F30000091016841F0010101602068016821F4ED
:103F40008061016020684168090520D5474F222E15
:103F500048D02A2E46D0616B096849686185618D19
:103F600019B1216C41F004012164416821F4006120
:103F70004160606BFCF723FB012808D0606B07658C
:103F8000606BFCF70AFB10B1606B016D8847608DB8
:103F900008B320684169C943490708D40069616AC8
:103FA0000870606A401C6062608D401E60852068F9
:103FB0004169C943490608D40069616A0870606AAA
:103FC000401C6062608D401E6085608D18B1206C61
:103FD00040F004002064206C00B32046BDE8F840A7
:103FE000FFF75CBBA16B096849686185618D19B1F8
:103FF000216C41F004012164416821F400614160B9
:10400000A06BFCF7DCFA0128C1D0A06B0765A06BA0
:10401000FCF7C3FA0028BAD0A06BB6E72A2E06D167
:104020002563282084F83D002046FDF729FB94F8FD
:104030003D10202028290DD0216B222901D0222ECD
:1040400007D1256384F83D0084F83E502046FDF7F3
:1040500017FBF8BD0649E162256384F83D0084F84A
:104060003E502046FDF72CFAF8BD0000E13500086F
:104070000000FFFF70B516460D4604460DE02046D1
:10408000FFF7B8FB08B1012070BD681C05D0FCF734
:104090009FFE801BA84207D835B120684069C04305
:1040A0004007ECD4002070BD002044F8300F2021E0
:1040B0006173A073216941F0200121612073E2E75F
:1040C0002DE9F0471E4690460D460446C1F30747CA
:1040D000DDF8209008E0701C06D0FCF779FEA0EB1C
:1040E0000900B0420FD876B12068012F18D080693E
:1040F00025EA00000004000C14D000214145EAD05C
:104100000020BDE8F087002044F8300F20216173C3
:10411000A073216941F02001216120730120F0E7A3
:104120004069E5E70121E9E72DE9F0479A46914624
:104130000E46044600254FF02008C1F3074725E04E
:1041400020684069C043400514D42068016841F4E8
:104150000071016021686FF480604861256384F814
:104160003D8084F83E50206C40F00400206484F8C8
:104170003C501FE0B9F1FF3F08D0FCF729FEA0EB4F
:104180000A0149450CD8B9F1000F09D02068012F68
:1041900013D0806926EA00000004000C0BD0CFE7A2
:1041A00044F8305F84F80D80A573206940F020004A
:1041B000206125730120BDE8F0874069EAE770B50A
:1041C00016460D4604460DE02046FFF713FB08B1E6
:1041D000012070BD681C05D0FCF7FAFD801BA842C9
:1041E00007D835B120684069C0430006ECD40020F0
:1041F00070BD002044F8300F20216173A073216945
:1042000041F0200121612073E2E700000D4808B56C
:10421000016841F4001101600068002200F4001000
:10422000009011460C20FDF7CDFA0C20FDF798FA0E
:10423000002211460D20FDF7C5FABDE808400D200B
:10424000FDF78EBA303802402DE9F04F87B01421C7
:104250006846FCF780F857480024016841F01001D7
:104260000160016801F010010591016841F004014D
:104270000160016801F004010591016841F08001CD
:104280000160016801F080010591016841F00101C0
:104290000160016801F001010591016841F002012E
:1042A0000160016801F002010591016841F0080117
:1042B00001600068002200F0080005904FF44051B2
:1042C0003D48FCF74FFD012211463B48FCF74AFDF3
:1042D000DFF8E8A04FF40448002241465046FCF7BE
:1042E00041FDDFF8DCB048F2420900224946584659
:1042F000FCF738FD47F6FF300325CDE90005694698
:1043000002945046FCF7B0FB4FF400500090112788
:10431000CDE90174694628480394FCF7A5FB012602
:1043200069462548CDE90245CDE90067FCF79CFBCD
:104330004FF4BF70CDE90005694602941E48FCF7B2
:1043400093FB49F6FF70CDE90005694602941D48CC
:10435000FCF78AFB4FF23F30CDE900056946029435
:104360001948FCF781FBCDF80080CDE9016469466E
:1043700050460394FCF778FB47F6BD70CDE9000585
:10438000694602945846FCF76FFBCDF80090CDE9E2
:104390000164694658460394FCF766FB30030090BD
:1043A000CDE90164694604480394FCF75DFB07B05E
:1043B000BDE8F08F30380240000802400010024093
:1043C000000C024000000240000402400D4810B5FD
:1043D0000B4901600C49416000214FF4804281602B
:1043E000C0E9031241618161C1610162FCF76EFEA7
:1043F000002803D0BDE81040FCF783B810BD0000D2
:1044000000540040A8000020A086010010B586B02E
:1044100000241748009401940294039404941349CF
:104420000594C0E900144FF6FF71C0E90241046130
:1044300044618461FDF784FF08B1FCF762F84FF432
:104440008050009069460A48FEF758F808B1FCF71A
:1044500058F8049404A906480594FDF7C9FE0028FD
:1044600001D0FCF74EF806B010BD0000000001407E
:10447000FC00002010B592B000240F941C21684667
:104480001094FBF768FF202107A8FBF764FF25487D
:104490002349C0E900144FF6FF71C0E902410461ED
:1044A00044618461FEF746FC08B1FCF72AF80F94DA
:1044B0000FA91C481094FDF79BFE08B1FCF721F8EA
:1044C0006020CDE900040220CDE9020404940594A3
:1044D0000422694613480694FEF7F8FA08B1FCF77F
:1044E00010F80C2269460F480294FEF7EFFA08B163
:1044F000FCF707F80794089409944FF400500A94C5
:10450000CDE90B4007A907480E94FDF7CDFD08B192
:10451000FBF7F7FF0348FEF7ADFA12B010BD00003D
:1045200000040140440100200C4810B50A49016014
:104530004FF4E1314160002181600C22C160C0E98B
:1045400004128161C161FEF7FBFE002803D0BDE8C3
:104550001040FBF7D6BF10BD004C00408C0100207E
:104560000C4810B50A4901604FF4E1314160002167
:1045700081600C22C160C0E904128161C161FEF753
:10458000DFFE002803D0BDE81040FBF7BABF10BD26
:1045900000480040D0010020FEE7FEE7704770476A
:1045A0007047FDF76FB8000010B592B03021684633
:1045B000FBF7D1FE14210CA8FBF7CDFE1748002411
:1045C000016841F080510160006800F08050119056
:1045D0001348016841F4804101600068069400F4CA
:1045E0008040119002200090012003901020049040
:1045F0006846FDF7EFFA08B172B6FEE70F20CDE985
:104600000C040E940F9400210CA81094FDF76AF985
:10461000002801D072B6FEE712B010BD403802404B
:10462000007000400248016841F470010160704769
:1046300088ED00E00148FEF76AB90000FC000020A8
:104640000148FEF764B90000FC0000200148FEF7B5
:104650005EB90000440100200148FEF758B900008F
:1046600044010020F0B50268254C264D264E274F08
:10467000274B4FF0804CA04209D0604507D0A8429C
:1046800005D0B04203D0B84201D0984204D122F004
:10469000700E4A6842EA0E02A0421BD0604519D053
:1046A000A84217D0B04215D0B84213D0984211D0CA
:1046B000184DA8420ED0184DA8420BD0174DA84255
:1046C00008D0174DA84205D0164DA84202D0164D6D
:1046D000A84203D122F44075CA682A434D6922F0EA
:1046E00080022A4302608A68C2620A688262A0422B
:1046F00001D0984201D10969016301214161F0BDF6
:10470000000001400004004000080040000C004090
:1047100000040140004001400044014000480140C5
:1047200000180040001C00400020004070B5044606
:10473000224816460D46844225D0B4F1804F22D03F
:104740001F4884421FD01F4884421CD01E48844208
:1047500019D01E48844216D01D48844213D01D48EB
:10476000844210D01C4884420DD01C4884420AD098
:104770001B48844207D01B48844204D041F6945120
:1047800019A000F0AAFB65B1042D0AD0082D08D0AD
:104790000C2D06D03C2D04D041F6955112A000F00E
:1047A0009CFB05F01F010120226A8840824322629F
:1047B000206A8E403043206270BD0000000001403E
:1047C0000004004000080040000C004000040140CC
:1047D00000400140004401400048014000180040F2
:1047E000001C0040002000402E2E2F447269766588
:1047F00072732F53544D3332463478785F48414CAE
:104800005F4472697665722F5372632F73746D33D0
:1048100032663478785F68616C5F74696D2E63000E
:1048200010B5846842EA032224F47F440A432243F9
:10483000826010BD826822F070020A4342F00701D4
:10484000816070472DE9F0470446006A0D4620F06C
:1048500001002062206A6768A169AE6821F07302D6
:10486000296820F00200DFF880900643DFF87CA082
:1048700041EA02084C4501D054450ED1E86830B1F8
:10488000082804D041F6C72119A000F026FBE868EB
:1048900026F00801084320F004064C4501D0544599
:1048A00019D1A869B0F5007F05D020B141F6D42117
:1048B0000FA000F012FB6869B0F5807F05D020B131
:1048C00041F6D5210AA000F008FB27F44071686981
:1048D000AF69084307436760C4F81880686860637D
:1048E0002662BDE8F087000000000140000401409E
:1048F0002E2E2F447269766572732F53544D3332C6
:10490000463478785F48414C5F4472697665722F0F
:104910005372632F73746D3332663478785F6861D5
:104920006C5F74696D2E63002DE9F0470446006AE0
:104930000D4620F010002062206A6768A1692A688D
:1049400021F4E64141EA0228A968DFF8889020F0C6
:104950002000DFF884A040EA01164C4501D0544500
:104960000FD1E86830B1082804D041F612311BA0FD
:1049700000F0B3FAE96826F0800040EA011020F068
:1049800040064C4501D054451BD1A869B0F5007FC5
:1049900005D020B14FF4D95110A000F09EFA6869FB
:1049A000B0F5807F05D020B141F621310BA000F099
:1049B00094FA696927F4406040EA8100A96940EAF5
:1049C00081076760C4F818806868A0632662BDE844
:1049D000F087000000000140000401402E2E2F440B
:1049E0007269766572732F53544D3332463478783A
:1049F0005F48414C5F4472697665722F5372632F32
:104A000073746D3332663478785F68616C5F746993
:104A10006D2E63002DE9F0470446006A0D4620F430
:104A200080702062206A6768E169DFF8949021F065
:104A30007302296820F4007041EA0208A968DFF8CF
:104A400084A040EA01264C4501D054450FD1E868C6
:104A500030B1082804D041F65D311BA000F03DFACA
:104A6000E96826F4006040EA012020F480664C45A5
:104A700001D054451BD1A869B0F5007F05D020B105
:104A800041F66A3110A000F028FA6869B0F5807F1D
:104A900005D020B141F66B310BA000F01EFA696918
:104AA00027F4405040EA0110A96940EA0117676005
:104AB000C4F81C806868E0632662BDE8F0870000E7
:104AC00000000140000401402E2E2F4472697665DB
:104AD00072732F53544D3332463478785F48414CCB
:104AE0005F4472697665722F5372632F73746D33EE
:104AF00032663478785F68616C5F74696D2E63002C
:104B00002DE9F0410446006A0D4620F480502062F1
:104B1000206A6668E1692A6821F4E64141EA0228D0
:104B2000A96820F4005040EA01370E48844202D0C0
:104B30000D4884420ED16869B0F5807F05D020B160
:104B400041F6A93109A000F0C8F9696926F480404E
:104B500040EA81166660C4F81C8068682064276299
:104B6000BDE8F08100000140000401402E2E2F44DA
:104B70007269766572732F53544D333246347878A8
:104B80005F48414C5F4472697665722F5372632FA0
:104B900073746D3332663478785F68616C5F746902
:104BA0006D2E630010B5036A046A24F001040462E8
:104BB000846924F0F00444EA021423F00A020A4350
:104BC0008461026210BD10B5036A23F01003036212
:104BD0008369046A23F4704343EA023224F0A00399
:104BE00043EA01118261016210BD00000148FEF735
:104BF00073BA00008C01002010B5806B0021C185C4
:104C0000C184FEF768FA10BD01680C3151E8002F2D
:104C100022F4907241E80023002BF5D10168143191
:104C200051E8002F22F0010241E80023002BF5D1CA
:104C3000016B012909D101680C3151E8002F22F0E4
:104C4000100241E80023002BF5D1202180F83E100E
:104C500000210163704708B590F83E10222901D069
:104C6000022008BD82684FF480539A4201D1016945
:104C700021B1816A9A421BD04AB10AE00268816A76
:104C80005268C2F308020A80816A891C08E002693E
:104C900072B10268526802F07F020A70816A491C90
:104CA0008162C18D491E0904090CC18503D019E038
:104CB00002685268F1E70168CA6822F02002CA60FF
:104CC0000168CA6822F48072CA6001684A6922F0E9
:104CD00001024A61202180F83E10016B012903D0B6
:104CE000FEF76EFC002008BD0021016301680C3155
:104CF00051E8002F22F0100241E80023002BF5D1EB
:104D000001680A68D20602D50A6849680091818D57
:104D1000FEF7E0F9E6E7000070B504464068544944
:104D2000884204D940F6616152A000F0D6F8E068EC
:104D300038B1B0F5005F04D040F662614DA000F0DC
:104D4000CCF8206950B1B0F5806F07D0B0F5C06FD6
:104D500004D040F6636147A000F0BFF860694FF6E9
:104D6000F371084200D120B940F6646141A000F01F
:104D7000B4F820680169E26821F4405111430161EF
:104D80002169A068E2690843616911432268084308
:104D9000D16849F20C6399430143D16020684169AD
:104DA000A26921F440711143416141492068884260
:104DB00002D04049884202D1FCF7CAFE01E0FCF76C
:104DC000B7FEE2690023192164253226B2F5004FAF
:104DD000626828D0A0FB0101930F9200FBF744FA10
:104DE0000146B0FBF5F06FF01802504301EB800074
:104DF00006EB0010B0FBF5F000F0F002B1FBF5F0AF
:104E000002EB0012B1FBF5F06FF01803584301EB11
:104E1000800006EB0010B0FBF5F000F00F002168F9
:104E20001044886070BDA0FB010192185B41FBF744
:104E30001BFA0146B0FBF5F00201B1FBF5F06FF093
:104E40001803584301EB800006EBC000B0FBF5F0FF
:104E500000F0F80002EB4002B1FBF5F0584301EB23
:104E6000800006EBC000B0FBF5F000F00700D6E7CD
:104E7000A037A0002E2E2F447269766572732F53CF
:104E8000544D3332463478785F48414C5F44726900
:104E90007665722F5372632F73746D333266347874
:104EA000785F68616C5F756172742E63000000004A
:104EB0000010014000140140FEE70907090E002818
:104EC00004DB00F1E02080F80014704700F00F00D0
:104ED00000F1E02080F8141D7047704708B5FCF71A
:104EE000D9FBFFF761FBFFF7AFF9FFF78FF9FFF78A
:104EF000C1FAFFF735FBFFF789FAFFF715FBFFF75C
:104F000065FAFEF779FF012251032A48FBF72AFFD1
:104F100000212948FDF7EEFF284D0A2441F288368A
:104F20004FF487770A20FBF78DFD24496420091D83
:104F3000FBF7E3FA214A00940323121D69882048F5
:104F4000FCF7C2FA3046FBF77DFD1C49C820091D5D
:104F5000FBF7D3FA194A00940323121D69881848F5
:104F6000FCF7B2FA3046FBF76DFD14495A20091DD3
:104F7000FBF7C3FA114A00940323121D69881048F5
:104F8000FCF7A2FA3046FBF75DFD0C493846091DD7
:104F9000FBF7B3FA094A00940323121D69880848F5
:104FA000FCF792FA3046FBF74DFD05210120FBF797
:104FB00037FAB7E700080240440100200000002053
:104FC000A80000204FF04070E1EE100A7047000684
:104FD000101600061016000000000000000001027C
:104FE0000304060708090000000001020304000092
:104FF00010500008000000201C000000C401000840
:105000002C5000081C0000201C090000E0010008D2
:1050100088132A00050000000000000001000000C5
:0C50200010000000000000000024F4005C
:040000050800018965
:00000001FF
