:020000040800F2
:100000004008002029020008FF2F0008212D0008C9
:10001000FD2F00081F040008113800080000000030
:100020000000000000000000000000000530000893
:10003000A904000800000000013000080730000893
:10004000430200084302000843020008430200087C
:10005000430200080330000843020008430200087E
:10006000430200084302000843020008430200085C
:10007000430200082104000843020008430200086C
:10008000430200084302000843020008430200083C
:10009000430200084302000843020008430200082C
:1000A000430200084302000843020008430200081C
:1000B000430200084302000843020008430200080C
:1000C00043020008430200084302000843020008FC
:1000D00043020008430200080538000843020008F4
:1000E000AB04000843020008430200084302000872
:1000F00043020008430200084302000843020008CC
:1001000043020008430200084302000843020008BB
:1001100039350008430200084302000899300008FE
:10012000430200084302000843020008430200089B
:10013000430200084302000843020008430200088B
:10014000430200084302000843020008430200087B
:10015000430200084302000843020008430200086B
:10016000430200084302000843020008430200085B
:100170004302000843020008430200080000000098
:1001800043020008B704000800F002F800F03CF851
:100190000AA090E8000C82448344AAF10107DA45E2
:1001A00001D100F031F8AFF2090EBAE80F0013F0F8
:1001B000010F18BFFB1A43F00103184778370000FE
:1001C00098370000103A24BF78C878C1FAD852078F
:1001D00024BF30C830C144BF04680C6070470000C1
:1001E0000023002400250026103A28BF78C1FBD840
:1001F000520728BF30C148BF0B6070471FB503F0DE
:1002000083FB1FBD10B510BD00F0CFF81146FFF7FE
:10021000F5FF03F00FFB00F0EDF803B4FFF7F2FF7A
:1002200003BC00F0F5F80000094880470948004782
:10023000FEE7FEE7FEE7FEE7FEE7FEE7FEE7FEE796
:10024000FEE7FEE704480549054A064B70470000F3
:100250008930000889010008400200204008002081
:10026000400400204004002053EA020C00F06980A2
:100270002DE9F04B4FF00006002B1FBFB3FA83F5BA
:1002800003FA05F424FA05F65E4012BF1643B2FAEB
:1002900082F502FA05F4C5F120051EBF22FA05FC1D
:1002A00044EA0C04203556EA044C4FEA144418BFC3
:1002B000641C4FF000084FF00009904271EB030CF2
:1002C00039D3002919BFB1FA81F701FA07F6B0FA5C
:1002D00080F700FA07F6C7F120071EBF20FA07FCD7
:1002E00046EA0C062037B6FBF4FCA7EB0507103FE7
:1002F00007F01F0BCBF120060CFA0BFB2CFA06F6CD
:1003000044BFB3460026202FA4BF5E464FF0000B2B
:100310005BEA060C08BF4FF0010B19EB0B09ABFBB6
:10032000027C48EB0608C01B06FB02CC0BFB03CC8F
:1003300071EB0C01C1E70B46024641464846BDE859
:10034000F08B13B54FF000004FF00001AFF30080C9
:10035000BDE81C4070474FF0000200B513469446BC
:100360009646203922BFA0E80C50A0E80C50B1F10D
:100370002001BFF4F7AF090728BFA0E80C5048BF21
:100380000CC05DF804EB890028BF40F8042B08BFBF
:10039000704748BF20F8022B11F0804F18BF00F8BB
:1003A000012B7047704770477047754600F02CF876
:1003B000AE4605006946534620F00700854618B052
:1003C00020B5FFF73FFFBDE820404FF000064FF09B
:1003D00000074FF000084FF0000B21F00701AC467A
:1003E000ACE8C009ACE8C009ACE8C009ACE8C00999
:1003F0008D46704710B50446AFF300802046BDE837
:100400001040FFF70ABF000000487047E0010020DD
:1004100001491820ABBEFEE7260002007047FEE748
:10042000014800F0A5B800008001002001681823F1
:10043000CAB2103AB2FBF3F2054B6FF30901032A7B
:100440009B5CC36500D9091D8165084670470000A3
:100450001239000810B5014600208B698A6A4FF0F6
:10046000C07453B1B3F5005F15D072B1012A0CD03E
:10047000022A0AD0032A09D104E01AB1012A06D0BF
:10048000022A03D1C96AC90100D5012010BDC96A79
:10049000A142FAD010BD002AF7D0012AF2D0022AD8
:1004A000F3D0032AF3D010BD70474FF4806000F002
:1004B000A1BA72B6FEE770472DE9F0410446876D98
:1004C00000F058FC064694F835000025022806D0B6
:1004D0008020606584F834500120BDE8F0812068F8
:1004E000016821F0160101602068416921F0800156
:1004F0004161206C08B9A06C20B12068016821F02E
:10050000080101602068016821F0010101600CE030
:1005100000F030FC801B052807D9202060650320EF
:1005200084F8350084F83450D7E720680068C007A5
:10053000EED194F85C103F208840B860012084F828
:10054000350084F834500020C7E790F835100229B0
:1005500003D08021416501207047052180F83510C6
:100560000068016821F0010101600020704700006F
:100570002DE9F84304464FF00009CDF80090634898
:100580004FF41651A56D0068B0FBF1F72E6894F892
:100590005C10082000FA01F131420FD021680A688E
:1005A00052070BD50A6822F004020A6094F85C1026
:1005B0008840A860606D40F00100606594F85C10B0
:1005C0004FF0010808FA01F0304208D0216849696B
:1005D000090604D5A860606D40F00200606594F8DB
:1005E0005C1004208840304208D0216809688907DF
:1005F00004D5A860606D40F00400606594F85C105C
:1006000010208840304218D021680968090714D5A5
:10061000A86020680168490304D50068000308D574
:10062000A16C07E00168C90503D4016821F0080145
:100630000160216C09B12046884794F85C102020A5
:100640008840304231D021680968C9062DD5A8609C
:1006500094F8350005282068016806D0490347D57D
:10066000006800031DD4616C1CE021F016010160DC
:100670002068416921F080014161206C08B9A06CBB
:1006800020B12068016821F00801016094F85C1035
:100690003F208840A86084F8358084F83490216D2C
:1006A0001FE0E16B09B120468847606D00282BD020
:1006B000606DC00714D0052084F8350020680168FB
:1006C00021F0010101600098401C0090B84203D85D
:1006D00020680068C007F6D184F8358084F834902B
:1006E000E16C002910D001B02046BDE8F043084776
:1006F0000168C905D5D4016821F01001016084F8B2
:10070000358084F83490CCE7BDE8F8830C000020F5
:100710002DE9F041044600F02DFB0546002C7CD06D
:10072000A249206888423ED0A049183188423AD078
:100730009E493031884236D09C494831884232D077
:100740009A49603188422ED09849783188422AD01F
:1007500096499031884226D09449A831884222D0C7
:10076000934988421FD09249183188421BD0904942
:100770003031884217D08E494831884213D08C4995
:10078000603188420FD08A49783188420BD088493D
:100790009031884207D08649A831884203D0B721DA
:1007A00084A003F046F86068C0B1B0F1007F15D0B6
:1007B000B0F1806F12D0B0F1C06F0FD0B0F1006F08
:1007C0000CD0B0F1206F09D0B0F1406F06D0B0F17D
:1007D000606F03D0B82177A003F02BF8A06838B180
:1007E000402805D0802803D0B92172A003F021F859
:1007F000E068B0F5007F04D018B1BA216DA003F015
:1008000018F82069B0F5806F04D018B1BB2169A039
:1008100003F00FF8606958B100E071E0B0F5006FC7
:1008200006D0B0F5805F03D0BC2162A003F001F8D0
:10083000A06948B1B0F5005F06D0B0F5804F03D095
:10084000BD215CA002F0F5FFE06940B1B0F5807F0A
:1008500005D0202803D0BE2156A002F0EAFF206A6E
:1008600060B1B0F5803F09D0B0F5003F06D0B0F5DB
:10087000403F03D0BF214FA002F0DBFF606A002899
:1008800032D0042806D0C0214AA002F0D2FF606A0C
:10089000002829D0A06A48B1012807D0022805D035
:1008A000032803D0C52143A002F0C3FFE06A60B172
:1008B000B0F5000F09D0B0F1807F06D0B0F1C07F55
:1008C00003D0C6213BA002F0B4FF206B60B1B0F5AD
:1008D000001F09D0B0F5800F06D0B0F5C00F03D0CF
:1008E000C72134A002F0A5FF022084F835000026BD
:1008F00084F834602068016821F0010101600EE095
:100900000120BDE8F08100BF00F034FA401B05284B
:1009100005D920206065032084F83500F1E72068C0
:100920000068C007F0D12268116830480140D4E95E
:1009300001031843D4E903352B4318436369184373
:10094000A3691843E3691843236A18430843616A9B
:10095000042903D1D4E90B1319430843106020681C
:100960004069656A20F007002946054301270429EC
:100970000CD1A06A0543E06A40B12046FFF76AFD4A
:1009800020B14020606584F83570B9E72068456182
:100990002046FFF74BFD94F85C203F219140816099
:1009A000666584F835700020ABE7000010600240F7
:1009B000106402402E2E2F447269766572732F5395
:1009C000544D3332463478785F48414C5F44726905
:1009D0007665722F5372632F73746D333266347879
:1009E000785F68616C5F646D612E63003F8010F01A
:1009F00070470000044910B50A68024202D008603E
:100A0000FFF7F6FF10BD0000143C01402DE9F84F40
:100A1000DFF888B20D46044658451BD0A0488442F2
:100A200018D0A048844215D09F48844212D09F48D5
:100A300084420FD09E4884420CD09E48844209D004
:100A40009D48844206D09D48844203D0AC219CA09E
:100A500002F0EFFE28680104090C01D0000C03D05D
:100A6000AD2197A002F0E5FE6868F8B101281DD01D
:100A700011281BD0022819D0122817D0B0F5881FD2
:100A800014D0B0F5041F11D0B0F5441F0ED0B0F54E
:100A9000901F0BD0B0F5081F08D0B0F5481F05D047
:100AA000032803D0AE2186A002F0C3FE00264FF03B
:100AB000010A4FF0030900BF0AFA06F02F688046CA
:100AC000074047457ED1287900F00300012801D076
:100AD00002281DD1E86848B1012807D0022805D0B6
:100AE000032803D0C02176A002F0A3FEA168720003
:100AF00009FA02F08143E86890400843A06060680A
:100B0000297920EA0800C1F30011B1400143616076
:100B10002879C043800712D0A86838B1012805D0D1
:100B2000022803D0D12166A002F083FEE1687200A2
:100B300009FA02F08143A86890400843E0602879F0
:100B400000F0030002282ED12869F8B109281DD031
:100B500001281BD0022819D0032817D0042815D04B
:100B6000052813D0062811D007280FD008280DD04B
:100B70000A280BD00B2809D00C2807D00D2805D047
:100B80000F2803D0DE214EA002F053FEF00804EB44
:100B90008002106A7107CB0E0F21994088432969A2
:100BA0009940014311622068720009FA02F18843FA
:100BB000297901F00301914001432160686810F434
:100BC000403F00E063E062D04C48016841F480415E
:100BD0000160006826F0030100F48040009048485E
:100BE0000A18D2F80808B1070B0F0F219940884363
:100BF0005C4501D1002123E029498C4201D101212A
:100C00001EE028498C4201D1022119E026498C427C
:100C100001D1032114E025498C4201D104210FE0C8
:100C200023498C4201D105210AE022498C4201D19D
:100C3000062105E020498C4201D1072100E008216E
:100C400099400143C2F808182E4908686A68B843F9
:100C5000D20200D5384308602A49091D08686A682D
:100C6000B843920200D5384308602649091F086836
:100C70006A68B843920300D53843086021490839AF
:100C800008686A68B843D20300D538430860761C08
:100C9000102EFFF411AFBDE8F88F000000000240F5
:100CA0000004024000080240000C02400010024014
:100CB0000014024000180240001C024000200240C4
:100CC0002E2E2F447269766572732F53544D333232
:100CD000463478785F48414C5F4472697665722F7C
:100CE0005372632F73746D3332663478785F686142
:100CF0006C5F6770696F2E6300000000443802402B
:100D000000300140083C014070B515460C00064615
:100D100004D140F29D1108A002F08BFD45B1012DD8
:100D200004D04FF4CF7104A002F083FDB46170BD14
:100D30002004B06170BD00002E2E2F4472697665CC
:100D400072732F53544D3332463478785F48414C98
:100D50005F4472697665722F5372632F73746D33BB
:100D600032663478785F68616C5F6770696F2E6394
:100D7000000000000148806870470000000000206B
:100D800002488168027811448160704700000020A9
:100D90000B4810B5016841F400710160016841F42D
:100DA00080610160016841F480710160032000F0FE
:100DB000D7F8072000F006F800F024F8002010BD56
:100DC000003C024070B50D4D04464FF47A7128780E
:100DD000B1FBF0F00A490968B1FBF0F000F026FE23
:100DE00048B9102C07D200222146501E00F068F8A6
:100DF00000206C6070BD012070BD0000000000206C
:100E00000C000020144808B5016841F480410160DD
:100E1000006800F4804000900F48001F016841F016
:100E200080510160006800F080500090042000F0C4
:100E300097F800221146052000F042F8052000F046
:100E40000DF800221146512000F03AF8BDE80840A4
:100E5000512000F003B800004438024010B50400EF
:100E600003D5BC2107A002F0E4FC002C09DB04F050
:100E70001F01012088406109890001F1E021C1F8CA
:100E8000000110BD2E2E2F447269766572732F53A8
:100E9000544D3332463478785F48414C5F44726930
:100EA0007665722F5372632F73746D3332663478A4
:100EB000785F68616C5F636F727465782E630000A1
:100EC00070B515460C460646102A03D3A82114A077
:100ED00002F0AFFC102C03D3A92111A002F0A9FC51
:100EE0001E480068C0F30223C3F107022046042A0B
:100EF00000D90422191D072901D2002300E0DB1EBE
:100F0000012404FA02F1491E014099409C40641EEC
:100F10002C4021433046BDE8704002F07ABC00000E
:100F20002E2E2F447269766572732F53544D3332CF
:100F3000463478785F48414C5F4472697665722F19
:100F40005372632F73746D3332663478785F6861DF
:100F50006C5F636F727465782E6300000CED00E0C7
:100F600010B5044607280BD0062C09D0052C07D055
:100F7000042C05D0032C03D0902108A002F059FCCA
:100F8000154904F0070208684FF6FF03184040EACD
:100F90000220124A1043086010BD00002E2E2F447C
:100FA0007269766572732F53544D333246347878B4
:100FB0005F48414C5F4472697665722F5372632FAC
:100FC00073746D3332663478785F68616C5F636F19
:100FD000727465782E6300000CED00E00000FA05E5
:100FE0002DE9F0470E4604007DD02068401E0E28F3
:100FF00004D940F25A217AA002F01BFC96B1012ECE
:1010000010D0022E0ED0032E0CD0042E0AD0052EA6
:1010100008D0062E06D0072E04D040F25B2170A027
:1010200002F007FCDFF8F081D8F80000F7B200F01A
:101030000700B04207D288F80070D8F8000000F02E
:101040000700B0424FD12068744D810729D5400771
:1010500003D5286840F4E05028602078000703D5C5
:10106000286840F460402860A068A0B1802812D0B1
:10107000902810D0A0280ED0B0280CD0C0280AD0BC
:10108000D02808D0E02806D0F02804D040F27E21F5
:1010900053A002F0CEFB2868A16820F0F0000843BE
:1010A00028602078C00743D0DFF870916068A9F10C
:1010B000080988B1012822D0022824D0032822D090
:1010C00040F2852146A002F0B4FB6068012816D0EA
:1010D000022818D0032816D0D9F80000800700286D
:1010E00033DA286800E030E0616820F0030008434C
:1010F0002860FFF73FFE814641F2883A11E0D9F8B7
:1011000000008003EBE7D9F800008001E7E700BFAB
:10111000FFF730FEA0EB0901514502D90320BDE8DD
:10112000F0872868616800F00C00B0EB810FEFD108
:10113000D8F80010404601F00701B14207D9077006
:10114000006800F00700B04201D00120E7E72078F6
:101150004FF4805640074FF4A0574FF4C0584FF457
:10116000E05914D5E06860B1B0420AD0B84208D066
:10117000404506D0484504D040F2C32118A002F0F3
:1011800058FB2868E16820F4E05008432860207884
:10119000000715D5206960B1B0420AD0B84208D026
:1011A000404506D0484504D040F2CA210CA002F0C8
:1011B00040FB2868216920F4604040EAC1002860B3
:1011C00000F054F82968164AC1F30311515CC84075
:1011D0001449086014480068FFF7F4FD00209EE7FA
:1011E0002E2E2F447269766572732F53544D33320D
:1011F000463478785F48414C5F4472697665722F57
:101200005372632F73746D3332663478785F68611C
:101210006C5F7263632E6300003C0240083802403A
:101220001A3900080C000020040000200448054979
:1012300000680968044AC1F38221515CC8407047C4
:101240000C000020083802402A39000804480549EB
:1012500000680968044AC1F34231515CC8407047D4
:101260000C000020083802402A390008154810B543
:10127000006810F00C02144813D01449042A0FD04F
:10128000082A0ED10F4C241F2268236802F03F0267
:101290005B0207D52068C0F38810A0FB010106E0BF
:1012A000084610BD2168C1F38811A1FB000100238D
:1012B000FEF7DAFF2168C1F30141491C4900B0FB88
:1012C000F1F010BD083802400024F40040787D01A0
:1012D0002DE9F84F04007DD020680F2803D9E621BE
:1012E000F7A002F0A6FA2078DFF80C94C007A9F165
:1012F000040555D060684FF480364FF4A02738B10C
:10130000B04205D0B84203D0EB21EDA002F091FA33
:10131000F948001D0168C1F38101012908D0006866
:10132000C0F3810002280AD1D9F80000400206D596
:101330002868800334D560680028CCD030E060682D
:10134000B04203D1286840F480300CE0B8422868ED
:1013500003D140F480202860F4E720F48030286036
:10136000286820F480202860606860B1FFF702FDE3
:10137000064604E0FFF7FEFC801B64287ED8286840
:101380008003F7D50CE0FFF7F5FC064605E000BF4B
:10139000FFF7F0FC801B6428F0D828688003F7D49E
:1013A0002078DFF8588380074FF0000A56D5E068B0
:1013B00030B1012804D040F21D11C1A002F039FA69
:1013C00020691F2804D94FF48F71BDA002F031FAB3
:1013D000C94800E092E0001D016811F00C0F08D030
:1013E0000068C0F38100022810D1D9F80000400243
:1013F0000CD42868800702D5E06801287ED12868CF
:10140000216920F0F80040EAC10017E0E068B8B1B7
:101410000120C8F80000FFF7ADFC064605E000BF5C
:10142000FFF7A8FC801B0228A8D828688007F7D5FA
:10143000286820F0F801206941EAC00028600DE02A
:10144000C8F800A0FFF796FC064604E0FFF792FC00
:10145000801B022892D828688007F7D420780007DC
:101460002ED5A54EA64F60697036D0B1012808D0A0
:101470004FF4AF7192A002F0DCF900E04BE160693B
:1014800078B101203860FFF775FC074605E000BF22
:10149000FFF770FCC01B0228C6D830688007F7D55C
:1014A0000EE0C7F800A0FFF765FC074605E000BFA7
:1014B000FFF760FCC01B0228B6D830688007F7D45D
:1014C0002078400776D5A068002740B1012806D0D3
:1014D000052804D04FF4C57179A002F0AAF9DFF80D
:1014E00018B20BF13C0BDBF80000C0000DD4DBF8A8
:1014F000001041F08051CBF8001000E038E1DBF83B
:101500000000012700F0805000907E4E3068C0053A
:1015100011D4306840F480703060FFF72BFC0090ED
:1015200006E000BFFFF726FC0099401A022891D878
:101530003068C005F6D5704EA0686C3601280FD013
:101540000528306810D020F001003060306820F0AD
:1015500004003060A068B8B1FFF70CFC00900FE009
:10156000306840F00100F4E740F004003060F7E735
:10157000FFF700FC0099411A41F2883081428BD874
:1015800030688007F4D50EE0FFF7F4FB009007E029
:10159000FFF7F0FB0099411A41F2883081428BD865
:1015A00030688007F4D42FB1DBF8001021F08051AF
:1015B000CBF80010A069002876D0012809D00228B5
:1015C00007D040F2CD113EA002F033F9A069002807
:1015D000F2D04948001D0068C0F381000228A069CC
:1015E0006DD0022805D0C8F860A0FFF7C3FB044601
:1015F00094E0E06938B1B0F5800F04D04FF4EB719E
:101600002FA002F016F9206A3F2804D940F2D71122
:101610002BA002F00EF9606A3238B0F5BF7F04D912
:101620004FF4EC7126A002F004F9A06A02280AD057
:10163000042808D0062806D0082804D040F2D91182
:101640001FA002F0F6F8E06A801E0D2804D94FF4BE
:10165000ED711BA002F0EDF84746C8F860A0FFF757
:1016600089FB064605E000BFFFF784FB801B0228CC
:1016700051D828688001F7D4D4E907010843A16A4A
:10168000214A490802EB0141626A41EA821108439A
:1016900094F82C1040EA0161C9F800100120386666
:1016A000FFF768FB044606E064E000BFFFF762FB5B
:1016B000001B02282FD828688001F7D55AE031E0B6
:1016C0002E2E2F447269766572732F53544D333228
:1016D000463478785F48414C5F4472697665722F72
:1016E0005372632F73746D3332663478785F686138
:1016F0006C5F7263632E630004380240000047424F
:10170000800E4742007000400000FFFFFFF732FBF1
:10171000001B022802D90320BDE8F88F2868800149
:10172000F4D427E00128F7D0D9F80000E26900F4EA
:10173000800191421CD1226A00F03F01914217D1F1
:1017400047F6C071626A0140B1EB821F10D1A26AF4
:101750004FF0FF3300F4403103EB5202B1EB024F84
:1017600006D194F82C1000F07060B0EB016F01D03E
:101770000120D1E70020CFE770B504007ED080497A
:10178000206888420AD07F49884207D07E49884233
:1017900004D04FF4A0717DA002F04BF860684FF4C4
:1017A000827630B1B04204D040F2411177A002F00D
:1017B00040F8A06850B1B0F5806F07D0B0F5004F89
:1017C00004D04FF4A17171A002F033F8E068B0F5D5
:1017D000006F05D020B140F243116CA002F029F84F
:1017E000A069B0F5007F08D038B1B0F5802F04D0E3
:1017F0004FF4A27165A002F01CF8E06990B10828CE
:1018000010D010280ED018280CD020280AD0282854
:1018100008D0302806D0382804D040F245115BA00B
:1018200002F007F8206A30B1802804D04FF4A37189
:1018300056A001F0FEFF606A002548B3102806D0CC
:1018400040F2471151A001F0F4FF606A00B3E06973
:1018500090B1082810D010280ED018280CD02028BD
:101860000AD0282808D0302806D0382804D040F2E2
:10187000591146A001F0DDFF256100E006E0656139
:10188000A56294F85100002830D034E0012070BDEA
:10189000206930B1022804D04FF4A5713BA001F0BB
:1018A000C8FF606930B1012804D040F24B1137A065
:1018B00001F0BFFF6068B04216D1E0690028DFD0B8
:1018C0000828DDD01028DBD01828D9D02028D7D080
:1018D0002828D5D03028D3D03828D1D040F24F1185
:1018E0002AA001F0A6FFCBE7E561C9E784F85050D4
:1018F000204600F067F8022084F851002068016853
:1019000021F040010160A088218900F4827001F477
:1019100004410843A18901F400610843217C01F0DE
:1019200002010843217D01F001010843218B01F4EC
:1019300000710843217F01F03801084394F820101A
:1019400001F080010843218D01F400510843216812
:101950000860A069042101EA104094F8241001F005
:1019600010010843216848602068C16921F40061C2
:10197000C1616565012084F85100002070BD000040
:101980000030014000380040003C00402E2E2F4423
:101990007269766572732F53544D333246347878BA
:1019A0005F48414C5F4472697665722F5372632FB2
:1019B00073746D3332663478785F68616C5F73700E
:1019C000692E630010B586B0044614216846FEF700
:1019D000C2FC13492068884220D1124800210268C5
:1019E00042F480520260006800F4805005900D4877
:1019F0001438026842F001020260006800F0010041
:101A00000590E02000900220CDE901010320039021
:101A10000520049069460448FEF7F8FF06B010BDA3
:101A200000300140443802400000024010B5401E22
:101A3000B0F1807F01D3012010BD4FF0E024606140
:101A40000F21601701F0E5FE0020A0610720206152
:101A5000002010BD7047704770B50C460546006801
:101A60003E49884207D03E49884204D040F2EE7198
:101A70003CA001F0DEFE2068B0F5006F05D020B17B
:101A800040F2EF7137A001F0D4FE6068B0F5806FCE
:101A900005D020B14FF4FE6132A001F0CAFEA0686B
:101AA00068B1B0F5807F0AD0B0F5007F07D0B0F5FF
:101AB000407F04D040F2F1712AA001F0BAFEE06844
:101AC000FF2804D940F2F27126A001F0B2FE20698D
:101AD000B0F5805F05D020B140F2F37121A001F094
:101AE000A8FE606938B1B0F5005F04D040F2F4712F
:101AF0001CA001F09EFEE069B0F5804F05D020B13A
:101B000040F2F57117A001F094FE95F83C00012811
:101B100022D0012085F83C00E068A26820F44070E3
:101B20001043626820F480601043226820F4006053
:101B30001043226920F480501043626920F4005061
:101B40001043E269002120F4804010432A68506469
:101B500085F83C10002070BD022070BD00000140DF
:101B6000000401402E2E2F447269766572732F5344
:101B7000544D3332463478785F48414C5F44726943
:101B80007665722F5372632F73746D3332663478B7
:101B9000785F68616C5F74696D5F65782E630000C3
:101BA0002DE9F05F044600683A4E3B4FDFF8EC80C9
:101BB000DFF8EC90DFF8ECA00D464FF0804BB04220
:101BC00015D0584513D0B84211D040450FD04845E4
:101BD0000DD04FEAB641884209D03349884206D039
:101BE000504504D040F2B17130A001F022FE2868C7
:101BF00090B1102810D020280ED030280CD04028CA
:101C00000AD0502808D0602806D0702804D040F2AE
:101C1000B27126A001F00DFE6868802805D020B1C1
:101C200040F2B37121A001F004FE94F83C000128B9
:101C30002DD0012284F83C20022084F83D00216848
:101C400048688B6820F0700C286840EA0C004860F7
:101C50002068B0420FD058450DD0B8420BD0404557
:101C600009D0484507D0504505D01F49884202D0C9
:101C70001E49884204D1696823F0800319438160BA
:101C800084F83D20002084F83C00BDE8F09F02204D
:101C9000FBE7000000000140000400400008004095
:101CA000000C004000040140001400402E2E2F4480
:101CB0007269766572732F53544D33324634787897
:101CC0005F48414C5F4472697665722F5372632F8F
:101CD00073746D3332663478785F68616C5F7469F1
:101CE0006D5F65782E6300000040014000180040E1
:101CF00010B5040058D03F49206888422BD0B0F17D
:101D0000804F28D03C49884225D03C49884222D087
:101D10003B4988421FD03B4988421CD03A498842FF
:101D200019D03A49884216D03949884213D03949E6
:101D3000884210D0384988420DD0384988420AD0AC
:101D40003749884207D03749884204D040F21311FE
:101D500035A001F06EFDA06860B110280AD02028DF
:101D600008D0402806D0602804D04FF48A712EA0F5
:101D700001F05FFD206950B1B0F5807F07D0B0F56C
:101D8000007F04D040F2151127A001F052FDA06998
:101D900030B1802804D04FF48B7123A001F049FDAD
:101DA00094F83D0010B107E0012010BD002084F838
:101DB0003C00204600F054F8022084F83D00211D2C
:101DC000206801F06FF9012084F8460084F83E0095
:101DD00084F83F0084F8400084F8410084F8420011
:101DE00084F8430084F8440084F8450084F83D00FA
:101DF000002010BD00000140000400400008004029
:101E0000000C00400010004000140040000401409D
:101E100000400140004401400048014000180040DB
:101E2000001C0040002000402E2E2F447269766571
:101E300072732F53544D3332463478785F48414C97
:101E40005F4472697665722F5372632F73746D33BA
:101E500032663478785F68616C5F74696D2E6300F8
:101E600008B500681149884212D11148016841F053
:101E7000200101600068012200F020000090002194
:101E80003720FFF71DF8BDE808403720FEF7E6BF12
:101E90000849884209D10648001D016841F0020145
:101EA0000160006800F00200009008BD00140040CE
:101EB00040380240000401402DE9F84F054600205B
:101EC000009095F83C000C46012841D0012085F88F
:101ED0003C00022085F83D0020684FF4805B5845A7
:101EE00016D0702814D0B0F5005F11D040280FD064
:101EF00050280DD060280BD050B1102808D02028D1
:101F000006D0302804D041F2B741D4A001F091FCB2
:101F10002868816821F0770121F47F418160206881
:101F2000DC49DD4ADD4BDE4EDE4FDFF87CC3DFF8F7
:101F30007C834FF080494FF4004A50287ED00FDC5C
:101F4000202804D007DC0028FBD0102877D161E1DD
:101F50000220BDE8F88F3028F9D04028F6D126E1DC
:101F600060286DD0702874D0584544D04FF4005884
:101F70004045EBD1286888420ED048450CD09042AD
:101F80000AD0984208D0B04206D0B84204D041F2FC
:101F9000E241B2A001F04DFCA06858B1584509D00B
:101FA000404507D0B0F5405F04D041F2E541ABA019
:101FB00001F03FFC6068504509D040B1022806D0CE
:101FC0000A2804D041F2E641A4A001F032FCE06806
:101FD0000F2804D941F2E741A0A001F02AFCD4E97E
:101FE0000121E368286801F0C1F82868816841F49C
:101FF0008041816029E128688842FBD04845F9D0BA
:102000009042F7D09842F5D0B042F3D0A849884228
:10201000F0D0A8498842EDD0B842EBD06045E9D075
:10202000A5498842E6D0A5498842E3D04045E1D0A1
:10203000A3498842DED0A349884203E04FE002E191
:1020400080E006E0D6D041F2C34184A001F0F1FB6C
:10205000FBE02868884212D0484510D090420ED04C
:1020600098420CD0B0420AD0B84208D0604506D0A1
:10207000404504D041F2CA4178A001F0DAFBA068E3
:1020800060B158450AD0B0F5005F07D0B0F5405FA9
:1020900004D041F2CD4171A001F0CBFB6068504506
:1020A00009D040B1022806D00A2804D041F2CE411E
:1020B0006AA001F0BEFBE0680F2804D941F2CF41CD
:1020C00066A001F0B6FBD4E90121E368286801F0BD
:1020D0004DF82968886840F077008860B5E0286886
:1020E000884212D0484510D090420ED098420CD071
:1020F000B0420AD0B84208D0604506D0404504D06E
:1021000041F2F64155A001F094FB6068504509D0BA
:1021100040B1022806D00A2804D041F2F9414FA06C
:1021200001F087FBE0680F2804D941F2FA414BA087
:1021300001F07FFBE2686168286801F0D9F950215D
:10214000286831E02868884212D0484510D0904273
:102150000ED098420CD0B0420AD0B84208D06045A8
:1021600006D0404504D041F206513CA001F061FB8D
:102170006068504509D040B1022806D00A2804D032
:1021800041F2095135A001F054FBE0680F2804D951
:1021900041F20A5131A001F04CFBE2686168286805
:1021A00001F0B7F96021286800F0EAFF4DE02868E7
:1021B000884212D0484510D090420ED098420CD0A0
:1021C000B0420AD0B84208D0604506D0404504D09D
:1021D00041F2165121A001F02CFB6068504509D056
:1021E00040B1022806D00A2804D041F219511BA0A0
:1021F00001F01FFBE0680F2804D941F21A5117A023
:1022000001F017FBE2686168286801F071F940216C
:102210002868C9E72868884212D0484510D0904203
:102220000ED098420CD0B0420AD0B84208D06045D7
:1022300006D0404504D041F2295108A001F0F9FA36
:1022400021682868B0E701200090012085F83D0052
:10225000002085F83C0000987BE600002E2E2F44DD
:102260007269766572732F53544D333246347878E1
:102270005F48414C5F4472697665722F5372632FD9
:1022800073746D3332663478785F68616C5F74693B
:102290006D2E630000000140000400400008004073
:1022A000000C0040000401400040014000180040C4
:1022B000001000400014004000440140004801406C
:1022C000001C004000200040704770B504460068C4
:1022D00001694FF00005C943890715D4C168C94396
:1022E000890711D4E91E01610120207720688069E7
:1022F0008007204602D0FFF7E7FF04E000F0C2F8B5
:10230000204600F0AEFA257720680169C9434907E5
:1023100017D4C168C943490713D46FF004010161A0
:10232000022020772068806910F4407F204602D088
:10233000FFF7CAFF04E000F0A5F8204600F091FA8C
:10234000257720680169C943090716D4C168C943C4
:10235000090712D46FF0080101610420207720687A
:10236000C0698007204602D0FFF7AEFF04E000F00E
:1023700089F8204600F075FA257720680169C9437D
:10238000C90617D4C168C943C90613D46FF0100138
:102390000161082020772068C06910F4407F204642
:1023A00002D0FFF791FF04E000F06CF8204600F047
:1023B00058FA257720680169C943C90708D1C1685F
:1023C000C943C90704D1891E0161204600F04AFAB9
:1023D00020680169C943090609D4C168C9430906CF
:1023E00005D46FF0800101612046FFF733FB2068C0
:1023F0000169C943490609D4C168C943490605D4DE
:102400006FF040010161204600F02DFA206801695B
:10241000C94389060BD4C168C943890607D46FF044
:10242000200101612046BDE87040FFF714BB70BD7C
:1024300010B586B0044614216846FDF78CFF0E499E
:102440002068884216D10D480021026842F004023B
:102450000260006800F0040005904FF47070009076
:102460000220CDE90101032003900490694604484D
:10247000FEF7CCFA06B010BD00040140303802402F
:1024800000080240704700002DE9F05F16000D467D
:1024900004464FF000090CD0042E0AD0082E08D0B4
:1024A0000C2E06D03C2E04D041F2770177A001F02B
:1024B000C0F92868602806D0702804D041F278015D
:1024C00072A001F0B6F9A86830B1022804D041F238
:1024D00079016EA001F0ADF9286930B1042804D06B
:1024E00041F27A0169A001F0A4F994F83C000128B6
:1024F0001CD001207349744A744B754FDFF8D4C166
:10250000DFF8D4A1DFF8D4B184F83C004FF0804864
:1025100076B1042E41D0082E6AD00C2E7DD0814693
:10252000002084F83C004846BDE8F09F0220FBE70D
:10253000206888421ED040451CD090421AD0984254
:1025400018D0B84216D0604514D0504512D0644916
:1025500088420FD0634988420CD058450AD062495E
:10256000884207D06149884204D041F2840147A0E3
:1025700001F05FF92946206800F00AFE20688169B1
:1025800041F0080181612068816921F004018161C5
:10259000206881692A69114328E02068884212D0A6
:1025A000404510D090420ED098420CD0B8420AD08C
:1025B000604508D0504506D0584504D041F29501F9
:1025C00032A001F036F92946206800F053FE206859
:1025D000816941F4006181612068816921F4806131
:1025E0008161206881692A6941EA0221816197E756
:1025F000206888420ED040450CD090420AD09842C4
:1026000008D0B84206D0604504D041F2A6011FA010
:1026100001F00FF92946206800E010E000F0A0FE6C
:102620002068C16941F00801C1612068C16921F0D9
:102630000401C1612068C1692A69114324E020684E
:1026400088420ED040450CD090420AD0984208D023
:10265000B84206D0604504D041F2B7010BA001F0AA
:10266000E8F82946206800F0F1FE2068C16941F4CD
:102670000061C1612068C16921F48061C161206885
:10268000C1692A6941EA0221C16149E72E2E2F441E
:102690007269766572732F53544D333246347878AD
:1026A0005F48414C5F4472697665722F5372632FA5
:1026B00073746D3332663478785F68616C5F746907
:1026C0006D2E63000000014000040040000800403F
:1026D000000C004000040140004001400018004090
:1026E0000044014000480140001C00400020004020
:1026F00010B5040058D03F49206888422BD0B0F173
:10270000804F28D03C49884225D03C49884222D07D
:102710003B4988421FD03B4988421CD03A498842F5
:1027200019D03A49884216D03949884213D03949DC
:10273000884210D0384988420DD0384988420AD0A2
:102740003749884207D03749884204D040F229519E
:1027500035A001F06EF8A06860B110280AD02028DA
:1027600008D0402806D0602804D040F22A512EA07C
:1027700001F05FF8206950B1B0F5807F07D0B0F567
:10278000007F04D040F22B5127A001F052F8A0693D
:1027900030B1802804D040F22C5123A001F049F838
:1027A00094F83D0010B107E0012010BD002084F82E
:1027B0003C00204600F054F8022084F83D00211D22
:1027C000206800F06FFC012084F8460084F83E0089
:1027D00084F83F0084F8400084F8410084F8420007
:1027E00084F8430084F8440084F8450084F83D00F0
:1027F000002010BD0000014000040040000800401F
:10280000000C004000100040001400400004014093
:1028100000400140004401400048014000180040D1
:10282000001C0040002000402E2E2F447269766567
:1028300072732F53544D3332463478785F48414C8D
:102840005F4472697665722F5372632F73746D33B0
:1028500032663478785F68616C5F74696D2E6300EE
:10286000704770477047704770477047F8B5016808
:1028700004460868CA684B6910F00F0F4FF0000556
:1028800059D003F0010602F49077374365D0C107B1
:1028900005D0D10503D5216C41F001012164410728
:1028A00005D5D90703D0216C41F0020121648107CD
:1028B00005D5D90703D0216C41F00401216401073B
:1028C00007D502F02001314303D0216C41F008010B
:1028D0002164216C00293AD0800604D5900602D5E7
:1028E000204600F05EFE20684069216CC0F3801035
:1028F000090700D460B3204600F02CFE2068406930
:10290000400621D52068143050E8001F21F0400116
:1029100040E80012002AF5D1A06BA8B16C4901650E
:10292000A06BFDF712FE002811D0A06B016D01B065
:10293000BDE8F040084783060FD593060DD5204625
:10294000BDE8F84000F02DBE2046FFF78EFFF8BD31
:102950002046FFF78AFF2564F8BD266B2023012E51
:1029600079D1C60677D5D60675D50868486800902F
:102970004869400640D5A16B086840680004000C17
:10298000EAD0A28D8242E7D9E085C869B0F5807FA0
:102990002DD020680C3050E8001F21F4807140E8F1
:1029A0000012002AF5D12068143050E8001F21F0F1
:1029B000010140E80012002AF5D12068143050E8E7
:1029C000001F21F0400140E80012002AF5D184F8F0
:1029D0003E30256320680C3050E8001F21F01001C4
:1029E00040E80012002AF5D1A06BFDF765FDA08D2F
:1029F000E18D401A81B229E0A08DE18D401A81B2AB
:102A0000E08D0028A8D00029A6D020680C3050E81E
:102A1000002F22F4907240E80026002EF5D12068A5
:102A2000143050E8002F22F0010240E80026002E6A
:102A3000F5D184F83E30256320680C3050E8002F33
:102A400022F0100240E80023002BF5D12046FFF7CA
:102A50000BFFF8BDFFE705062BD5150629D594F821
:102A60003D002128F5D1A068B0F5805F01D1206933
:102A7000B0B1206A411C2162216800784860E08C76
:102A8000401E0004000CE084E3D12068C16821F0FE
:102A90008001C1602068C16841F04001C160D8E791
:102AA000206A0088C0F308004860206A801C206209
:102AB000E5E74006CDD55006CBD5CA68204622F0C2
:102AC0004002CA6084F83D3000F029F9C1E70000F7
:102AD0004535000870B5040023D0A0693B490028A3
:102AE0003B4A3C4B3C4D20681DD088420CD0904264
:102AF0000AD0984208D0A84206D040F2731137A0FD
:102B000000F097FEA06908B3A069B0F5807F1DD0E2
:102B1000B0F5007F1AD0B0F5407F17D04FF4BA71EE
:102B200011E0012070BD884210D090420ED0984232
:102B30000CD03949884209D03849884206D0A84289
:102B400004D04FF4BC7125A000F073FEA06838B12A
:102B5000B0F5805F04D04FF4BD7120A000F069FE95
:102B6000E06938B1B0F5004F04D040F27B111BA0F2
:102B700000F05FFE94F83D00002520B984F83C5039
:102B8000204600F04DF8242084F83D002068C168FC
:102B900021F40051C160204600F064FD2068016905
:102BA00021F4904101612068416921F02A014161CD
:102BB0002068C16841F40051C1602564202084F878
:102BC0003D0084F83E00002070BD00000010014070
:102BD0000044004000480040001401402E2E2F44C5
:102BE0007269766572732F53544D33324634787858
:102BF0005F48414C5F4472697665722F5372632F50
:102C000073746D3332663478785F68616C5F7561B8
:102C100072742E6300000000004C00400050004021
:102C2000F0B587B0064614216846FDF794FB364997
:102C3000DFF8D0C03768002533481039032202245A
:102C4000324B674536D1076847F4002707600068B4
:102C500000F400200590086840F001000860086852
:102C6000694600F0010005908DE834000820CDE9A8
:102C700003201846FDF7CAFE264C25482060400573
:102C8000C4E901054014C4E9035080106561C4E93A
:102C90000650256220466562FDF73AFD08B1FDF752
:102CA00008FCB463002211463420A663FEF708F93D
:102CB000342022E0184EB74221D1066846F400368F
:102CC0000660006800F400300590086840F00100DC
:102CD00008600868694600F0010005900C208DE846
:102CE00031000720CDE903201846FDF78FFE0022B2
:102CF00001212620FEF7E4F82620FEF7AFF807B002
:102D0000F0BD0000004C004040380240000002408E
:102D1000406002408001002000440040704770473E
:102D2000FEE700002DE9F04F87B014216846FDF75B
:102D300012FB5D480024016841F010010160016848
:102D400001F010010591016841F004010160016882
:102D500001F004010591016841F080010160016802
:102D600001F080010591016841F0010101600168F5
:102D700001F001010591016841F002010160016863
:102D800001F002010591016841F00801016000684D
:102D9000DFF8189100F0080043F2010605900022C8
:102DA00031464846FDF7B0FFDFF804A14FF4044771
:102DB000002239465046FDF7A7FFDFF8F8B04FF480
:102DC0003048002241465846FDF79EFF012263210C
:102DD0005846FDF799FF47F6FF300325CDE900057A
:102DE000694602945046FDF711FE00960126CDE992
:102DF0000164694648460394FDF708FE40F63E40EC
:102E0000CDE90005694602944846FDF7FFFD49F605
:102E10001070CDE90005694602942748FDF7F6FDDC
:102E20004FF6FF30CDE90005DFF890906946029437
:102E30004846FDF7EBFD0097CDE901646946504631
:102E40000394FDF7E3FDB00200904FF48810019069
:102E50000220029069464846FDF7D8FD44F69C7072
:102E6000CDE90005694602945846FDF7CFFDCDF83F
:102E70000080CDE90164694658460394FDF7C6FD1C
:102E80006320CDE9000669465846CDE90245FDF7C5
:102E9000BDFD002211462820FEF712F82820FDF77C
:102EA000DDFF07B0BDE8F08F303802400008024077
:102EB00000100240000C02400000024000040240EA
:102EC0000E4810B50C4901604FF482714160002139
:102ED0008160C1604FF400720161C0E90512C161F7
:102EE0000162416281620A21C162FEF745FC00284D
:102EF00001D072B6FEE710BD003001401000002086
:102F000010B596B000240F94109411941294139459
:102F10001C2168461494FDF71EFA202107A8FDF72E
:102F20001AFA3548334901600A21C0E901146321C6
:102F3000C0E903148021C0E90541FEF7D9FE08B1BC
:102F400072B6FEE74FF480500F900FA92A48FEF7A3
:102F5000B3FF08B172B6FEE72748FFF7C9FB08B117
:102F600072B6FEE7139413A923481494FEF718FED3
:102F700008B172B6FEE76020CDE900040220CDE979
:102F8000020404940594002269461B480694FFF746
:102F90007BFA08B172B6FEE7042269461648FFF7CD
:102FA00073FA08B172B6FEE7082269461248FFF7C5
:102FB0006BFA08B172B6FEE70C2269460E48FFF7BD
:102FC00063FA08B172B6FEE70794089409944FF4C7
:102FD00000500A94CDE90B4007A907480E94FEF76C
:102FE0003BFD08B172B6FEE70348FFF721FA16B0C1
:102FF00010BD000000040140B0000020FEE7FEE725
:10300000704770477047FDF7BBBE000010B592B027
:1030100030216846FDF79FF914210CA8FDF79BF9B4
:1030200017480024016841F080510160006800F0F9
:10303000805011901348016841F48041016000689C
:10304000069400F48040119002200090012003902B
:10305000102004906846FEF73BF908B172B6FEE70F
:103060000F20CDE90C040E940F9400210CA81094AD
:10307000FDF7B6FF002801D072B6FEE712B010BD12
:1030800040380240007000400248016841F470017D
:103090000160704788ED00E00148FFF716B90000B5
:1030A00068000020F0B50268254C264D264E274FBB
:1030B000274B4FF0804CA04209D0604507D0A84272
:1030C00005D0B04203D0B84201D0984204D122F0DA
:1030D000700E4A6842EA0E02A0421BD0604519D029
:1030E000A84217D0B04215D0B84213D0984211D0A0
:1030F000184DA8420ED0184DA8420BD0174DA8422B
:1031000008D0174DA84205D0164DA84202D0164D42
:10311000A84203D122F44075CA682A434D6922F0BF
:1031200080022A4302608A68C2620A688262A04200
:1031300001D0984201D10969016301214161F0BDCB
:10314000000001400004004000080040000C004066
:10315000000401400040014000440140004801409B
:1031600000180040001C00400020004010B584689A
:1031700042EA032224F47F440A432243826010BDC2
:10318000826822F070020A4342F0070181607047B2
:103190002DE9F0470446006A0D4620F00100206248
:1031A000206A6768A169AE6821F07302296820F07F
:1031B0000200DFF880900643DFF87CA041EA0208B5
:1031C0004C4501D054450ED1E86830B1082804D0F0
:1031D00041F6C72119A000F02CFBE86826F0080191
:1031E000084320F004064C4501D0544519D1A86984
:1031F000B0F5007F05D020B141F6D4210FA000F03A
:1032000018FB6869B0F5807F05D020B141F6D52163
:103210000AA000F00EFB27F440716869AF6908430B
:1032200007436760C4F81880686860632662BDE879
:10323000F087000000000140000401402E2E2F44C2
:103240007269766572732F53544D333246347878F1
:103250005F48414C5F4472697665722F5372632FE9
:1032600073746D3332663478785F68616C5F74694B
:103270006D2E63002DE9F0470446006A0D4620F0EC
:1032800010002062206A6768A1692A6821F4E6417B
:1032900041EA0228A968DFF8889020F02000DFF8D2
:1032A00084A040EA01164C4501D054450FD1E8688E
:1032B00030B1082804D041F612311BA000F0B9FA51
:1032C000E96826F0800040EA011020F040064C45F5
:1032D00001D054451BD1A869B0F5007F05D020B1BD
:1032E0004FF4D95110A000F0A4FA6869B0F5807FBE
:1032F00005D020B141F621310BA000F09AFA69699E
:1033000027F4406040EA8100A96940EA81076760CC
:10331000C4F818806868A0632662BDE8F0870000E2
:1033200000000140000401402E2E2F447269766592
:1033300072732F53544D3332463478785F48414C82
:103340005F4472697665722F5372632F73746D33A5
:1033500032663478785F68616C5F74696D2E6300E3
:103360002DE9F0470446006A0D4620F48070206283
:10337000206A6768E169DFF8949021F07302296898
:1033800020F4007041EA0208A968DFF884A040EA4E
:1033900001264C4501D054450FD1E86830B10828CA
:1033A00004D041F65D311BA000F043FAE96826F431
:1033B000006040EA012020F480664C4501D054456D
:1033C0001BD1A869B0F5007F05D020B141F66A3164
:1033D00010A000F02EFA6869B0F5807F05D020B10A
:1033E00041F66B310BA000F024FA696927F44050D4
:1033F00040EA0110A96940EA01176760C4F81C801F
:103400006868E0632662BDE8F087000000000140C4
:10341000000401402E2E2F447269766572732F537B
:10342000544D3332463478785F48414C5F4472697A
:103430007665722F5372632F73746D3332663478EE
:10344000785F68616C5F74696D2E63002DE9F041EF
:103450000446006A0D4620F480502062206A6668A7
:10346000E1692A6821F4E64141EA0228A96820F4CA
:10347000005040EA01370E48844202D00D48844291
:103480000ED16869B0F5807F05D020B141F6A93131
:1034900009A000F0CEF9696926F4804040EA81165F
:1034A0006660C4F81C80686820642762BDE8F0810B
:1034B00000000140000401402E2E2F447269766501
:1034C00072732F53544D3332463478785F48414CF1
:1034D0005F4472697665722F5372632F73746D3314
:1034E00032663478785F68616C5F74696D2E630052
:1034F00010B5036A046A24F001040462846924F0AC
:10350000F00444EA021423F00A020A4384610262CE
:1035100010BD10B5036A23F0100303628369046AC7
:1035200023F4704343EA023224F0A00343EA01117A
:103530008261016210BD00000148FFF797B90000E9
:10354000F800002010B5806B0021C185C184FFF711
:103550008CF910BD01680C3151E8002F22F49072F3
:1035600041E80023002BF5D10168143151E8002F08
:1035700022F0010241E80023002BF5D1016B012963
:1035800009D101680C3151E8002F22F0100241E806
:103590000023002BF5D1202180F83E10002101638B
:1035A000704708B590F83E10222901D0022008BDCE
:1035B00082684FF480539A4201D1016921B1816A36
:1035C0009A421BD04AB10AE00268816A5268C2F38B
:1035D00008020A80816A891C08E0026972B10268E7
:1035E000526802F07F020A70816A491C8162C18DB3
:1035F000491E0904090CC18503D019E0026852680C
:10360000F1E70168CA6822F02002CA600168CA684E
:1036100022F48072CA6001684A6922F001024A619C
:10362000202180F83E10016B012903D0FFF776FBC3
:10363000002008BD0021016301680C3151E8002F12
:1036400022F0100241E80023002BF5D101680A683E
:10365000D20602D50A6849680091818DFFF704F906
:10366000E6E7000070B5044640685449884204D932
:1036700040F6616152A000F0DCF8E06838B1B0F5C6
:10368000005F04D040F662614DA000F0D2F82069DE
:1036900050B1B0F5806F07D0B0F5C06F04D040F6E0
:1036A000636147A000F0C5F860694FF6F371084206
:1036B00000D120B940F6646141A000F0BAF820685A
:1036C0000169E26821F44051114301612169A06858
:1036D000E26908436169114322680843D16849F2ED
:1036E0000C6399430143D16020684169A26921F4C8
:1036F00040711143416141492068884202D04049EC
:10370000884202D1FDF7A2FD01E0FDF78FFDE269DD
:103710000023192164253226B2F5004F626828D0B3
:10372000A0FB0101930F9200FCF79EFD0146B0FB48
:10373000F5F06FF01802504301EB800006EB00102B
:10374000B0FBF5F000F0F002B1FBF5F002EB001277
:10375000B1FBF5F06FF01803584301EB800006EB66
:103760000010B0FBF5F000F00F00216810448860F5
:1037700070BDA0FB010192185B41FCF775FD01468D
:10378000B0FBF5F00201B1FBF5F06FF01803584300
:1037900001EB800006EBC000B0FBF5F000F0F80094
:1037A00002EB4002B1FBF5F0584301EB800006EB61
:1037B000C000B0FBF5F000F00700D6E7A037A0008E
:1037C0002E2E2F447269766572732F53544D333207
:1037D000463478785F48414C5F4472697665722F51
:1037E0005372632F73746D3332663478785F686117
:1037F0006C5F756172742E63000000000010014060
:10380000001401400148FFF731B800003C010020DE
:10381000FEE70907090E002804DB00F1E02080F82C
:103820000014704700F00F0000F1E02080F8141D34
:10383000704770471CB5FDF7ABFAFFF7E7FBFFF7E2
:1038400071FA2C480024016841F4001101600068FD
:10385000224600F40010009021460D20FDF730FBB9
:103860000D20FDF7FBFAFFF74BFB244822490C25FE
:1038700001604FF41641C0E90114C460C0E9044579
:103880008461C461FFF726F908B172B6FEE71B48F0
:103890001B49443801604FF4E131C0E90114C460B0
:1038A000C0E904458461C461FFF714F908B172B638
:1038B000FEE712480094D4381249019401604FF495
:1038C000C861C0E901146321C16080218161FEF7F4
:1038D0000FFA08B172B6FEE7084800946946D4387A
:1038E0000194FEF75DF908B172B6FEE7FFF7E8FA5A
:1038F000FEE7000030380240004400403C01002058
:10390000004C0040001400404FF04070E1EE100AFF
:103910007047000610160006101600000000000098
:10392000000001020304060708090000000001026C
:1039300003040000543900080000002010000000BB
:10394000C40100086439000810000020300800009D
:10395000E00100080100000010000000000000006D
:043960000024F4004B
:040000050800018965
:00000001FF
