:020000040800F2
:10000000B007002031020008373300080925000836
:1000100035330008B90600083D360008000000002E
:10002000000000000000000000000000D5340008BF
:10003000BB06000800000000C1330008D7340008E8
:100040004B0200084B0200084B0200084B0200085C
:100050004B020008C33300084B0200084B020008A3
:100060004B0200084B0200084B0200084B0200083C
:100070004B0200084B0200084B0200084B0200082C
:100080004B0200084B0200084B0200084B0200081C
:100090004B0200084B0200084B0200084B0200080C
:1000A0004B0200084B0200084B0200084B020008FC
:1000B0004B0200084B0200084B02000819250008FB
:1000C0000D2500084B0200084B0200084B020008F7
:1000D0004B0200084B0200084B0200084B020008CC
:1000E000BD0600084B0200084B0200084B02000846
:1000F0004B0200084B0200084B0200084B020008AC
:100100004B0200084B0200084B0200084B0200089B
:100110004B0200084B0200084B020008693500083A
:100120004B0200084B0200084B0200084B0200087B
:100130004B0200084B0200084B0200084B0200086B
:100140004B0200084B0200084B0200084B0200085B
:100150004B0200084B0200084B0200084B0200084B
:100160004B0200084B0200084B0200084B0200083B
:100170004B0200084B0200084B0200080000000080
:100180004B020008C506000800F002F800F040F835
:100190000AA090E8000C82448344AAF10107DA45E2
:1001A00001D100F035F8AFF2090EBAE80F0013F0F4
:1001B000010F18BFFB1A43F001031847CC3B0000A6
:1001C000EC3B0000103A24BF78C878C1FAD8520737
:1001D00024BF30C830C144BF04680C6070470000C1
:1001E0000023002400250026103A28BF78C1FBD840
:1001F000520728BF30C148BF0B6070471FB503F0DE
:10020000ADFD9DE8030000F079F91FBD10B510BDEC
:1002100000F0D0F91146FFF7F1FF03F031FA00F0DA
:10022000EEF903B4FFF7F2FF03BC00F01FFA000081
:100230000948804709480047FEE7FEE7FEE7FEE77A
:10024000FEE7FEE7FEE7FEE7FEE7FEE704480549B6
:10025000054A064B7047000059350008890100081F
:10026000B0010020B0070020B0030020B003002040
:1002700070B5064600F026F9056806F10B0020F07F
:100280000704B4429CBF002070BD2B466A68BAB117
:100290001068A04210D304F1080188423CBF5068A6
:1002A000586007D35168101941601168091B01603B
:1002B00058601460101D70BD13465268002AE7D1C3
:1002C0002146284600F006F90028DED170BD70B541
:1002D0000446051F00F0F6F80068002C14BF4468BF
:1002E00070BD002C18BFAC423CBF20466468F8D3F8
:1002F00001680A18AA4218BF456003D12A6805465A
:100300001144016028684119A1421CBF6C6070BD96
:100310006168696021680844286070BD53EA020C76
:1003200000F069802DE9F04B4FF00006002B1FBF55
:10033000B3FA83F503FA05F424FA05F65E4012BF1A
:100340001643B2FA82F502FA05F4C5F120051EBF84
:1003500022FA05FC44EA0C04203556EA044C4FEA24
:10036000144418BF641C4FF000084FF0000990427D
:1003700071EB030C39D3002919BFB1FA81F701FAE7
:1003800007F6B0FA80F700FA07F6C7F120071EBF9C
:1003900020FA07FC46EA0C062037B6FBF4FCA7EB74
:1003A0000507103F07F01F0BCBF120060CFA0BFBE3
:1003B0002CFA06F644BFB3460026202FA4BF5E46A3
:1003C0004FF0000B5BEA060C08BF4FF0010B19EB76
:1003D0000B09ABFB027C48EB0608C01B06FB02CCFA
:1003E0000BFB03CC71EB0C01C1E70B460246414607
:1003F0004846BDE8F08B13B54FF000004FF0000108
:10040000AFF30080BDE81C40704710B5203AC0F043
:100410000B80B1E81850203AA0E81850B1E8185005
:10042000A0E81850BFF4F5AF5FEA027C24BFB1E842
:100430001850A0E8185044BF18C918C0BDE81040B3
:100440005FEA827C24BF51F8043B40F8043B08BFBC
:100450007047D20728BF31F8023B48BF11F8012B83
:1004600028BF20F8023B48BF00F8012B70474FF02F
:10047000000200B5134694469646203922BFA0E8F4
:100480000C50A0E80C50B1F12001BFF4F7AF090700
:1004900028BFA0E80C5048BF0CC05DF804EB8900F1
:1004A00028BF40F8042B08BF704748BF20F8022B34
:1004B00011F0804F18BF00F8012B7047704770474C
:1004C0007047000000487047540100207047704793
:1004D0007047704738B504460A4600206946AFF3B6
:1004E0000080002808BF38BD02460099204600F071
:1004F0003FF8012038BD012000F054B8F8B5AFF343
:100500000080054600200C46102000BF0646A819B2
:10051000A0420DD9324669460020AFF300800700A3
:1005200008BF00F03FF80098A04218BF0546C41964
:10053000FFF7C8FF05600746F01D20F007004619C9
:10054000284600F00AF8B44208BFF8BDA21B3146A5
:100550003868BDE8F84000F00BB800210160C0E940
:100560000110704710207047004870474C01002070
:10057000034640688C46002818BF88423CBF0346AB
:100580004068F8D318681844884207D00CF103007B
:1005900020F00700001D411A521A0146081D0A608A
:1005A000FFF795BE10B500F039F8BDE8104000F037
:1005B0002FB870477546FFF7D7FFAE46050069466E
:1005C000534620F00700854618B020B5FFF73EFEE1
:1005D000BDE820404FF000064FF000074FF0000844
:1005E0004FF0000B21F00701AC46ACE8C009ACE8C5
:1005F000C009ACE8C009ACE8C0098D46704710B529
:100600000446AFF300802046BDE81040FFF709BE66
:10061000002801D000F02AB87047000010B501286A
:1006200005D0002103A000F027F8012010BD09A18A
:10063000F8E7000053494752544D454D3A204F7555
:1006400074206F662068656170206D656D6F7279CA
:10065000000000003A2048656170206D656D6F7282
:100660007920636F72727570746564000149182097
:10067000ABBEFEE72600020070B505460C460A2018
:1006800000E06D1C00F011F835B128780028F8D191
:1006900002E0641C00F009F814B120780028F8D1B9
:1006A000BDE870400A20AFF3008008B569468DF8B8
:1006B00000000320ABBE08BDFEE770474FF480602A
:1006C00000F018B8704790F83510022903D0802147
:1006D000416501207047052180F8351000680168E8
:1006E00021F0010101600020704790F8350070474B
:1006F00070470000044910B50A68024202D0086041
:10070000FFF7F6FF10BD0000143C01402DE9F84F43
:10071000DFF888B20D46044658451BD0A0488442F5
:1007200018D0A048844215D09F48844212D09F48D8
:1007300084420FD09E4884420CD09E48844209D007
:100740009D48844206D09D48844203D0AC219CA0A1
:1007500002F085FF28680104090C01D0000C03D0C9
:10076000AD2197A002F07BFF6868F8B101281DD089
:1007700011281BD0022819D0122817D0B0F5881FD5
:1007800014D0B0F5041F11D0B0F5441F0ED0B0F551
:10079000901F0BD0B0F5081F08D0B0F5481F05D04A
:1007A000032803D0AE2186A002F059FF00264FF0A7
:1007B000010A4FF0030900BF0AFA06F02F688046CD
:1007C000074047457ED1287900F00300012801D079
:1007D00002281DD1E86848B1012807D0022805D0B9
:1007E000032803D0C02176A002F039FFA16872006F
:1007F00009FA02F08143E86890400843A06060680D
:10080000297920EA0800C1F30011B1400143616079
:100810002879C043800712D0A86838B1012805D0D4
:10082000022803D0D12166A002F019FFE16872000E
:1008300009FA02F08143A86890400843E0602879F3
:1008400000F0030002282ED12869F8B109281DD034
:1008500001281BD0022819D0032817D0042815D04E
:10086000052813D0062811D007280FD008280DD04E
:100870000A280BD00B2809D00C2807D00D2805D04A
:100880000F2803D0DE214EA002F0E9FEF00804EBB1
:100890008002106A7107CB0E0F21994088432969A5
:1008A0009940014311622068720009FA02F18843FD
:1008B000297901F00301914001432160686810F437
:1008C000403F00E063E062D04C48016841F4804161
:1008D0000160006826F0030100F480400090484861
:1008E0000A18D2F80808B1070B0F0F219940884366
:1008F0005C4501D1002123E029498C4201D101212D
:100900001EE028498C4201D1022119E026498C427F
:1009100001D1032114E025498C4201D104210FE0CB
:1009200023498C4201D105210AE022498C4201D1A0
:10093000062105E020498C4201D1072100E0082171
:1009400099400143C2F808182E4908686A68B843FC
:10095000D20200D5384308602A49091D08686A6830
:10096000B843920200D5384308602649091F086839
:100970006A68B843920300D53843086021490839B2
:1009800008686A68B843D20300D538430860761C0B
:10099000102EFFF411AFBDE8F88F000000000240F8
:1009A0000004024000080240000C02400010024017
:1009B0000014024000180240001C024000200240C7
:1009C0002E2E2F447269766572732F53544D333235
:1009D000463478785F48414C5F4472697665722F7F
:1009E0005372632F73746D3332663478785F686145
:1009F0006C5F6770696F2E6300000000443802402E
:100A000000300140083C014070B515460C00064618
:100A100004D140F29D1108A002F021FE45B1012D44
:100A200004D04FF4CF7104A002F019FEB46170BD80
:100A30002004B06170BD00002E2E2F4472697665CF
:100A400072732F53544D3332463478785F48414C9B
:100A50005F4472697665722F5372632F73746D33BE
:100A600032663478785F68616C5F6770696F2E6397
:100A7000000000000148806870470000100000205E
:100A8000704770472DE9F041016804464A694E6895
:100A900090F83E000025D743FA0506D4F243D2056C
:100AA00003D46FF4807201254A61B90508D4F1437B
:100AB000C90505D422686FF4007145F00205516143
:100AC000790525D4F143C90522D4638D94F83D10EE
:100AD000226B202808D13BB9212910D029290ED01A
:100AE000282901D1212A0AD022686FF4806151613E
:100AF00045F00405102806D0402804D008E0204620
:100B000002F056F904E02068016841F400710160C8
:100B1000380508D4F043C00505D421686FF400609F
:100B200045F008054861002D07D0206C284320645B
:100B30002046BDE8F04101F053BDBDE8F0812DE94C
:100B4000F047026800215368C66A90F83E4090F86A
:100B50003D50102C12D0402C10D0046C002C7DD0B5
:100B60005469E443A6077AD4DE43B60577D4036C10
:100B700003B19169BDE8F04702F0F6B89769516991
:100B80004FF42A0CC9435FEAC1784FF02A4904D0D8
:100B900066452AD04E4528D010E0DE43B6050DD478
:100BA000C16A614501D1012103E0C16A494501D112
:100BB0000821C162BDE8F04702F02AB80E0716D43A
:100BC000DE43B60513D4416CC9B21161416B09B162
:100BD000C96B29B9816B002907D0C96B002904D0E2
:100BE0000068416841F400614160BDE8F0878E070C
:100BF00006D4DE43B60503D4BDE8F04701F07CBF60
:100C0000FE43526876074FEA02521DD4002AECDBFD
:100C10000A0608D4DA43520505D4490705D5BDE8CC
:100C2000F04701F00DBF4907DFD4D9438905DCD473
:100C3000212D05D0402CD8D1BDE8F04702F02EB8C8
:100C4000BDE8F04701F0BABE002ACEDB4A060BD45D
:100C5000DA43520508D4490708D501E00DE00EE05B
:100C6000BDE8F04701F0E8BD4907BED4D943890586
:100C7000BBD4BDE8F04701F076BD916970E7E106AD
:100C800006D4D943890503D4BDE8F04702F0D2B8B1
:100C90002821212D27D0292D25D0650655D4DD43C7
:100CA0006D0552D4640752D590F83D30448D002C28
:100CB0009BD01269446A2270426A521C4262428D81
:100CC000521E4285428D002A8FD12A2B8DD1026877
:100CD000536823F4806353602222026380F83D103E
:100CE00000F06AFA81E7250623D4DD436D0520D4A0
:100CF000640720D590F83D30448D002CF2D0446A32
:100D000024781461426A521C4262428D521E42850E
:100D1000428D002AE6D1292BE4D10268536823F4DE
:100D2000806353602122026380F83D1000F045FA91
:100D30005BE76107D6D4D9438905D3D4418D002917
:100D4000D0D0416A097811610AE06107CAD4D94359
:100D50008905C7D4418D0029C4D01169426A117038
:100D6000416A491C4162418D491E41853DE77047FA
:100D700070B504007DD08A49206888420AD089492C
:100D8000884207D08849884204D04FF4DF7187A099
:100D900002F065FC60689349401E884204D940F225
:100DA000BF1182A002F05BFCA0684FF4804530B117
:100DB000A84204D04FF4E0717CA002F050FCE0683F
:100DC000800A04D040F2C11178A002F048FC2069EA
:100DD000A84207D0B0F5404F04D04FF4E17173A0A2
:100DE00002F03DFC606930B1012804D040F2C3112B
:100DF0006EA002F034FCA06930F0FE0004D04FF485
:100E0000E2716AA002F02BFCE06930B1402804D006
:100E100040F2C51165A002F022FC206A30B18028A2
:100E200004D04FF4E37161A002F019FC94F83D0086
:100E3000002520B984F83C50204600F079F92420A0
:100E400084F83D002068016821F0010101602068FC
:100E5000016841F4004101602068016821F400410B
:100E6000016000F001FC604A6168914202D85F496C
:100E700001E002E05E49884201D2012070BD5D4977
:100E80002368B0FBF1F15E6826F03F060E435E601A
:100E90006368934206D94FF4967359434FF47A73BB
:100EA000B1FBF3F12368491C1E6A26F03F0631436B
:100EB00019626168914210D84900401EB0FBF1F2FE
:100EC000521CC2F30B02042A01D2042022E0B0FB20
:100ED000F1F0401CC0F30B001CE0A368F3B301EB7E
:100EE000C10202EB0116421EB2FBF6F2521C42F4A2
:100EF0008042120549D093B301EBC10202EB01110C
:100F0000401EB0FBF1F0401CC0F30B0040F48040E9
:100F100040F400402168CA694CF6FF739A431043BD
:100F2000C861D4E9071001432068026822F0C002BA
:100F300011430160D4E9030101432068826848F24B
:100F4000FF339A4311438160D4E9050108432168C6
:100F5000CA6822F0FF021043C86001E00EE016E00C
:100F60002068016841F0010101602564202084F8B7
:100F70003D00256384F83E50002070BD01EB410622
:100F8000421EB2FBF6F2521CB3E70120C2E701EBAE
:100F90004101401EB0FBF1F0401CC0F30B00B7E76D
:100FA0000054004000580040005C00402E2E2F44AA
:100FB0007269766572732F53544D333246347878A4
:100FC0005F48414C5F4472697665722F5372632F9C
:100FD00073746D3332663478785F68616C5F693240
:100FE000632E63007F1A0600A086010080841E0025
:100FF00000093D0040420F007047704770470000F5
:101000002DE9F84F1F4690468A460446DDF82890A1
:10101000FFF730FD054694F83D0020287FD11923C5
:10102000012240492046009501F0D8FF002876D1E2
:1010300094F83C00012872D0012084F83C0020681C
:101040000168C90703D1016841F00101016020680E
:10105000016821F400610160212084F83D00102026
:1010600084F83E0000262664C4F824806785608DDD
:1010700020852D48E0622B464A465146204601F025
:101080004FFC90B9206841698069009036E02A469B
:101090004946204602F021F850B1206C042804D1C2
:1010A0002068016841F4007101600120BDE8F88FFB
:1010B000606A216800780861606A401C6062618D26
:1010C000491E6185218D491E89B221852268536997
:1010D000DB435B070BD451B100781061606A401CA0
:1010E0006062608D401E6085208D401E20852A46EE
:1010F0004946204601F04CFF0028CED1208D002823
:10110000C5D154F83D0B016841F400710160202005
:1011100004F81E09E67766770020C7E7FFE702209C
:10112000C4E70000020010000000FFFF7047704796
:1011300010B586B0044614216846FFF798F91B499C
:101140002068884230D11A480021026842F0020229
:101150000260006800F002000590C020009012209C
:10116000CDE9010103200390042004906946114851
:10117000FFF7CCFA0E481030016841F4001101600D
:101180000068002200F40010059011461F2000F0B6
:10119000B5F81F2000F080F800221146202000F052
:1011A000ADF8202000F078F806B010BD00540040E3
:1011B000303802400004024070477047024881689E
:1011C0000278114481607047100000200B4810B570
:1011D000016841F400710160016841F480610160BF
:1011E000016841F480710160032000F0D7F8072006
:1011F00000F006F800F024F8002010BD003C02408A
:1012000070B50D4D04464FF47A712878B1FBF0F0BB
:101210000A490968B1FBF0F000F02AFF48B9102C28
:1012200007D200222146501E00F068F800206C60B2
:1012300070BD012070BD0000100000201C000020C7
:10124000144808B5016841F480410160006800F469
:10125000804000900F48001F016841F080510160FC
:10126000006800F080500090042000F097F8002201
:101270001146052000F042F8052000F00DF800228C
:101280001146512000F03AF8BDE80840512000F026
:1012900003B800004438024010B5040003D5BC2157
:1012A00007A002F0DCF9002C09DB04F01F0101208B
:1012B00088406109890001F1E021C1F8000110BDF9
:1012C0002E2E2F447269766572732F53544D33322C
:1012D000463478785F48414C5F4472697665722F76
:1012E0005372632F73746D3332663478785F68613C
:1012F0006C5F636F727465782E63000070B515467D
:101300000C460646102A03D3A82114A002F0A7F920
:10131000102C03D3A92111A002F0A1F91E480068E6
:10132000C0F30223C3F107022046042A00D9042295
:10133000191D072901D2002300E0DB1E012404FA55
:1013400002F1491E014099409C40641E2C402143FB
:101350003046BDE8704002F072B900002E2E2F44D6
:101360007269766572732F53544D333246347878F0
:101370005F48414C5F4472697665722F5372632FE8
:1013800073746D3332663478785F68616C5F636F55
:10139000727465782E6300000CED00E010B5044611
:1013A00007280BD0062C09D0052C07D0042C05D01B
:1013B000032C03D0902108A002F051F9154904F044
:1013C000070208684FF6FF03184040EA0220124A5D
:1013D0001043086010BD00002E2E2F447269766500
:1013E00072732F53544D3332463478785F48414CF2
:1013F0005F4472697665722F5372632F73746D3315
:1014000032663478785F68616C5F636F7274657898
:101410002E6300000CED00E00000FA052DE9F04716
:101420000E4604007DD02068401E0E2804D940F2EC
:101430005A217AA002F013F996B1012E10D0022E93
:101440000ED0032E0CD0042E0AD0052E08D0062E66
:1014500006D0072E04D040F25B2170A002F0FFF806
:10146000DFF8F081D8F80000F7B200F00700B042D2
:1014700007D288F80070D8F8000000F00700B042EA
:101480004FD12068744D810729D5400703D52868BE
:1014900040F4E05028602078000703D5286840F425
:1014A00060402860A068A0B1802812D0902810D099
:1014B000A0280ED0B0280CD0C0280AD0D02808D040
:1014C000E02806D0F02804D040F27E2153A002F09C
:1014D000C6F82868A16820F0F0000843286020784A
:1014E000C00743D0DFF870916068A9F1080988B19E
:1014F000012822D0022824D0032822D040F28521BE
:1015000046A002F0ACF86068012816D0022818D076
:10151000032816D0D9F800008007002833DA28689D
:1015200000E030E0616820F0030008432860FFF726
:10153000A1FA814641F2883A11E0D9F8000080030F
:10154000EBE7D9F800008001E7E700BFFFF792FA68
:10155000A0EB0901514502D90320BDE8F0872868B6
:10156000616800F00C00B0EB810FEFD1D8F80010EB
:10157000404601F00701B14207D90770006800F04A
:101580000700B04201D00120E7E720784FF48056F1
:1015900040074FF4A0574FF4C0584FF4E05914D50A
:1015A000E06860B1B0420AD0B84208D0404506D0E9
:1015B000484504D040F2C32118A002F050F8286832
:1015C000E16820F4E050084328602078000715D532
:1015D000206960B1B0420AD0B84208D0404506D078
:1015E000484504D040F2CA210CA002F038F828681F
:1015F000216920F4604040EAC100286000F044F80E
:101600002968164AC1F30311515CC84014490860A7
:1016100014480068FFF7F4FD00209EE72E2E2F44AB
:101620007269766572732F53544D3332463478782D
:101630005F48414C5F4472697665722F5372632F25
:1016400073746D3332663478785F68616C5F72638F
:10165000632E6300003C024008380240703D0008E1
:101660001C00002014000020044805490068096897
:10167000044AC1F38221515CC84070471C0000201D
:1016800008380240803D0008154810B5006810F089
:101690000C02144813D01449042A0FD0082A0ED182
:1016A0000F4C241F2268236802F03F025B0207D51B
:1016B0002068C0F38810A0FB010106E0084610BDB9
:1016C0002168C1F38811A1FB00010023FEF726FE6B
:1016D0002168C1F30141491C4900B0FBF1F010BD84
:1016E000083802400024F40040787D012DE9F84FCD
:1016F00004007DD020680F2803D9E621F7A001F06F
:10170000AEFF2078DFF80C94C007A9F1040555D08E
:1017100060684FF480364FF4A02738B1B04205D04E
:10172000B84203D0EB21EDA001F099FFF948001D6C
:101730000168C1F38101012908D00068C0F381006C
:1017400002280AD1D9F80000400206D52868800393
:1017500034D560680028CCD030E06068B04203D156
:10176000286840F480300CE0B842286803D140F487
:1017700080202860F4E720F480302860286820F476
:1017800080202860606860B1FFF774F9064604E0C5
:10179000FFF770F9801B64287ED828688003F7D58E
:1017A0000CE0FFF767F9064605E000BFFFF762F9B6
:1017B000801B6428F0D828688003F7D42078DFF8ED
:1017C000588380074FF0000A56D5E06830B10128F1
:1017D00004D040F21D11C1A001F041FF20691F2873
:1017E00004D94FF48F71BDA001F039FFC94800E062
:1017F00092E0001D016811F00C0F08D00068C0F3E2
:101800008100022810D1D9F8000040020CD42868C9
:10181000800702D5E06801287ED12868216920F080
:10182000F80040EAC10017E0E068B8B10120C8F84C
:101830000000FFF71FF9064605E000BFFFF71AF9A1
:10184000801B0228A8D828688007F7D5286820F0D0
:10185000F801206941EAC00028600DE0C8F800A046
:10186000FFF708F9064604E0FFF704F9801B022899
:1018700092D828688007F7D4207800072ED5A54E87
:10188000A64F60697036D0B1012808D04FF4AF710F
:1018900092A001F0E4FE00E04BE1606978B1012024
:1018A0003860FFF7E7F8074605E000BFFFF7E2F80A
:1018B000C01B0228C6D830688007F7D50EE0C7F8ED
:1018C00000A0FFF7D7F8074605E000BFFFF7D2F802
:1018D000C01B0228B6D830688007F7D420784007AC
:1018E00076D5A068002740B1012806D0052804D08D
:1018F0004FF4C57179A001F0B2FEDFF818B20BF118
:101900003C0BDBF80000C0000DD4DBF8001041F008
:101910008051CBF8001000E038E1DBF8000001272F
:1019200000F0805000907E4E3068C00511D43068C1
:1019300040F480703060FFF79DF8009006E000BF33
:10194000FFF798F80099401A022891D83068C0052E
:10195000F6D5704EA0686C3601280FD00528306887
:1019600010D020F001003060306820F004003060BA
:10197000A068B8B1FFF77EF800900FE0306840F043
:101980000100F4E740F004003060F7E7FFF772F879
:101990000099411A41F2883081428BD83068800723
:1019A000F4D50EE0FFF766F8009007E0FFF762F865
:1019B0000099411A41F2883081428BD83068800703
:1019C000F4D42FB1DBF8001021F08051CBF80010D7
:1019D000A069002876D0012809D0022807D040F25B
:1019E000CD113EA001F03BFEA0690028F2D049488D
:1019F000001D0068C0F381000228A0696DD0022894
:101A000005D0C8F860A0FFF735F8044694E0E06917
:101A100038B1B0F5800F04D04FF4EB712FA001F076
:101A20001EFE206A3F2804D940F2D7112BA001F0F6
:101A300016FE606A3238B0F5BF7F04D94FF4EC71FE
:101A400026A001F00CFEA06A02280AD0042808D0C3
:101A5000062806D0082804D040F2D9111FA001F0B2
:101A6000FEFDE06A801E0D2804D94FF4ED711BA025
:101A700001F0F5FD4746C8F860A0FEF7FBFF0646FB
:101A800005E000BFFEF7F6FF801B022851D828684A
:101A90008001F7D4D4E907010843A16A214A490823
:101AA00002EB0141626A41EA8211084394F82C106A
:101AB00040EA0161C9F8001001203866FEF7DAFF3C
:101AC000044606E064E000BFFEF7D4FF001B0228D6
:101AD0002FD828688001F7D55AE031E02E2E2F4408
:101AE0007269766572732F53544D33324634787869
:101AF0005F48414C5F4472697665722F5372632F61
:101B000073746D3332663478785F68616C5F7263CA
:101B1000632E63000438024000004742800E4742B3
:101B2000007000400000FFFFFEF7A4FF001B02282A
:101B300002D90320BDE8F88F28688001F4D427E09B
:101B40000128F7D0D9F80000E26900F48001914241
:101B50001CD1226A00F03F01914217D147F6C071B3
:101B6000626A0140B1EB821F10D1A26A4FF0FF33CD
:101B700000F4403103EB5202B1EB024F06D194F86E
:101B80002C1000F07060B0EB016F01D00120D1E7A4
:101B90000020CFE770B504007ED0804920688842DD
:101BA0000AD07F49884207D07E49884204D04FF44A
:101BB000A0717DA001F053FD60684FF4827630B1D2
:101BC000B04204D040F2411177A001F048FDA06876
:101BD00050B1B0F5806F07D0B0F5004F04D04FF48E
:101BE000A17171A001F03BFDE068B0F5006F05D078
:101BF00020B140F243116CA001F031FDA069B0F5B5
:101C0000007F08D038B1B0F5802F04D04FF4A27116
:101C100065A001F024FDE06990B1082810D01028DB
:101C20000ED018280CD020280AD0282808D0302818
:101C300006D0382804D040F245115BA001F00FFD1A
:101C4000206A30B1802804D04FF4A37156A001F06F
:101C500006FD606A002548B3102806D040F24711FF
:101C600051A001F0FCFC606A00B3E06990B1082863
:101C700010D010280ED018280CD020280AD02828E0
:101C800008D0302806D0382804D040F2591146A098
:101C900001F0E5FC256100E006E06561A56294F8CD
:101CA0005100002830D034E0012070BD206930B1EF
:101CB000022804D04FF4A5713BA001F0D0FC60696C
:101CC00030B1012804D040F24B1137A001F0C7FC1D
:101CD0006068B04216D1E0690028DFD00828DDD066
:101CE0001028DBD01828D9D02028D7D02828D5D044
:101CF0003028D3D03828D1D040F24F112AA001F09B
:101D0000AEFCCBE7E561C9E784F85050204600F00F
:101D100067F8022084F851002068016821F0400132
:101D20000160A088218900F4827001F40441084315
:101D3000A18901F400610843217C01F002010843FC
:101D4000217D01F001010843218B01F4007108435A
:101D5000217F01F03801084394F8201001F0800140
:101D60000843218D01F40051084321680860A069EF
:101D7000042101EA104094F8241001F010010843F6
:101D8000216848602068C16921F40061C16165650E
:101D9000012084F85100002070BD00000030014097
:101DA00000380040003C00402E2E2F4472697665BA
:101DB00072732F53544D3332463478785F48414C18
:101DC0005F4472697665722F5372632F73746D333B
:101DD00032663478785F68616C5F7370692E630077
:101DE00010B586B0044614216846FEF740FB13493F
:101DF0002068884220D112480021026842F48052B3
:101E00000260006800F4805005900D4814380268A4
:101E100042F001020260006800F001000590E0203D
:101E200000900220CDE901010320039005200490D9
:101E300069460448FEF76AFC06B010BD0030014058
:101E400044380240000002402DE9F84F04460A9E43
:101E500080681D4692468B464FF00109002720B14D
:101E600040F27C4174A001F0FAFB94F85000012884
:101E70000ED0012084F85000FEF7FCFD804694F857
:101E80005100616801280CD0B1F5827F07D102E0D2
:101E90000220BDE8F88FA16809B9042801D0022703
:101EA000C2E0BBF1000F27D0BAF1000F24D01DB360
:101EB00094F85100042802D0052084F85100002035
:101EC0006065C4F838A0E587A587C4F830B0E5861A
:101ED000A5862064606420680168490603D401680F
:101EE00041F040010160E068B0F5006F606805D026
:101EF000F0B3012D46D07FE0012795E008B1012D18
:101F000039D1206B21680088C860206B801C206359
:101F1000E08E401EE0862EE02068816889070FD59C
:101F2000E18E69B1B9F1010F0AD1216B0988C16055
:101F3000206B801C2063E08E401EE0864FF000097D
:101F400020688168C9070CD0E18F51B1C068A16BCE
:101F50000880A06B801CA063E08F401EE0874FF0DC
:101F60000109FEF787FDA0EB0800B04203D300E0B3
:101F700008E0701C50D1E08E0028CDD1E08F002801
:101F8000CAD13FE0206B216800780873206B401CA9
:101F90002063E08E401EE0862EE02068816889077D
:101FA0000FD5E18E69B1B9F1010F0AD1216B097822
:101FB0000173206B401C2063E08E401EE0864FF0D2
:101FC000000920688168C9070CD0E18F51B1C06851
:101FD000A16B0870A06B401CA063E08F401EE087DF
:101FE0004FF00109FEF746FDA0EB0800B04202D316
:101FF000701C01D010E07EB1E08E0028CDD1E08FC2
:102000000028CAD142463146204601F0DBF928B10A
:1020100001272020606507E0032705E0A06818B9C4
:102020002068C16880680090012084F85100002079
:1020300084F8500038462CE72E2E2F4472697665BE
:1020400072732F53544D3332463478785F48414C85
:102050005F4472697665722F5372632F73746D33A8
:1020600032663478785F68616C5F7370692E6300E4
:1020700010B5401EB0F1807F01D3012010BD4FF09C
:10208000E02460610F21601701F0D9FA0020A061FF
:1020900007202061002010BD704770472DE9F05FD8
:1020A000044600683A4E3B4FDFF8EC80DFF8EC90D6
:1020B000DFF8ECA00D464FF0804BB04215D05845EC
:1020C00013D0B84211D040450FD048450DD04FEA4B
:1020D000B641884209D03349884206D0504504D0E1
:1020E00040F2B17130A001F0BAFA286890B110281E
:1020F00010D020280ED030280CD040280AD05028EC
:1021000008D0602806D0702804D040F2B27126A012
:1021100001F0A5FA6868802805D020B140F2B371BB
:1021200021A001F09CFA94F83C0001282DD0012256
:1021300084F83C20022084F83D00216848688B68C0
:1021400020F0700C286840EA0C0048602068B0421B
:102150000FD058450DD0B8420BD0404509D0484566
:1021600007D0504505D01F49884202D01E498842F9
:1021700004D1696823F080031943816084F83D200D
:10218000002084F83C00BDE8F09F0220FBE700003F
:10219000000001400004004000080040000C004026
:1021A00000040140001400402E2E2F447269766511
:1021B00072732F53544D3332463478785F48414C14
:1021C0005F4472697665722F5372632F73746D3337
:1021D00032663478785F68616C5F74696D5F6578CA
:1021E0002E630000004001400018004010B50400BC
:1021F00058D03F49206888422BD0B0F1804F28D07A
:102200003C49884225D03C49884222D03B498842FB
:102210001FD03B4988421CD03A49884219D03A49DC
:10222000884216D03949884213D03949884210D0A3
:10223000384988420DD0384988420AD03749884207
:1022400007D03749884204D040F2131135A001F07D
:1022500006FAA06860B110280AD0202808D04028CB
:1022600006D0602804D04FF48A712EA001F0F7F94F
:10227000206950B1B0F5807F07D0B0F5007F04D061
:1022800040F2151127A001F0EAF9A06930B18028C9
:1022900004D04FF48B7123A001F0E1F994F83D00D4
:1022A00010B107E0012010BD002084F83C0020465A
:1022B00000F054F8022084F83D00211D206801F050
:1022C00059F9012084F8460084F83E0084F83F0064
:1022D00084F8400084F8410084F8420084F8430008
:1022E00084F8440084F8450084F83D00002010BDC7
:1022F000000001400004004000080040000C0040C5
:102300000010004000140040000401400040014063
:10231000004401400048014000180040001C0040FB
:10232000002000402E2E2F447269766572732F5361
:10233000544D3332463478785F48414C5F4472697B
:102340007665722F5372632F73746D3332663478EF
:10235000785F68616C5F74696D2E630008B5006812
:102360000B49884212D10B48016841F020010160FD
:102370000068012200F02000009000213720FEF7C5
:10238000BDFFBDE808403720FEF786BF08BD00004E
:102390000014004040380240704770B504460068A1
:1023A00001694FF00005C943890715D4C168C943C5
:1023B000890711D4E91E0161012020772068806916
:1023C0008007204602D0FFF7E7FF04E000F098F80E
:1023D000204600F096F8257720680169C94349072F
:1023E00017D4C168C943490713D46FF004010161D0
:1023F000022020772068806910F4407F204602D0B8
:10240000FFF7CAFF04E000F07BF8204600F079F8FF
:10241000257720680169C943090716D4C168C943F3
:10242000090712D46FF008010161042020772068A9
:10243000C0698007204602D0FFF7AEFF04E000F03D
:102440005FF8204600F05DF8257720680169C943F0
:10245000C90617D4C168C943C90613D46FF0100167
:102460000161082020772068C06910F4407F204671
:1024700002D0FFF791FF04E000F042F8204600F0A0
:1024800040F8257720680169C943C90708D1C168A8
:10249000C943C90704D1891E0161204600F032F802
:1024A00020680169C943090609D4C168C9430906FE
:1024B00005D46FF0800101612046FFF7EDFD206833
:1024C0000169C943490609D4C168C943490605D40D
:1024D0006FF040010161204600F015F820680169A5
:1024E000C94389060BD4C168C943890607D46FF074
:1024F000200101612046BDE87040FFF7CEBD70BDF0
:102500007047704770477047FEE700000148FEF7CC
:10251000B9BA0000200000200148FEF710BB0000FF
:102520002000002038B5806B002190F83D202B4B17
:1025300046F2A8141B68B3FBF4F3C3EBC30303EB2D
:10254000830300933BB15B1E009303681B689B05EC
:1025500005D5009BF6E7036C43F020030364436B4F
:1025600003B1D963836B03B1D96303681C6824F496
:1025700080641C604185436B03B11965836B03B1B3
:10258000196503681C6824F001041C6090F83D4044
:102590002023602C0BD0282434EA02020FD080F8CC
:1025A0003D3080F83E1000BFFEF7E1FB38BD80F8FB
:1025B0003D3080F83E100164FEF762FA38BD0268D3
:1025C000136843F0010313600268136843F48063E7
:1025D0001360016380F83D40E6E700001C00002026
:1025E00070B5044690F83D0094F83E10102901D0D3
:1025F000402906D1222804D121680A6822F4006209
:102600000A60282131EA00024FF000054FF0200651
:1026100026D021684968090505D4602803D084F8CC
:102620003D6084F83E50256320684168090537D530
:10263000416821F400614160606B90F835203C49AD
:10264000012A11D00165606BFEF73DF838B32068B0
:10265000016821F00101016084F83D60606B1CE0BD
:10266000256384F83D10DFE7A06B0165A06BFEF7E2
:102670002AF8A0B120684169C943490605D4006918
:10268000616A0870606A401C60622068016821F01D
:102690000101016084F83D60A06B016D884710E086
:1026A00094F83D10602910D04169C943490605D40A
:1026B0000069616A0870606A401C60622046FEF72B
:1026C00056FB206CC1071CD115E084F83D602564E1
:1026D0004169C943490605D40069616A0870606AA6
:1026E000401C60622068016821F001010160204601
:1026F000FEF7C6F9E5E7810703D4410701D40007D7
:1027000004D52068416821F4E061416094F83D00FF
:10271000216C49070BD5282809D10648E0622563BA
:1027200084F83D6084F83E502046FEF765FC70BD9D
:10273000252500080000FFFF01684A69D2435205C1
:102740000FD46FF480624A61002140F8301F2022CC
:1027500042738173026942F0040202610173012035
:1027600070470020704710B5C26A438D0168042B82
:1027700006D0438D032B08D0438D022B1DD012E0D1
:102780004A6822F480624A600CE04B6823F480635C
:102790004B60042A06D0022A04D001680A6822F499
:1027A00080620A6001680969426A1170416A491CC5
:1027B0004162418D491E418510BD012A30D0102A49
:1027C0002ED0042A30D0022A2ED00A6842F4007299
:1027D0000A6001680969426A1170416A491C4162D4
:1027E000428D521E4285026812690A70416A491C74
:1027F0004162418D491E418501684A6822F4407258
:102800004A60202180F83D1090F83E200021402AA7
:1028100080F83E100CD012210163FEF7EEFB10BDD4
:102820000A6822F48062D3E70A6842F48062CFE744
:102830000163FEF77BFC10BD38B590F83D102229EE
:102840000FD1418D03290DD901680969426A1170C0
:10285000416A491C4162418D491E4185418D0329D0
:1028600006D038BDC26A022A02D0012906D029B199
:102870000068416821F48061416038BD274946F213
:10288000A81300220968B1FBF3F101EB810100916B
:1028900001682023009C641E009422D00C68A405CB
:1028A000F8D40C6824F480640C6001684C6824F44B
:1028B000E0644C6001680969446A2170416A491CFE
:1028C0004162418D491E418580F83D3090F83E10AF
:1028D00080F83E2040291DD012210163FEF78DFBB8
:1028E00038BD046C44F0200404644C6824F4E064B3
:1028F0004C6001680969446A2170416A491C41625F
:10290000418D491E418580F83D3080F83E20FEF71C
:102910002EFA38BD0263FEF709FC38BD1C0000200A
:10292000F8B50446C06A1E460D461746082807D06B
:10293000012805D010F5803F02D0206B122804D169
:102940002068016841F480710160134600224FF055
:1029500001112046009600F041FB40B1206800685C
:10296000C00502D54FF4007020640320F8BD206933
:10297000B0F5804F0ED00620216800EAD51040F057
:10298000F000086133463A460B49204600F05AFBF6
:1029900078B902E005F0FE0000E0E8B221680861C5
:1029A000054933463A46891F204600F04BFB002874
:1029B000DCD00120F8BD00000800010010B5C26A9B
:1029C00090F83D1021290BD1418D51B1416A026827
:1029D00009781161416A491C4162418D491E418556
:1029E00010BD20230021082A13D0202A11D012F56F
:1029F000803F0ED00268546824F4E06454601122D1
:102A0000026380F83E1080F83D3000BFFEF7F6FA12
:102A100010BD0268546824F4E064546002681468CD
:102A200044F400741460016380F83D3090F83E2057
:102A300080F83E10402AE9D1FEF779FB10BD000076
:102A400010B590F83D1090F83E30C26A048DB4B1D4
:102A5000212903D0402B11D122290FD1418DE1B37F
:102A600090F83E10402942D0416A0268097811610D
:102A7000416A491C4162418D491E418510BD212991
:102A8000E8D120230021082A13D0202A11D012F5E2
:102A9000803F0ED00268546824F4E0645460112230
:102AA000026380F83E1080F83D3000BFFEF7A6FAC2
:102AB00010BD0268546824F4E0645460026814682D
:102AC00044F400741460016380F83D3090F83E20B7
:102AD00080F83E10402AE9D100E002E0FEF727FB33
:102AE00010BD0068416821F48061416010BDBDE8FF
:102AF000104000F0D3B8000078B590F83E50C26A9C
:102B0000036B90F83D6000240168222E7AD1066D97
:102B10000EB9402D76D0056D1DB90569B5F5404F4C
:102B200009D0458D05B3468D384D012E0ED0438D0D
:102B3000022B3AD05DE04A698A6900920A6842F441
:102B400080720A60016D491C016578BDAA4213D1EB
:102B50000A6822F480620A6001684A68120503D597
:102B60000A6822F4806216E04A698A6900920A685B
:102B700042F400720A6039E0082A10D0202A0ED0F0
:102B8000122B0AD0042A03D0022A01D0102AE7D13E
:102B90000A6842F480620A6024E0012AE0D00A68F0
:102BA00022F480620A600168DEE7042A21D0022A4A
:102BB0001FD0102A1DD00B6823F480630B600168BE
:102BC0000B6843F400630B6001684B681B0509D573
:102BD000AA4212D0012A10D0082A0ED0102A0CD0F6
:102BE000202A0AD001684A6989690091046578BD84
:102BF00008E00B6843F48063E5E74A6842F48052DA
:102C00004A60EFE7486988690090F0E70000FFFF3D
:102C100090F83E10402910D00169B1F5804F19D0CD
:102C2000016DA9B3016D012910D1416C5FF0F10272
:102C300001F4407142EAD11106E0016D0029416CB6
:102C400005D0C9B241F0010100680161704701F08F
:102C5000FE01F9E790F83D102129416C09D0C9B275
:102C600041F0010102681161416B29B1C96B49B999
:102C700002E001F0FE01F5E7816B0029E6D0C96BA7
:102C80000029E3D00068416841F400614160704769
:102C9000FFE7416CF02201F44071CBE710B590F8EA
:102CA0003D10026D22B3026D012A2FD0026D022A5F
:102CB0001DD122292FD0428D0AB1212933D0428D36
:102CC000002A14D1212912D101684A6822F4E06255
:102CD0004A6001680A6842F400720A6000210163D8
:102CE000202280F83D2080F83E10FEF720FA10BD2B
:102CF000C16C0129816C02D0C1F3072108E0026890
:102D0000C9B21161016D891C016510BD816CC9B228
:102D10000268116104E001680A6842F480720A6086
:102D2000016D491CF0E7416A026809781161416A46
:102D3000491C4162418D491E418510BDF8B51746B9
:102D40001E460D4664240246042339460548009475
:102D5000FEF756F904232A46314602480094FEF74E
:102D60004FF9F8BD2000002038B50C4690F83D2002
:102D700000212825954302680B4605D051699169C9
:102D8000009180F83C3038BD556825F48065556069
:102D9000E243540700D50121120601D5828900E0E3
:102DA000028B80F83C3092B2FDF76BFE38BD00001C
:102DB0002DE9F04190F83D40C26A002320261C4FC7
:102DC00001686FF48065082A01D0202A01D1282CDF
:102DD00004D0212C16D04D61BDE8F081C7624A684D
:102DE00022F4E0624A6001684D6101680A6822F4D9
:102DF00080620A60036380F83D6080F83E30FEF731
:102E0000FBF8E9E7C7622122026380F83D6080F8A1
:102E10003E304A6822F4E0624A6001684D61016810
:102E20000A6822F480620A60FEF7C7F9D4E700005E
:102E30000000FFFFF8B590F83D6004460068416867
:102E400021F4E0614160206800254169009101683A
:102E500041F0010101602068016821F48061016096
:102E600020684168090520D5474F222E48D02A2ED8
:102E700046D0616B096849686185618D19B1216C23
:102E800041F004012164416821F400614160606BFC
:102E9000FDF72BFC012808D0606B0765606BFDF720
:102EA00012FC10B1606B016D8847608D08B320681B
:102EB0004169C943490708D40069616A0870606ABA
:102EC000401C6062608D401E608520684169C94376
:102ED000490608D40069616A0870606A401C606233
:102EE000608D401E6085608D18B1206C40F004003C
:102EF0002064206C00B32046BDE8F840FFF770BBAB
:102F0000A16B096849686185618D19B1216C41F037
:102F100004012164416821F400614160A06BFDF768
:102F2000E4FB0128C1D0A06B0765A06BFDF7CBFBCC
:102F30000028BAD0A06BB6E72A2E06D12563282038
:102F400084F83D002046FEF737F994F83D10202024
:102F500028290DD0216B222901D0222E07D12563EB
:102F600084F83D0084F83E502046FEF725F9F8BD70
:102F70000649E162256384F83D0084F83E5020460E
:102F8000FEF73AF8F8BD0000252500080000FFFF15
:102F900070B516460D4604460DE02046FFF7CCFB03
:102FA00008B1012070BD681C05D0FDF763FD801BD2
:102FB000A84207D835B120684069C0434007ECD427
:102FC000002070BD002044F8300F20216173A073F1
:102FD000216941F0200121612073E2E72DE9F047EA
:102FE0001E4690460D460446C1F30747DDF8209083
:102FF00008E0701C06D0FDF73DFDA0EB0900B042D3
:103000000FD876B12068012F18D0806925EA00001A
:103010000004000C14D000214145EAD00020BDE896
:10302000F087002044F8300F20216173A0732169DC
:1030300041F02001216120730120F0E74069E5E7BC
:103040000121E9E72DE9F0479A4691460E460446EC
:1030500000254FF02008C1F3074725E020684069AC
:10306000C043400514D42068016841F40071016038
:1030700021686FF480604861256384F83D8084F89E
:103080003E50206C40F00400206484F83C501FE067
:10309000B9F1FF3F08D0FDF7EDFCA0EB0A0149456F
:1030A0000CD8B9F1000F09D02068012F13D0806926
:1030B00026EA00000004000C0BD0CFE744F8305F94
:1030C00084F80D80A573206940F0200020612573ED
:1030D0000120BDE8F0874069EAE770B516460D4665
:1030E00004460DE02046FFF727FB08B1012070BD24
:1030F000681C05D0FDF7BEFC801BA84207D835B17F
:1031000020684069C0430006ECD4002070BD002058
:1031100044F8300F20216173A073216941F0200130
:1031200021612073E2E700002DE9F04F87B0142100
:103130006846FDF79CF969480024016841F01001D8
:103140000160016801F010010591016841F004017E
:103150000160016801F004010591016841F08001FE
:103160000160016801F080010591016841F00101F1
:103170000160016801F001010591016841F002015F
:103180000160016801F002010591016841F0080148
:1031900001600068DFF8489100F008000590002207
:1031A00043F201014846FDF72FFCDFF838A1002269
:1031B00010215046FDF728FCDFF82CB14FF40447EE
:1031C000002239465846FDF71FFC4FF40048002204
:1031D00041464648FDF718FC002230214448FDF7DF
:1031E00013FC47F6FF300325CDE90005694602943C
:1031F0005846FDF78BFA4FF4005000901120CDE9AE
:103200000104694648460394FDF780FA41F2010043
:1032100000900126CDE90164694648460394FDF714
:1032200075FA40F6FE70CDE90005694602944846FD
:10323000FDF76CFA49F60F70CDE900056946029476
:103240005046FDF763FA10200090CDE9016469460D
:1032500050460394FDF75AFA4FF60F30CDE90005BA
:10326000694602942248FDF751FA0097CDE90164BE
:10327000694658460394FDF749FAB00200904FF4AE
:10328000881001900220029069461948FDF73EFA25
:1032900047F6FF70CDE90005694602941348FDF733
:1032A00035FACDF80080CDE9016469460F480394F2
:1032B000FDF72CFA30200090CDE9016469460C48F6
:1032C0000394FDF723FA002211462820FEF716F892
:1032D0002820FDF7E1FF07B0BDE8F08F303802404D
:1032E000000802400000024000100240000C0240B2
:1032F000000402400E4810B50C4901604FF4827181
:10330000416000218160C1604FF400720161C0E939
:103310000512C1610162416281620A21C162FEF748
:1033200039FC002801D072B6FEE710BD0030014024
:1033300074000020FEE7FEE700B58DB000208DF898
:10334000000003218DF801108DF802008DF80310A4
:1033500004218DF804100F218DF805108DF806104A
:103360008DF807000E480290401D03900D48049010
:103370000D480590642006900C4809900C491020D7
:103380000791ADF82800ADF83000074820220B91D6
:10339000ADF820206946A03000F088FA0DB000BDDD
:1033A000663D00080000002074000020000002407C
:1033B00000040240014800F015BB00001401002089
:1033C0007047704738B504461248134B0068B0FB8D
:1033D000F3F04FF47A73584300906068B0F5827F41
:1033E0000DD10B46009200228021204600F016F8F5
:1033F00070B1606D40F020006065032038BD00981A
:1034000030B1401E009020688068C0430006F6D5A9
:10341000002038BD1C00002000366E012DE9F84365
:103420001E46914688460446089DFDF723FB401B37
:10343000351AFDF71FFB074625480068C0F3CB305F
:10344000684338E0701C37D0FDF714FBC01BA8425E
:1034500003D215B1009860B32CE02068416821F0D8
:10346000E00141606068B0F5827F0BD1A068B0F5E3
:10347000004F02D0B0F5806F04D12068016821F0C0
:1034800040010160A06AB0F5005F09D120680168C1
:1034900021F4005101602068016841F4005101608D
:1034A000012084F85100002084F850000320BDE87A
:1034B000F8830025401E00902068816838EA0100EA
:1034C00004D000214945BDD10020F0E70121F9E7F2
:1034D0001C0000207047FDF771BE000010B592B0CF
:1034E00030216846FCF7C3FF14210CA8FCF7BFFF8E
:1034F00017480024016841F080510160006800F025
:10350000805011901348016841F4804101600068C7
:10351000069400F480401190022000900120039056
:10352000102004906846FEF7E1F808B172B6FEE795
:103530000F20CDE90C040E940F9400210CA81094D8
:10354000FDF76CFF002801D072B6FEE712B010BD87
:1035500040380240007000400248016841F47001A8
:103560000160704788ED00E00148FEF716BF0000DB
:10357000CC000020F0B50268254C264D264E274F82
:10358000274B4FF0804CA04209D0604507D0A8429D
:1035900005D0B04203D0B84201D0984204D122F005
:1035A000700E4A6842EA0E02A0421BD0604519D054
:1035B000A84217D0B04215D0B84213D0984211D0CB
:1035C000184DA8420ED0184DA8420BD0174DA84256
:1035D00008D0174DA84205D0164DA84202D0164D6E
:1035E000A84203D122F44075CA682A434D6922F0EB
:1035F00080022A4302608A68C2620A688262A0422C
:1036000001D0984201D10969016301214161F0BDF6
:10361000000001400004004000080040000C004091
:1036200000040140004001400044014000480140C6
:1036300000180040001C004000200040FEE7090781
:10364000090E002804DB00F1E02080F80014704728
:1036500000F00F0000F1E02080F8141D7047704763
:10366000018D406A0022FDF7CFB9018D406A012229
:10367000FDF7CAB9018CC0690022FDF7C5B9000089
:103680001CB5FDF7A3FDFFF729FFFFF74DFD002453
:103690001F4800941D49019401604FF4C861C0E9BE
:1036A00001146321C16080218161FEF79FFD08B193
:1036B00072B6FEE70094694615480194FEF7EEFCE9
:1036C00008B172B6FEE7FFF715FE11481149AC3894
:1036D00001601149C0E901144FF48041C0E9034180
:1036E0000121C0E90541C4610462FDF741FB08B155
:1036F00072B6FEE7FFF720FEFFF75CFE07490323E3
:103700000222481FFFF71AFBF6E7000000140040F2
:10371000CC00002000540040A086010009000020D9
:1037200038B5044600208DF800006A46072120467F
:1037300000F04AF960B99DF800006A4640F0700058
:103740008DF800000721204600F0F9FA002800D08B
:10375000012038BD38B5054600200C468DF8000024
:103760006A460121284600F02FF968B901219DF829
:103770000000A14001438DF800106A46012128464F
:1037800000F0DDFA002800D0012038BD38B505462C
:1037900000200C468DF8000001466A46284600F0DD
:1037A00013F980B99DF8000014B140F0080001E061
:1037B00020F008008DF800006A460021284600F03D
:1037C000BEFA002800D0012038BD000038B50546FB
:1037D00000200C468DF8000001466A46284600F09D
:1037E000F3F870B99DF800006CB120F0100000BF34
:1037F0008DF800006A460021284600F0A0FA002853
:1038000000D0012038BD40F01000F1E738B5054682
:1038100000200C468DF8000001466A46284600F05C
:10382000D3F870B99DF800006CB120F0400000BFE3
:103830008DF800006A460021284600F080FA002832
:1038400000D0012038BD40F04000F1E738B5054612
:1038500000200C468DF8000001466A46284600F01C
:10386000B3F870B99DF800006CB120F0200000BFE3
:103870008DF800006A460021284600F060FA002812
:1038800000D0012038BD40F02000F1E70EB5002146
:103890008DF804108DF80810009101AB02AAE22106
:1038A00000F0D5F8002800D001200EBD38B5044640
:1038B0003422FCF7AAFD2046FFF7D2FE2046FFF790
:1038C000D9FE0121204600F060F800208DF80000AC
:1038D00004E06A460021204600F076F89DF80000DA
:1038E0008007F6D52179204600F0E1F921792046BC
:1038F00000F0F4F92046A16800F0C8F92046E1681C
:1039000000F0B3F92046E16800F008FA01212046F2
:10391000FFF77CFF01212046FFF798FF0121204699
:10392000FFF754FF01212046FFF730FFA178204622
:1039300000F0F0F8E178204600F0CEF8E17920467A
:1039400000F076F92178204600F006F961792046EA
:1039500000F02FF9A179204600F04AF90321204612
:1039600000F0D3F900212046FFF7F4FE2046FFF7D0
:10397000D7FE0121204600F04BF82046FFF786FFD6
:103980002046FFF772FE002038BD38B505460020FE
:103990000C468DF8000001466A46284600F014F8EF
:1039A00080B99DF8000014B140F0020001E020F061
:1039B00002008DF800006A460021284600F0BFF999
:1039C000002800D0012038BD1CB500238DF804303C
:1039D00001230093134601AA00F039F8002800D013
:1039E00001201CBD10B50446012084F83600204695
:1039F000FFF736FE0121204600F00AF82046FFF7C7
:103A000034FE00BF94F836000128FBD0206910BDB9
:103A100038B5054600200C468DF8000001466A4680
:103A20002846FFF7D1FF80B99DF8000014B140F09F
:103A3000010001E020F001008DF800006A4600213D
:103A4000284600F07CF9002800D0012038BD2DE97F
:103A5000F84F05460A9C9A4690468946601CFCF73A
:103A600007FC0746601CFCF703FC0646002087F8AD
:103A70000090014605E03B1818F800205A703154B8
:103A8000401CA042F7DB2846FFF7F4FDA869009030
:103A9000631C324639466869FEF7D6F968B130468C
:103AA000FCF715FC3846FCF712FC0120BDE8F88F46
:103AB00031184A780AF80020401CA042F8DB298C13
:103AC0000122E869FCF7A0FF3046FCF700FC38460D
:103AD000FCF7FDFB0020E9E738B5054600200C4661
:103AE0008DF800006A4603212846FFF76DFF60B994
:103AF0009DF800006A4600F0030020438DF80000A6
:103B00000321284600F01BF908B1012038BDEC70F4
:103B1000002038BD38B5054600200C468DF8000061
:103B200001466A462846FFF74FFF68B99DF8000036
:103B3000012C0BD020F008008DF800006A4600210F
:103B4000284600F0FCF820B1012038BD40F0040008
:103B5000F2E7AC70002038BD38B5054600200C46B1
:103B60008DF800006A4606212846FFF72DFFD8B9D8
:103B7000E0079DF8000002D040F0200001E020F0B6
:103B800020008DF80000A0079DF8000002D540F04D
:103B9000080001E020F008008DF800006A460621C8
:103BA000284600F0CCF808B1012038BD2C70002068
:103BB00038BD38B50546002001F00F048DF800002F
:103BC0006A4604212846FFF7FFFE60B99DF8000011
:103BD0006A4600F0F00020438DF8000004212846DA
:103BE00000F0ADF808B1012038BD6C71002038BD7F
:103BF00038B50546002001F00F048DF800006A4634
:103C000004212846FFF7E0FE68B99DF800006A46E7
:103C100000F00F0040EA04108DF80000042128464F
:103C200000F08DF808B1012038BDAC71002038BD1E
:103C300038B50546002001F07F048DF800006A4683
:103C400005212846FFF7C0FE50B99DF800006A46DE
:103C500020438DF800000521284600F070F808B1D7
:103C6000012038BDEC71002038BD3EB50546052069
:103C70000C460A46009001AB2A212846FFF7E7FED2
:103C800008B101203EBD0020AC603EBD3EB50546FA
:103C900005200C460A46009001AB2B212846FFF771
:103CA000D6FE08B101203EBD0020AC603EBD13B57C
:103CB00004469DF8040001AA00F03F008DF80400BE
:103CC0001121204600F03BF818B10020207101209E
:103CD0001CBD9DF80400207100201CBD13B50446D6
:103CE0009DF8040001AA00F03F008DF804001221A5
:103CF000204600F024F818B10020207101201CBDDE
:103D00009DF80400207100201CBD13B501AA0221FA
:103D100000F015F8002800D001201CBD3EB5054676
:103D200005200C460A46009001AB30212846FFF7DB
:103D30008EFE08B101203EBD0020EC603EBD1CB5EA
:103D400000238DF804300123009341F0200101ABE2
:103D5000FFF77DFE002800D001201CBD4FF0407011
:103D6000E1EE100A7047123456789012345678906B
:103D7000000000000000000001020304060708091B
:103D80000000000001020304A83D0008000000201C
:103D900020000000C4010008C83D000820000020E9
:103DA00090070000E00100080000000030303030D3
:103DB0000030303030000000010000001000000032
:083DC000000000000024F400E3
:040000050800018965
:00000001FF
