:020000040800F2
:100000000000022035460008811100088311000815
:100010008511000887110008891100080000000000
:100020000000000000000000000000008B1100082C
:100030008D110008000000008F11000891110008C8
:100040008546000885460008854600088546000864
:100050008546000899110008854600088546000875
:100060008546000885460008854600088546000844
:100070008546000885460008854600088546000834
:100080008546000885460008854600088546000824
:100090008546000885460008854600088546000814
:1000A0008546000885460008854600088546000804
:1000B0008546000885460008854600089D11000811
:1000C000AD110008854600088546000885460008F1
:1000D00085460008854600088546000885460008D4
:1000E000BD110008854600088546000885460008C1
:1000F000C911000885460008D91100088546000886
:1001000085460008854600088546000885460008A3
:100110008546000885460008854600088546000893
:100120008546000885460008854600088546000883
:100130008546000885460008854600088546000873
:100140008546000885460008854600088546000863
:100150008546000885460008854600088546000853
:100160008546000885460008854600088546000843
:100170008546000885460008854600080000000006
:0801800085460008E9110008A2
:1001880010B5054C237833B9044B13B10448AFF3C9
:1001980000800123237010BD0C0000200000000027
:1001A800E046000808B5034B1BB103490348AFF309
:1001B800008008BD0000000010000020E046000894
:1001C80070B54FF0FF0C4CF4E06C1CEA11541DBFE5
:1001D8001CEA135594EA0C0F95EA0C0F00F0DEF8B0
:1001E8002C4481EA030621EA4C5123EA4C5350EA95
:1001F800013518BF52EA033541F4801143F48013E6
:1002080038D0A0FB02CE4FF00005E1FB02E506F076
:100218000042E0FB03E54FF00006E1FB03569CF0CB
:10022800000F18BF4EF0010EA4F1FF04B6F5007FD1
:1002380064F5407404D25FEA4E0E6D4146EB060643
:1002480042EAC62141EA55514FEAC52040EA5E50CC
:100258004FEACE2EB4F1FD0C88BFBCF5E06F1ED876
:10026800BEF1004F08BF5FEA500E50F1000041EBAD
:10027800045170BD06F0004646EA010140EA02005A
:1002880081EA0301B4EB5C04C2BFD4EB0C0541EA7C
:10029800045170BD41F480114FF0000E013C00F391
:1002A800AB8014F1360FDEBF002001F0004170BDB5
:1002B800C4F10004203C35DA0C341BDC04F11404CE
:1002C800C4F1200500FA05F320FA04F001FA05F25A
:1002D80040EA020001F0004221F0004110EBD37027
:1002E80021FA04F642EB06015EEA430E08BF20EA53
:1002F800D37070BDC4F10C04C4F1200500FA04F3F6
:1003080020FA05F001FA04F240EA020001F0004187
:1003180010EBD37041F100015EEA430E08BF20EAFA
:10032800D37070BDC4F1200500FA05F24EEA020E42
:1003380020FA04F301FA05F243EA020321FA04F071
:1003480001F0004121FA04F220EA020000EBD37028
:100358005EEA430E08BF20EAD37070BD94F0000F28
:100368000FD101F00046400041EB010111F4801F5C
:1003780008BF013CF7D041EA060195F0000F18BF0D
:10038800704703F00046520043EB030313F4801F49
:1003980008BF013DF7D043EA0603704794EA0C0F03
:1003A8000CEA135518BF95EA0C0F0CD050EA410619
:1003B80018BF52EA4306D1D181EA030101F0004196
:1003C8004FF0000070BD50EA410606BF10461946BE
:1003D80052EA430619D094EA0C0F02D150EA0136CA
:1003E80013D195EA0C0F05D152EA03361CBF10460B
:1003F80019460AD181EA030101F0004141F0FE41AA
:1004080041F470014FF0000070BD41F0FE4141F42D
:10041800780170BD81F0004102E000BF83F0004325
:1004280030B54FEA41044FEA430594EA050F08BF87
:1004380090EA020F1FBF54EA000C55EA020C7FEA4B
:10044800645C7FEA655C00F0E2804FEA5454D4EBC8
:100458005555B8BF6D420CDD2C4480EA020281EA92
:10046800030382EA000083EA010180EA020281EACA
:100478000303362D88BF30BD11F0004F4FEA01311C
:100488004FF4801C4CEA113102D0404261EB41012B
:1004980013F0004F4FEA03334CEA133302D05242B1
:1004A80063EB430394EA050F00F0A780A4F101046D
:1004B800D5F1200E0DDB02FA0EFC22FA05F28018A7
:1004C80041F1000103FA0EF2801843FA05F359418D
:1004D8000EE0A5F120050EF1200E012A03FA0EFC0C
:1004E80028BF4CF0020C43FA05F3C01851EBE37136
:1004F80001F0004507D54FF0000EDCF1000C7EEB53
:1005080000006EEB0101B1F5801F1BD3B1F5001F90
:100518000CD349085FEA30004FEA3C0C04F10104AF
:100528004FEA445212F5800F80F09A80BCF1004FD8
:1005380008BF5FEA500C50F1000041EB045141EA5A
:10054800050130BD5FEA4C0C404141EB0101013C23
:1005580028BFB1F5801FE9D291F0000F04BF014612
:100568000020B1FA81F308BF2033A3F10B03B3F1E4
:1005780020020CDA0C3208DD02F1140CC2F10C0274
:1005880001FA0CF021FA02F10CE002F11402D8BFD2
:10059800C2F1200C01FA02F120FA0CFCDCBF41EA9E
:1005A8000C019040E41AA2BF01EB0451294330BD6D
:1005B8006FEA04041F3C1CDA0C340EDC04F114044A
:1005C800C4F1200220FA04F001FA02F340EA030021
:1005D80021FA04F345EA030130BDC4F10C04C4F167
:1005E800200220FA02F001FA04F340EA0300294647
:1005F80030BD21FA04F0294630BD94F0000F83F491
:10060800801306BF81F480110134013D4EE77FEA73
:10061800645C18BF7FEA655C29D094EA050F08BFBF
:1006280090EA020F05D054EA000C04BF19461046A0
:1006380030BD91EA030F1EBF0021002030BD5FEAE4
:10064800545C05D14000494128BF41F0004130BD0C
:1006580014F580043CBF01F5801130BD01F0004560
:1006680045F0FE4141F470014FF0000030BD7FEAD3
:10067800645C1ABF194610467FEA655C1CBF0B46CE
:10068800024650EA013406BF52EA033591EA030FE5
:1006980041F4002130BD00BF90F0000F04BF0021DD
:1006A800704730B54FF4806404F132044FF0000510
:1006B8004FF0000150E700BF90F0000F04BF002189
:1006C800704730B54FF4806404F1320410F00045EF
:1006D80048BF40424FF000013EE700BF42004FEAEA
:1006E800E2014FEA31014FEA02701FBF12F07F4367
:1006F80093F07F4F81F06051704732F07F4208BF1E
:10070800704793F07F4F04BF41F40021704730B524
:100718004FF4607401F0004521F000411CE700BF70
:1007280050EA010208BF704730B54FF000050AE0F3
:1007380050EA010208BF704730B511F0004502D5F4
:10074800404261EB41014FF4806404F132045FEAF6
:10075800915C3FF4D8AE4FF003025FEADC0C18BF9F
:1007680003325FEADC0C18BF033202EBDC02C2F191
:10077800200300FA03FC20FA02F001FA03FE40EA23
:100788000E0021FA02F11444BDE600BF4A0011D25E
:1007980012F5001211D20DD56FF47873B3EB6252D3
:1007A8000ED44FEAC12343F0004343EA505323FADF
:1007B80002F070474FF00000704750EA013002D154
:1007C8004FF0FF3070474FF00000704753B94AB9F7
:1007D800002908BF00281CBF4FF0FF314FF0FF3041
:1007E80000F06EB9ADF1080C6DE904CE00F006F822
:1007F800DDF804E0DDE9022304B070472DE9F04795
:10080800089D04468C46002B40F083808A42174698
:1008180047D9B2FA82F242B1C2F1200024FA00F0BC
:100828009140974040EA010C94404FEA1748230C46
:10083800BCFBF8F61FFA87FE08FB16C143EA014322
:1008480006FB0EF1994209D9FB1806F1FF3080F03A
:100858001981994240F21681023E3B445B1AA4B2C8
:10086800B3FBF8F008FB103344EA034400FB0EFE28
:10087800A64509D93C1900F1FF3380F00581A6454A
:1008880040F2028102383C4440EA0640A4EB0E04E0
:1008980000261DB1D4400023C5E900433146BDE818
:1008A800F08702B9FFDEB2FA82F2002A50D1CB1BE0
:1008B8004FEA174E1FFA87F80126B3FBFEFC210CFE
:1008C8000EFB1C3341EA034108FB0CF38B4207D9AA
:1008D80079180CF1FF3002D28B4200F2E98084468D
:1008E800C91AA3B2B1FBFEF00EFB101143EA014492
:1008F80008FB00F8A04507D93C1900F1FF3302D2E4
:10090800A04500F2D9801846A4EB080440EA0C4040
:10091800BFE78B4209D9002D00F0B1800026C5E958
:10092800000130463146BDE8F087B3FA83F6002E61
:100938004AD18B4202D3824200F2B880841A61EB1A
:10094800030101208C46002DA8D0C5E9004CA5E77D
:10095800C2F1200320FA03F6974001FA02F04FEAA9
:10096800174ED9403043030CB1FBFEF61FFA87F847
:100978000EFB161143EA014306FB08F1994204FAFB
:1009880002F409D9FB1806F1FF3C80F08D809942EA
:1009980040F28A80023E3B445B1A81B2B3FBFEF010
:1009A8000EFB103341EA034100FB08F38B4207D9E1
:1009B800791800F1FF3C73D28B4271D9023839445F
:1009C800CB1A40EA064678E7C6F1200C03FA06F48B
:1009D80022FA0CF31C4320FA0CF701FA06F34FEA4B
:1009E800144E21FA0CF11F433B0CB1FBFEF91FFA20
:1009F80084F80EFB191143EA014109FB08FA8A45FC
:100A080002FA06F200FA06F308D9611809F1FF3074
:100A180048D28A4546D9A9F102092144A1EB0A0125
:100A2800BFB2B1FBFEF00EFB101147EA014700FB15
:100A380008F8B84507D9E71900F1FF312ED2B845B3
:100A48002CD90238274440EA0940A7EB0807A0FB45
:100A580002894F45C64649461AD317D05DB1B3EB54
:100A68000E0267EB010707FA0CFCF2404CEA02029F
:100A7800F740C5E9002700263146BDE8F0872E4635
:100A880028460BE70646E9E61846FDE64345E5D263
:100A9800B8EB020E69EB04010138DFE70846D2E73C
:100AA80060468DE78146B9E7664675E730464AE70E
:100AB800ACF1020C394413E702383C4424E700BF88
:100AC800704700BF00B587B0024600238DF8173085
:100AD80064230293012301930DF1170100916C2106
:100AE800034801F0EFFA9DF8170007B05DF804FB22
:100AF8007400002010B50F20FFF7E4FF04460E2015
:100B0800FFF7E0FF04EB002307EE903AF8EEE77AF0
:100B18009FED067A67EE877A9FED057A67EE877A0A
:100B2800FDEEE77A17EE903A98B210BD00008039D2
:100B38000000B4432DE9F0478CB0002407940894D2
:100B480009940A940B940194684B1A6B42F01002B2
:100B58001A631A6B02F010020192019A02941A6B3E
:100B680042F004021A631A6B02F004020292029A1B
:100B780003941A6B42F080021A631A6B02F0800227
:100B88000392039A04941A6B42F001021A631A6BD7
:100B980002F001020492049A05941A6B42F00202D0
:100BA8001A631A6B02F002020592059A06941A6BF0
:100BB80042F008021A631B6B03F008030693069BB6
:100BC800DFF83481224643F20101404600F084FDFB
:100BD800DFF828A122464FF40441504600F07CFD7E
:100BE800DFF81C91224648F26301484600F074FD84
:100BF8003F4E22463021304600F06EFD47F6FF3367
:100C0800079303250895099407A9504600F0EEFBC1
:100C18004FF4005307931123089309940A9407A9E2
:100C2800404600F0E3FB41F20103079301270897D0
:100C380009940A9407A9404600F0D8FB40F63E43C1
:100C480007930895099407A9404600F0CFFB49F699
:100C5800FF7307930895099407A9264800F0C6FB77
:100C68004FF60F3307930895099407A9304600F00B
:100C7800BDFB4FF404430793089709940A9407A906
:100C8800504600F0B3FB4FF4806307934FF488138A
:100C980008930223099307A9304600F0A7FB47F6FB
:100CA8009C7307930895099407A9484600F09EFB92
:100CB80048F263030793089709940A9407A94846DA
:100CC80000F094FB30230793089709940A9407A926
:100CD800304600F08BFB22462146282000F0FCFA23
:100CE800282000F03FFB0CB0BDE8F0870038024038
:100CF80000040240000002400008024000100240C8
:100D0800000C024008B51C4B1B68B3FBF1F101391C
:100D18001A4B1B68D96204280BD8DFE800F02703B8
:100D28000F171F0002FB01F21549A1FB021252091D
:100D38005A630021114803F07DFA08BD02FB01F255
:100D48000F49A1FB021252099A63F2E702FB01F272
:100D58000B49A1FB02125209DA63EAE702FB01F22E
:100D68000749A1FB021252091A64E2E700225A63FA
:100D78009A63DA631A64DCE7000000202C00002084
:100D88001F85EB510268084B9A4200D07047074A0A
:100D9800138801339BB21380054A12889342F5D316
:100DA800024B00221A80F1E70004014028000020CD
:100DB8002A0000200000000008B5FFF77DFC04A30E
:100DC800D3E90023FFF7FCF9FFF7E0FC80B208BD88
:100DD800E10B93A98251D13F72B6FEE708B50A48E4
:100DE8000A4B03600A4B436000238360C3604FF4DF
:100DF8008042026143618361C361036201F00AF8C2
:100E080000B908BDFFF7E8FF740000200054004057
:100E1800A086010010B592B0002410941194099492
:100E28000A940B940C940D940E940F94202221464E
:100E380001A803F049FC2D482D4B036044608460F1
:100E48004FF6FF73C36004614461846102F062FF7E
:100E580000283CD100231093119310A9234803F0D4
:100E6800C5FA002835D16023099300220A920B9213
:100E78000C920D920E920F9209A91C4803F042F8A9
:100E880048BB042209A9194803F03CF828BB0822EA
:100E980009A9164803F036F808BB0C2209A913481B
:100EA80003F030F8E8B90023019302930393049305
:100EB80005934FF400520692089301A90B4803F0DA
:100EC80021FB80B9094800F027F912B010BDFFF7DF
:100ED80083FFFFF781FFFFF77FFFFFF77DFFFFF736
:100EE8007BFFFFF779FFFFF777FF00BF2C0000209B
:100EF8000004014000B595B03022002108A803F095
:100F0800E3FB00230393049305930693079301934C
:100F1800184A116C41F080511164126C02F0805231
:100F28000192019A0293144A116841F480411160B8
:100F3800126802F480420292029A02220892012266
:100F48000B9210220C920E9308A802F051F868B97F
:100F58000F2303930021049105910691079103A89B
:100F680002F018FB20B915B05DF804FBFFF734FF59
:100F7800FFF732FF003802400070004008B500F06B
:100F880061F9FFF7B7FFFFF7D5FDFFF727FFFFF779
:100F980041FF0D4802F014FD01224FF400510B48A7
:100FA80000F09AFB002211461046FFF7ABFEFFF750
:100FB800A1FDFFF701FF064B188032224FF4FA71AA
:100FC8000120FFF79FFEFEE72C00002000080240EA
:100FD8002A0000207047000010B582B00024009459
:100FE800144B5A6C42F480425A645A6C02F48042A0
:100FF8000092009A01941A6C42F080521A641B6C99
:1010080003F080530193019B042000F047F9224626
:101018002146052000F060F9052000F0A3F92246DA
:101028002146512000F058F9512000F09BF902B0F8
:1010380010BD00BF0038024030B589B000230393CB
:10104800049305930693079302681C4B9A4201D0B8
:1010580009B030BD00240194194D2B6B43F00203F5
:101068002B632B6B03F002030193019BC0230393B3
:10107800122304930594032306930423079303A9D7
:10108800104800F0B3F902942B6C43F400132B645E
:101098002B6C03F400130293029B224621461F2067
:1010A80000F01AF91F2000F05DF9224621462020A1
:1010B80000F012F9202000F055F9C9E7005400406B
:1010C80000380240000402400268124B9A4200D0E5
:1010D800704710B582B00024019403F59A335A6C16
:1010E80042F002025A645B6C03F002030193019B15
:1010F800224621462C2000F0EFF82C2000F032F98F
:10110800224621462E2000F0E7F82E2000F02AF98A
:1011180002B010BD0004014000B587B00023019360
:101128000293039304930593026803F1804303F544
:1011380082339A4202D007B05DF804FB0023009383
:101148000B4A116B41F004011163126B02F00402A7
:101158000092009A4FF47072019202220292039355
:1011680004930323059301A9024800F03FF9E2E73D
:101178000038024000080240FEE7FEE7FEE7FEE70F
:10118800FEE770477047704708B500F075F808BD6E
:101198007047000008B5024801F0F8FD08BD00BF1F
:1011A8007400002008B5024801F0C0FE08BD00BF69
:1011B8007400002008B54FF4806000F0ABFA08BD59
:1011C80008B5024802F084FC08BD00BF2C000020CE
:1011D80008B5024802F07CFC08BD00BF2C000020C6
:1011E80070470000034AD2F8883043F47003C2F80D
:1011F8008830704700ED00E010B504460E4B1878B3
:101208004FF47A73B3FBF0F30C4A1068B0FBF3F0B9
:1012180000F0C0F868B90F2C01D901200AE00022BB
:1012280021464FF0FF3000F057F8054B1C600020B6
:1012380000E0012010BD00BF0400002000000020D5
:101248000800002008B50B4B1A6842F400721A60B7
:101258001A6842F480621A601A6842F480721A604E
:10126800032000F01BF80720FFF7C6FFFFF7B4FEC6
:10127800002008BD003C0240034A1168034B1B785C
:101288000B441360704700BFC80000200400002012
:10129800014B1868704700BFC800002010B504460D
:1012A800C31E042B0FD80A4AD36823F4E0631B0437
:1012B8001B0C240204F4E064234343F0BF6343F4AB
:1012C8000033D36010BD90210248FFF783FEEAE7A0
:1012D80000ED00E01047000870B505460C461646BC
:1012E8000F2A25D80F2C28D81B4BDB68C3F3022301
:1012F800C3F10701042928BF04211A1D062A21D990
:10130800033B4FF0FF3202FA01F124EA01049C404A
:1013180002FA03F326EA03063443002D14DB240102
:10132800E4B205F1604505F5614585F8004370BDF7
:10133800A8210A48FFF74EFED4E7A9210748FFF77E
:1013480049FED1E70023DCE705F00F052401E4B2EC
:10135800034B5C55EBE700BF00ED00E010470008C9
:1013680014ED00E010B5041E0ADB002C07DB04F0C6
:101378001F02640901239340044A42F8243010BD37
:10138800BC210348FFF726FEEFE700BF00E100E0BD
:10139800104700080138B0F1807F0AD2064B586028
:1013A800064AF02182F823100020986007221A606C
:1013B80070470120704700BF10E000E000ED00E03A
:1013C80090F83530DBB2022B03D08023436501202F
:1013D8007047052380F835300268136823F001034D
:1013E80013600020704790F8350070472DE9F041F0
:1013F80082B007460E46B34B984223D003F580636C
:1014080098421FD003F5806398421BD003F5806390
:10141800984217D003F58063984213D003F5806390
:1014280098420FD003F5806398420BD003F5806390
:10143800984207D003F58063984203D0AC21A248B4
:10144800FFF7C8FD33689AB212B11B0C1B041BB11D
:10145800AD219D48FFF7BEFD7368012B19D9112BEB
:1014680017D0022B15D0122B13D0B3F5881F10D02C
:10147800B3F5041F0DD0B3F5441F0AD0B3F5901F80
:1014880007D0B3F5081F04D0B3F5481F01D0032BCC
:1014980001D1002491E0AE218B48FFF79BFDF8E7CE
:1014A800F368032B13D8BA68610003238B4022EA40
:1014B8000302F3688B401343BB607A6822EA050293
:1014C8007368C3F30015A54015437D6086E0C0210D
:1014D8007D48FFF77FFDE6E7D1217B48FFF77AFDDE
:1014E80085E03369DBB1092B19D0012B17D0022B0A
:1014F80015D0032B13D0042B11D0052B0FD0062B9E
:101508000DD0072B0BD0082B09D00A2B07D00B2B9B
:1015180005D00C2B03D00D2B01D00F2B10D1E208D6
:10152800083257F8220004F0070399000F238B4074
:1015380020EA030033698B40034347F8223066E012
:10154800DE216148FFF746FDE9E7072300E00023B5
:101558008B40034302325D4941F822305C4B9A6864
:101568006FEA080322EA0801706810F4801F01D0AE
:1015780048EA0201564A9160D26803EA020170689B
:1015880010F4001F01D048EA0201514AD1605268A4
:1015980003EA0201706810F4003F01D048EA020132
:1015A8004B4A516012681340716811F4803F01D0B2
:1015B80048EA0203464A136001340F2C7ED80125FD
:1015C800A540336803EA050835EA0303F4D17368D4
:1015D80003F00303013B012B7FF662AF736803F04E
:1015E8000303032B0DD0B368022B3FF675AFFA68DF
:1015F800610003238B4022EA0302B3688B40134344
:10160800FB60736803F00303022B3FF46AAF3A6888
:10161800610003238B4022EA0302736803F003038B
:101628008B4013433B60736813F4403FC4D00023DE
:101638000193284B5A6C42F480425A645B6C03F461
:1016480080430193019BA208911C204B53F8210071
:1016580004F0030399000F238B4020EA0300194B81
:101668009F423FF474AF03F580639F421AD003F59D
:1016780080639F4218D003F580639F4216D003F51C
:1016880080639F4214D003F580639F4212D003F514
:1016980080639F4210D003F580639F423FF455AFAB
:1016A800082355E7012353E7022351E703234FE7B4
:1016B80004234DE705234BE7062349E702B0BDE8BD
:1016C800F08100BF00000240484700080038014090
:1016D800003C01400038024070B5054614460E46ED
:1016E80021B1012C08D86CB1AE6170BD40F29D11DA
:1016F8000648FFF76FFCF4E74FF4CF710348FFF794
:1017080069FCF0E73604AE61EFE700BF4847000820
:101718007047000008B5054B5B69034200D108BD5E
:10172800024B5861FFF7F4FFF9E700BF003C0140A6
:1017380090F83E30DBB2402B10D00369B3F5804FF0
:101748001BD0036D002B39D1436CC3F3C813026857
:1017580003F0060343F0F00313617047036D2BB9E0
:10176800436C026803F0FE0313617047436C026820
:1017780043F00103DBB21361704790F83D30DBB2F0
:10178800212B0FD0436C026843F00103DBB21361D5
:10179800436B6BB1DB6B5BB10268536843F4006366
:1017A80053607047436C026803F0FE031361EFE770
:1017B800836B33B1DB6B002BEED102E0036D012BA1
:1017C80000D07047436CC3F3C813026803F00603E4
:1017D80043F0F1031361F4E7436C0268DBB2136171
:1017E800436B3BB1DB6B2BB10268536843F4006376
:1017F80053607047836B002BFBD0DB6B002BF3D15E
:10180800F7E710B48BB090F83E30DAB2C16A046BD7
:1018180090F83D30DBB2222B0BD0002309930368EC
:101828005A6909929B690993099B0BB05DF8044BAF
:101838007047036D0BB9402A17D0036D1BB90369B4
:10184800B3F5404F19D0438D9BB2002B25D102939D
:1018580003685A6902929A690292029A1A6842F4D3
:1018680000721A6000230365DFE7009303685A6972
:1018780000929B690093009BD7E7002301930368BC
:101888005A6901929A690192019A1A6842F480721F
:101898001A60036D01330365C7E7438D9BB2012BC3
:1018A80025D0438D9BB2022B7BD00268136843F48A
:1018B8008063136003685A6812F4006F0ED011F544
:1018C800803F07D0012905D0082903D0102901D06D
:1018D800202903D15A6842F480525A6000230893A1
:1018E80003685A6908929B690893089BBAE711F53F
:1018F800803F11D0082934D0202932D0122C2ED084
:10190800042940D002293ED010293CD0026813682F
:1019180023F4806313603BE00268136823F4806358
:10192800136003685A6812F4006F0CD01A6822F426
:1019380080621A600023039303685A6903929B69C3
:101948000393039B8EE7002204925A6904929A69D2
:101958000492049A1A6842F400721A6082E7012914
:10196800CED00268136823F48063136000230693C3
:1019780003685A6906929A690692069A1A6842F4A6
:1019880000721A606EE70268136843F4806313609C
:101998000023059303685A6905929B690593059B83
:1019A80060E704290ED002290CD010290AD0026859
:1019B800136823F4806313600268136843F40063B8
:1019C800136004E00268136843F4806313600368DB
:1019D8005A6812F4006F0ED011F5803F07D0012924
:1019E80005D0082903D0102901D0202903D15A682D
:1019F80042F480525A600023079303685A69079299
:101A08009B690793079B2DE7438D9BB25BB1426AA5
:101A1800036812781A61436A01334362438D9BB2AB
:101A2800013B9BB243857047438D9BB25BB1036812
:101A38001A69436A1A70436A01334362438D9BB241
:101A4800013B9BB24385704782B0002301930E4B44
:101A58001B68DB080D4AA2FB03231B0A03EB830365
:101A68000193019B013B0193019B33B103681B6800
:101A780013F4007FF5D1002004E0036C43F0200349
:101A88000364012002B070470000002089B5F814F3
:101A980003685A6912F4806F01D1002070476FF40F
:101AA80080625A6100230363202280F83D2080F879
:101AB8003E30026C42F00402026480F83C3001209F
:101AC8007047C36AB3F52A0F04D0C36AB3F12A4F2B
:101AD80003D070470123C36270470823C362F8E745
:101AE8002DE9F04107460D4690461E4622E0FFF7D5
:101AF800CFFB069BC01AB04200D8DEB900233B6377
:101B0800202287F83D2087F83E303A6C42F02002C8
:101B18003A6487F83C3001201AE03B689C6925EA62
:101B28000404A4B2B4FA84F46409A0450FD1B6F150
:101B3800FF3FDCD1C5F30743012BEED13B685C695D
:101B480025EA0404A4B2B4FA84F46409EDE7002099
:101B5800BDE8F0812DE9F04105460E461746984646
:101B68003DE01A6842F400721A602B686FF48062D4
:101B78005A6100232B63202285F83D2085F83E30EA
:101B88002A6C42F004022A6485F83C30012034E0D3
:101B9800FFF77EFBA0EB0800B84200D8FFB900238E
:101BA8002B63202285F83D2085F83E302A6C42F0D0
:101BB80020022A6485F83C3001201EE02B689C69CD
:101BC80026EA0404A4B2003C18BF0124A4B12B687F
:101BD8005A6912F4806FC4D1B7F1FF3FD8D1C6F368
:101BE8000743012BEAD12B685C6926EA0404A4B2F6
:101BF800003C18BF0124E9E70020BDE8F08170B57A
:101C080004460D46164623685B6913F0800F1CD105
:101C18002046FFF73DFFD0B9B5F1FF3FF3D0FFF7FE
:101C280037FB801BA84201D8002DECD10023236389
:101C3800202284F83D2084F83E30226C42F02002B5
:101C4800226484F83C30012000E0002070BD0120AF
:101C5800FCE700002DE9F04784B004460D4616461F
:101C680099460C9FDDF834800268136843F480635A
:101C780013600368196841F480711960CDF8008019
:101C88003B4600224FF00111FFF72AFF70B95FFAB7
:101C980085FA236805F0FE051D6143463A46414929
:101CA8002046FFF757FF68B1012008E023681B684A
:101CB80013F4807F02D04FF400732364032004B030
:101CC800BDE8F0870023039323685A6903929B6950
:101CD8000393039B424639462046FFF790FF80B99D
:101CE800B9F1010F18D12368F6B21E614246394690
:101CF8002046FFF784FF68B3236C042B24D001200F
:101D0800DDE7236C042B01D00120D8E72268136893
:101D180043F400731360F7E72368320A1A614246F6
:101D280039462046FFF76BFF18B92368F6B21E61E3
:101D3800DCE7236C042B01D00120C0E7226813687C
:101D480043F400731360F7E72268136843F40073E1
:101D58001360D4E72268136843F480731360CDF8E6
:101D680000803B4600224FF001112046FFF7B8FEE5
:101D780068B922684AF00103136143463A460949A3
:101D88002046FFF7E7FE002899D0012097E723684F
:101D98001B6813F4807F02D04FF400732364032080
:101DA8008DE700BF0200010070B505460C461646D7
:101DB8002B68596911F0400F29D1596911F0100F9A
:101DC80015D1FFF765FA801BA04201D8002CEFD18E
:101DD80000232B63202285F83D2085F83E302A6CAD
:101DE80042F020022A6485F83C30012070BD6FF073
:101DF80010025A6100232B63202285F83D2085F8C4
:101E08003E302A6C2A6485F83C300120EEE7002039
:101E1800ECE70000002800F04181F8B504460368AB
:101E2800A04A93420CD002F58062934208D002F592
:101E38008062934204D04FF4DF719B48FFF7CAF8E1
:101E48006368013B994A934200F2A980A3681BB1D9
:101E5800B3F5804F40F0A980E36823F47F7323F043
:101E68000303002B40F0A7802369B3F5804F03D00C
:101E7800B3F5404F40F0A5806369012B00F2A780BD
:101E8800A36933F0FE0340F0A880E36913B1402B47
:101E980040F0A980236A13B1802B40F0AA8094F8FF
:101EA8003D30002B00F0AB80242384F83D302268BD
:101EB800136823F0010313602268136843F4004396
:101EC80013602268136823F40043136001F076FC62
:101ED8006268774B9A4200F29880764B98428CBFA2
:101EE80000230123002B40F0DB80734DA5FB003558
:101EF800AF0C2668716821F03F0141EA9541716095
:101F080021680B6A23F03F036568694A954200F22D
:101F180082807A1C13430B622568E96921F44F41DA
:101F280021F0FF016368624A93427ED801385B0062
:101F3800B0FBF3F0013040F6FC73184200F0AA80C1
:101F4800C0F30B030B43EB6121680B6823F0C0035C
:101F5800E269206A024313430B6021688B6823F40B
:101F6800034323F0FF032269E068024313438B60B5
:101F78002168CB6823F0FF036269A0690243134319
:101F8800CB602268136843F00103136000202064CB
:101F9800202384F83D30206384F83E00F8BD40F2E9
:101FA800BF114148FFF716F850E74FF4E0713E487B
:101FB800FFF710F850E740F2C1113B48FFF70AF865
:101FC80052E74FF4E1713848FFF704F854E740F25C
:101FD800C3113548FEF7FEFF52E74FF4E27132486D
:101FE800FEF7F8FF51E740F2C5112F48FEF7F2FF60
:101FF80050E74FF4E3712C48FEF7ECFF4FE784F805
:102008003C302046FFF718F84EE72C4B98428CBF1F
:102018000023012366E74FF4967202FB07F2284D6E
:10202800A5FB02529209013274E7A268BAB9461EAA
:1020380003EB4307B6FBF7F60136C6F30B06B6FA11
:1020480086F6760946BBC2B9421E03EB4303B2FBD0
:10205800F3F20132C2F30B0242F4004372E7461E68
:1020680003EB830707EB8707B6FBF7F60136C6F3E2
:102078000B06B6FA86F67609E4E7421E03EB8303FD
:1020880003EB8303B2FBF3F20132C2F30B0242F417
:10209800404357E7042355E7012353E701207047DE
:1020A80001207BE700540040804700087F1A0600A3
:1020B800A08601007F841E0083DE1B43FF083D00CD
:1020C800D34D62102DE9F04387B004468846914607
:1020D8001F46109EFFF7DCF80546012F01D0102F90
:1020E80009D194F83D30DBB2202B0AD002273846BC
:1020F80007B0BDE8F08340F634218C48FEF76AFF4C
:10210800EFE700951923012289492046FFF7E8FCEB
:10211800002840F0458194F83C30012B00F04281C2
:10212800012384F83C3023681A6812F0010F03D1A8
:102138001A6842F001021A602268136823F40063E7
:102148001360222384F83D30402384F83E30002376
:1021580023640E9B6362BDF83C306385638D2385E1
:10216800744BE362019500963B464A464146204639
:10217800FFF770FD0746002840F01681238D5BB9F4
:10218800029323685A6902929A690292029A1A681B
:1021980042F400721A6098E0012B0AD0022B1AD080
:1021A8000023059323685A6905929B690593059B4B
:1021B8008BE02268136823F4806313600023039381
:1021C80023685A6903929A690392039A1A6842F437
:1021D80000721A6079E02268136823F48063136040
:1021E8002268136843F40063136000230493236890
:1021F8005A6904929B690493049B66E02A46314617
:102208002046FFF7D1FD002840F0D08023681A69E6
:10221800636A1A70636A01336362238D013B238505
:10222800638D9BB2013B9BB263854EE000953346BC
:10223800002241492046FFF753FC002840F0B880AF
:102248002268136843F40073136023681A69636A89
:102258001A70626A531C6362238D013B2385638D68
:102268009BB2013B9BB2638523681B695370636A09
:1022780001336362238D013B2385638D9BB2013B50
:102288009BB2638521E02268136843F400731360EE
:1022980023681A69636A1A70626A531C6362238D21
:1022A800013B2385638D9BB2013B9BB26385236809
:1022B8001B695370636A01336362238D013B238575
:1022C800638D9BB2013B9BB26385238D002B5ED04F
:1022D800032B33D8012B91D0022BA7D0009533467E
:1022E800002215492046FFF7FBFB002862D122682F
:1022F800136823F48063136023681A69636A1A7089
:10230800636A01336362238D013B2385638D9BB22E
:10231800013B9BB26385009533460022064920465F
:10232800FFF7DEFB0028AED00127E0E68047000873
:10233800020010000000FFFF040001002A46314699
:102348002046FFF731FD002836D123681A69636AF1
:102358001A70626A531C6362238D013B2385638D67
:102368009BB2013B9BB263852368596911F0040F46
:10237800ABD01B695370636A01336362238D013BE1
:102388002385638D9BB2013B9BB263859DE7202328
:1023980084F83D30002384F83E3084F83C30A6E6CB
:1023A8000227A4E60227A2E60127A0E601279EE667
:1023B80001279CE601279AE6012798E670477047AF
:1023C800704708B590F83D30DAB2438D9BB283B1BF
:1023D800416A036809781961436A01334362438D8E
:1023E8009BB2013B9BB24385438D9BB20BB9292A13
:1023F80000D008BD0268536823F48063536021232A
:102408000363282380F83D30FFF7DAFFF1E77047D0
:1024180008B590F83D30DAB2438D9BB283B10368BA
:102428001969436A1970436A01334362438D9BB249
:10243800013B9BB24385438D9BB20BB92A2A00D03E
:1024480008BD0268536823F4806353602223036342
:10245800282380F83D30FFF7DAFFF1E7704700B531
:1024680083B090F83D3003F02803282B0CD00023CC
:10247800019302685169019192690192019A80F869
:102488003C3003B05DF804FB0268536823F48063B2
:10249800536011F0040F0BD0002311F0800F09D105
:1024A8008289002180F83C101946FFF7D7FFE8E73A
:1024B8000123F2E7028BF4E77047000008B590F8B3
:1024C8003D30DBB2C26A082A01D0202A01D1282B6C
:1024D80006D0212B1ED003686FF480625A6108BDB4
:1024E8001A4BC3620268536823F4E06353600368BD
:1024F8006FF480625A610268136823F48063136082
:1025080000230363202280F83D2080F83E30FFF747
:10251800D3FFE4E70D4BC36221230363202380F834
:102528003D30002380F83E300268536823F4E063AE
:10253800536003686FF480625A610268136823F479
:1025480080631360FFF73CFFC9E700BF0000FFFF8F
:10255800704708B5C26A90F83D30DBB2212B00D035
:1025680008BD438D9BB263B1426A036812781A6151
:10257800436A01334362438D9BB2013B9BB243855F
:10258800EEE7082A04D0202A02D012F5803F19D19C
:102598000268536823F4E06353600268136843F4E5
:1025A8000073136000230363202380F83D3090F804
:1025B8003E30DBB2402B15D0002380F83E30FFF7C9
:1025C800FDFECDE70268536823F4E06353601123EE
:1025D8000363002380F83E30202380F83D30FFF766
:1025E800EDFEBDE7002380F83E30FFF7B1FFB7E707
:1025F80008B590F83D30026D9AB9C36C012B08D02C
:10260800836CC3F3072302681361036D0133036509
:1026180008BD836C0268DBB21361036D0233036586
:10262800F6E7DBB2026D012A23D0026D022AEFD150
:10263800222B26D0428D92B20AB1212B2AD0428D6C
:1026480092B2002AE4D1212BE2D10268536823F424
:10265800E06353600268136843F400731360002357
:102668000363202280F83D2080F83E30FFF770FF9A
:10267800CEE7836C0268DBB21361036D0133036537
:10268800C6E70268136843F480731360036D01336F
:102698000365BDE7426A036812781A61436A013329
:1026A8004362438D9BB2013B9BB24385B0E710B5B3
:1026B80090F83D30DBB290F83E20D2B2C46A018D6A
:1026C80009B9212B04D0212B3BD0402A37D010BD8B
:1026D800082C04D0202C02D014F5803F19D10268B0
:1026E800536823F4E06353600268136843F400738B
:1026F800136000230363202380F83D3090F83E30B8
:10270800DBB2402B15D0002380F83E30FFF756FE91
:10271800DDE70268536823F4E06353601123036321
:10272800002380F83E30202380F83D30FFF746FE36
:10273800CDE7002380F83E30FFF70AFFC7E7222BDA
:10274800C5D1438D9BB22BB90268536823F48063CB
:102758005360BCE790F83E30DBB2402B0CD0426AA5
:10276800036812781A61436A01334362438D9BB24E
:10277800013B9BB24385AAE7FFF73AFFA7E77047FB
:1027880008B5C26A438D9BB2042B14D0438D9BB20B
:10279800032B22D0438D9BB2022B39D003681A69D0
:1027A800436A1A70436A01334362438D9BB2013B0B
:1027B8009BB2438510E00268536823F4806353603A
:1027C80003681A69436A1A70436A01334362438D86
:1027D8009BB2013B9BB2438508BD01684B6823F45B
:1027E80080634B60042A06D0022A04D0026813686A
:1027F80023F48063136003681A69436A1A70436A92
:1028080001334362438D9BB2013B9BB24385E3E7AF
:10281800012A0BD0102A09D0042A38D0022A36D02F
:102828000268136843F40073136004E002681368D5
:1028380023F48063136003681A69436A1A70426A52
:10284800531C4362438D9BB2013B9BB24385036893
:102858001B695370436A01334362438D9BB2013B4A
:102868009BB243850268536823F440735360202366
:1028780080F83D3090F83E30DBB2402B0DD000237D
:1028880080F83E3012230363FFF799FDA4E702683E
:10289800136843F480631360CDE7002380F83E306B
:1028A8000363FFF76CFF97E7704790F83D30DBB2A2
:1028B800222B00D0704710B50446438D9BB2032BE2
:1028C80015D903681A69436A1A70436A0133436267
:1028D800438D9BB2013B9BB24385438D9BB2032B37
:1028E8000FD10268536823F48063536009E0C26A19
:1028F800022A01D0012B05D92268536823F480638A
:10290800536010BDFFF7A0F800282ED12268136885
:1029180023F4806313602268536823F4E0635360F0
:1029280023681A69636A1A70636A01336362638D84
:102938009BB2013B9BB26385202384F83D3094F819
:102948003E30DBB2402B08D0002384F83E301223FF
:1029580023632046FFF733FDD3E7002384F83E3096
:1029680023632046FFF70BFFCBE72268536823F465
:10297800E063536023681A69636A1A70636A0133F3
:102988006362638D9BB2013B9BB26385202384F80D
:102998003D30002384F83E302046FFF785FFB0E73E
:1029A8007047000000B583B000230193806B90F856
:1029B8003D20D2B2324B1B68DB083249A1FB03131E
:1029C8001B0A03EB8303C3EBC3030193019B43B1CE
:1029D800019B013B019303681B6813F4007FF5D149
:1029E80003E0036C43F020030364436B0BB1002145
:1029F800D963836B0BB10021D96301680B6823F499
:102A080080630B6000234385436B0BB1002119657C
:102A1800836B0BB10021196501680B6823F0010372
:102A28000B6090F83D30DBB2602B0ED002F028022C
:102A3800282A14D0202380F83D30002380F83E3027
:102A4800FFF732FF03B05DF804FB202380F83D3028
:102A5800002380F83E300364FFF7A2FFF2E7026824
:102A6800136843F0010313600268136843F480633A
:102A7800136000230363282380F83D30E0E700BF9C
:102A88000000002089B5F81410B5044690F83D30D0
:102A9800DBB290F83E20D2B2102A36D0402A34D089
:102AA80003F02802282A38D02268526812F4006FEE
:102AB80007D1602B05D0202384F83D30002384F80B
:102AC8003E300023236323685A6812F4006F48D00D
:102AD8005A6822F400625A60626B92F83530DBB2B1
:102AE800012B20D0444B1365606BFEF769FC00286E
:102AF80049D02268136823F001031360202384F867
:102B08003D30606B036D98473DE0222BC8D12168AA
:102B18000A6822F400620A60C2E7002323632823BC
:102B280084F83D30CFE7A36B334A1A65A06BFEF7F4
:102B380047FC40B323685A6912F0400F05D01A6960
:102B4800636A1A70636A013363622268136823F048
:102B580001031360202384F83D30A06B036D984770
:102B680011E094F83D20D2B2602A1FD05A6912F0C1
:102B7800400F05D01A69636A1A70636A0133636289
:102B88002046FFF791FE236C13F00F0F04D0226844
:102B9800536823F4E063536094F83D30DBB2226C51
:102BA80012F0040F01D0282B18D010BD202284F871
:102BB8003D20002222645A6912F0400F05D01A699C
:102BC800636A1A70636A013363622268136823F0C8
:102BD800010313602046FFF7E3FED4E7074BE362E7
:102BE80000232363202284F83D2084F83E302046C9
:102BF800FFF762FCD9E700BFAD2900080000FFFF1E
:102C080030B583B0044690F83D50EDB20268536881
:102C180023F4E06353600023019303685A69019227
:102C28001A6842F001021A60019B0268136823F4D3
:102C38008063136003685A6812F4006F38D0222D3D
:102C480021D02A2D1FD0426B1268526892B2428559
:102C5800428D92B21AB1026C42F0040202645A68C0
:102C680022F400625A60606BFEF7BDFB01281FD09A
:102C7800636B444A1A65606BFEF7A2FBC0B1606BD8
:102C8800036D984714E0A26B1268526892B262858D
:102C9800628D92B21AB1226C42F0040222645A6820
:102CA80022F400625A60A06BFEF79DFB012842D116
:102CB800638D9BB233B323685A6912F0040F0AD0AC
:102CC8001A69636A1A70636A01336362638D9BB21F
:102CD800013B9BB2638523685A6912F0400F0AD002
:102CE8001A69636A1A70636A01336362638D9BB2FF
:102CF800013B9BB26385638D9BB21BB1236C43F090
:102D080004032364236C13BB2A2D25D094F83D308B
:102D1800DBB2282B29D0236B222B01D0222D19D1ED
:102D280000232363202284F83D2084F83E30204687
:102D3800FFF76DFB0EE0A36B124A1A65A06BFEF756
:102D48003FFB0028B4D0A06B036D9847B0E720463E
:102D5800FFF79AFE03B030BD00232363282384F8CD
:102D68003D302046FFF753FBD0E7074BE3620023D3
:102D78002363202284F83D2084F83E302046FFF764
:102D88009BFBE7E7AD2900080000FFFFF8B5044604
:102D980002685568C66A90F83E30DBB290F83D107C
:102DA800C8B2102B13D0402B11D0236C002B7AD033
:102DB8005369002113F0020F78D015F4007F75D005
:102DC800236C03B191692046FFF749FBF8BDD2F89F
:102DD80018C0516911F0010705D1B6F52A0FF5D0D1
:102DE800B6F12A4FF2D017B115F4007F29D111F0AE
:102DF800080F02D015F4007F2AD111F0020F02D07B
:102E080015F4007F28D11CF0040F31D0526812F459
:102E1800006FDBD111F0800F05D015F4806F02D060
:102E280011F0040F1CD011F0040FCFD015F4007F5F
:102E3800CCD0212818D0402BC8D12046FFF7D8FB8A
:102E4800C4E72046FEF73DFE2046FEF771FCBDE7CD
:102E58002046FEF7C1FCB9E72046FEF7D2FCB5E7ED
:102E68002046FFF724FCB1E72046FFF772FBADE7E9
:102E7800536813F4006FA9D111F0400F05D015F471
:102E8800806F02D011F0040F09D011F0040F9DD00B
:102E980015F4007F9AD02046FFF772FC96E720468B
:102EA800FFF703FD92E79169536983E713F0100F69
:102EB80002D015F4007F18D121281AD0292818D05B
:102EC80013F0400F05D015F4806F02D013F0040FF3
:102ED80028D013F0040F3FF479AF15F4007F3FF4C6
:102EE80075AF2046FEF7A0FD70E72046FFF788FE85
:102EF8006CE713F0800F05D015F4806F02D013F043
:102F0800040F0BD013F0040F3FF460AF15F4007FEB
:102F18003FF45CAF2046FEF777FD57E72046FFF702
:102F280050FA53E72046FFF773FA4FE7F8B504461F
:102F380003685D695F6890F83E20D2B215F4807F1F
:102F480007D017F4807F3CD06FF480715961012657
:102F580000E0002615F4007F08D017F4807F05D024
:102F680046F0020623686FF40071596115F4806F0A
:102F780019D017F4807F16D0638D99B294F83D303C
:102F8800DBB2206B202A1ED023686FF48061596160
:102F980046F00406102A01D0402A04D1226813689A
:102FA80043F40073136015F4006F08D017F4807FA2
:102FB80005D046F0080623686FF400625A6186B9A6
:102FC800F8BD0026C6E70029DED1212B05D0292B24
:102FD80003D0282BD8D12128D6D12046FFF76EFA66
:102FE800E1E7236C1E4326642046FFF74DFDE7E723
:102FF800002800F0618270B582B0044603680F2B88
:1030080039D8236813F0010F4DD063682BB1B3F59D
:10301800803F02D0B3F5A02F32D1A54B9B6803F0B7
:103028000C03042B36D0A24B9B6803F00C03082B2F
:103038002BD06368B3F5803F5FD0B3F5A02F62D083
:103048009B4B1A6822F480321A601A6822F4802294
:103058001A606368002B60D0FEF71AF90546944B96
:103068001B6813F4003F1ED1FEF712F9401B6428B9
:10307800F5D9032027E2E6218E48FDF7ABFFC0E72C
:10308800EB218C48FDF7A6FFC7E7894B5B6813F473
:10309800800FCED0864B1B6813F4003F03D06368C3
:1030A800002B00F00B82236813F0020F66D0E36850
:1030B800012B41D823691F2B44D87D4B9B6813F003
:1030C8000C0F4AD07A4B9B6803F00C03082B3FD0B7
:1030D800E368002B76D0784B01221A60FEF7D8F807
:1030E8000546734B1B6813F0020F62D1FEF7D0F848
:1030F800401B0228F5D90320E5E16D4A136843F423
:1031080080331360A5E76A4B1A6842F480221A607C
:103118001A6842F480321A609BE7FEF7B9F8054650
:10312800634B1B6813F4003FBDD0FEF7B1F8401B9A
:103138006428F5D90320C6E140F21D115D48FDF76A
:1031480049FFB7E74FF48F715A48FDF743FFB4E7DB
:10315800574B5B6813F4800FBAD1554B1B6813F0BB
:10316800020F03D0E368012B40F0AA81504A13688C
:1031780023F0F803216943EAC1031360236813F0BD
:10318800080F49D06369012B2ED8636993B34B4B61
:1031980001221A60FEF77CF80546454B5B6F13F079
:1031A800020F39D1FEF774F8401B0228F5D9032025
:1031B80089E13F4A136823F0F803216943EAC10310
:1031C8001360DBE73C4B00221A60FEF761F8054606
:1031D800374B1B6813F0020FD0D0FEF759F8401B8D
:1031E8000228F5D903206EE14FF4AF713148FDF79D
:1031F800F1FECAE7314B00221A60FEF749F805468E
:103208002B4B5B6F13F0020F06D0FEF741F8401B03
:103218000228F5D9032056E1236813F0040F00F0C3
:103228008880A368012B01D9052B12D1204B1B6C78
:1032380013F0805F13D1002301931D4B1A6C42F0E9
:1032480080521A641B6C03F080530193019B012583
:1032580006E04FF4C5711748FDF7BCFEE6E7002508
:10326800174B1B6813F4807F2CD0A368012B3DD02B
:10327800052B41D00E4B1A6F22F001021A671A6F04
:1032880022F004021A67A368002B3FD0FEF700F86B
:103298000646074B1B6F13F0020F48D1FDF7F8FFE6
:1032A800801B41F288339842F3D903200BE100BF19
:1032B80000380240B847000800004742800E4742E5
:1032C80000700040874A136843F480731360FDF769
:1032D800DFFF0646834B1B6813F4807FC5D1FDF7DB
:1032E800D7FF801B0228F5D90320ECE07E4A136F34
:1032F80043F001031367C6E77B4B1A6F42F00402E1
:103308001A671A6F42F001021A67BCE7FDF7C0FF9F
:103318000646754B1B6F13F0020F08D0FDF7B8FF78
:10332800801B41F288339842F3D90320CBE0002D6B
:103338003BD1A369022B3ED8A369002B00F0C280C1
:10334800694A926802F00C02082A00F09080022B69
:1033580079D1E36913B1B3F5800F32D1236A3F2BDA
:1033680035D8636A323BB3F5BF7F36D8A36A022BE0
:1033780005D0042B03D0062B01D0082B33D1E36AE8
:10338800023B0D2B35D8594B00221A60FDF780FF00
:103398000546554B1B6813F0007F30D0FDF778FFCA
:1033A800401B0228F5D903208DE04F4A136C23F007
:1033B80080531364BDE740F2CD114D48FDF70AFE76
:1033C800BAE74FF4EB714A48FDF704FEC6E740F24E
:1033D800D7114748FDF7FEFDC3E74FF4EC714448A9
:1033E800FDF7F8FDC2E740F2D9114148FDF7F2FDBB
:1033F800C5E74FF4ED713E48FDF7ECFDC3E7E3691F
:10340800226A1343626A43EA8213A26A5208013AA3
:1034180043EA0243E26A43EA0263334A5360334BA6
:1034280001221A60FDF734FF04462F4B1B6813F086
:10343800007F06D1FDF72CFF001B0228F5D90320D9
:1034480041E000203FE0294B00221A60FDF720FFF1
:103458000446254B1B6813F0007F06D0FDF718FFC4
:10346800001B0228F5D903202DE000202BE0012BBA
:103478002BD01D4B5B6803F48001E269914226D191
:1034880003F03F02216A8A4223D1616A47F6C0727B
:103498001A40B2EB811F1ED103F44031A26A5208D0
:1034A800013AB1EB024F18D103F07063E26AB3EB53
:1034B800026F14D1002006E001207047012002E0CD
:1034C800012000E0002002B070BD0120FBE70120D0
:1034D800F9E70120F7E70120F5E70120F3E70120EC
:1034E800F1E700BF0070004000380240600047422A
:1034F800B8470008F8B5244B9B6803F00C03042B6D
:103508003DD0082B3DD1204B5A6802F03F025B6842
:1035180013F4800F12D01C4B5968C1F38811002393
:103528001A48A1FB0001FDF751F9174B5B68C3F37B
:10353800014301335B00B0FBF3F023E0124B5B68FF
:10354800C3F388135C010025E41A65F10005AE0198
:1035580046EA9466A701381B66EB0501CC0044EAED
:103568005074C500E81844F100018B0243EA9053F7
:103578008402204619460023FDF728F9D5E70348B9
:1035880000E00348F8BD00BF0038024040787D01E4
:103598000024F400002800F0F78070B50D460446BA
:1035A8000368013B0E2B6BD8072D6FD87A4B1B682D
:1035B80003F00703AB4208D2EBB2774A13701368E3
:1035C80003F00703AB4240F0E180236813F0020FD9
:1035D80029D013F0040F04D0704A936843F4E053E1
:1035E8009360236813F0080F04D06C4A936843F47F
:1035F80060439360A3687BB1802B0DD0902B0BD0D8
:10360800A02B09D0B02B07D0C02B05D0D02B03D0CE
:10361800E02B01D0F02B3FD1604A936823F0F003F0
:10362800A1680B439360236813F0010F4ED06368C1
:10363800032B37D86368012B3AD09A1E012A3ED94A
:10364800564A126812F0020F00F0A28053498A68A5
:1036580022F0030213438B60FDF71AFE06464F4B18
:103668009B6803F00C036268B3EB820F2ED0FDF762
:103678000FFE801B41F288339842F0D9032076E090
:1036880040F25A214648FDF7A5FC8DE740F25B2140
:103698004348FDF79FFC89E740F27E214048FDF74B
:1036A80099FCB9E740F285213D48FDF793FCC1E755
:1036B8003A4A126812F4003FC8D1012057E0374A4D
:1036C800126812F0007FC1D1012050E0324B1B6814
:1036D80003F00703AB4207D9EAB22F4B1A701B68F5
:1036E80003F00703AB4255D1236813F0040F14D03D
:1036F800E3685BB1B3F5805F08D0B3F5A05F05D090
:10370800B3F5C05F02D0B3F5E05F31D1234A9368C7
:1037180023F4E053E1680B439360236813F0080F28
:1037280015D023695BB1B3F5805F08D0B3F5A05F0E
:1037380005D0B3F5C05F02D0B3F5E05F1ED1174ADC
:10374800936823F46043216943EAC1039360FFF758
:10375800D1FE124B9B68C3F30313124AD35CD840C3
:10376800114B1860114B1868FDF746FD002070BD1D
:1037780040F2C3210A48FDF72DFCC7E740F2CA21F1
:103788000748FDF727FCDAE7012070470120EEE73C
:103798000120ECE70120EAE7003C02400038024043
:1037A800B8470008F846000800000020080000207C
:1037B800014B1868704700BF0000002008B5FFF7EC
:1037C800F7FF044B9B68C3F38223034AD35CD840BA
:1037D80008BD00BF00380240084700082DE9F04145
:1037E80004460D46036A23F001030362066A47682C
:1037F800836923F073080B6843EA080826F002037C
:103808008E681E43204B984203D003F5806398428C
:1038180009D1EB680BB1082B24D126F00806EB6818
:103828001E4326F00406184B9C4203D003F5806320
:103838009C420FD1AB69B3F5007F00D0C3B96B6967
:10384800B3F5807F00D0CBB927F440776B693B4351
:10385800AF691F436760C4F818806B6863632662AA
:10386800BDE8F08141F6C7210848FDF7B3FBD4E76E
:1038780041F6D4210548FDF7ADFBE0E741F6D52137
:103888000248FDF7A7FBDFE700000140F04700080A
:103898002DE9F04104460E46036A23F4807303625F
:1038A800056A4768C36923F073080B6843EA080888
:1038B80025F400758B6845EA0325224B984203D00E
:1038C80003F5806398420AD1F3680BB1082B27D11E
:1038D80025F40065F36845EA032525F48065194B4E
:1038E8009C4203D003F580639C4211D1B369B3F5C0
:1038F800007F00D0D3B97369B3F5807F00D0DBB9FE
:1039080027F44057736947EA0317B36947EA03176F
:103918006760C4F81C807368E3632562BDE8F081C2
:1039280041F65D310848FDF755FBD1E741F66A31AC
:103938000548FDF74FFBDEE741F66B310248FDF71E
:1039480049FBDDE700000140F04700082DE9F041A0
:1039580004460D46036A23F480530362066AD0F8CE
:103968000480C76927F4E6470B6847EA032726F46B
:1039780000568B6846EA03360F4B984203D003F58E
:103988008063984209D16B69B3F5807F00D063B931
:1039980028F480486B6948EA8318C4F80480E76112
:1039A8006B6823642662BDE8F08141F6A9310348BB
:1039B800FDF710FBECE700BF00000140F0470008EE
:1039C80010B5044603683E4A934237D0B3F1804F9E
:1039D80034D0A2F57C42934230D002F58062934203
:1039E8002CD002F58062934228D002F5806293427F
:1039F80024D002F58062934220D002F570429342AF
:103A08001CD002F57052934218D002F5806293429E
:103A180014D002F58062934210D0A2F598329342F6
:103A28000CD002F58062934208D002F5806293427E
:103A380004D040F2CF112348FDF7CCFA94F83D307A
:103A4800DBB2012B37D1022384F83D302268D368DA
:103A580043F00103D3602368194A934220D0B3F19D
:103A6800804F1DD0A2F57C42934219D002F58062A6
:103A7800934215D002F58062934211D002F5784244
:103A880093420DD002F57052934209D0A2F59432B8
:103A9800934205D01A6842F001021A6000200BE038
:103AA8009A6802F00702062A07D01A6842F0010253
:103AB8001A60002000E0012010BD0020FCE700BFD4
:103AC80000000140F0470008704770477047704792
:103AD80010B5044603681A6912F0020F11D0DA68AB
:103AE80012F0020F0DD06FF002021A610123037762
:103AF80003689B6913F0030F70D0FFF7E6FF0023FC
:103B0800237723681A6912F0040F12D0DA6812F0CA
:103B1800040F0ED06FF004021A6102232377236882
:103B28009B6913F4407F5FD02046FFF7CEFF002348
:103B3800237723681A6912F0080F12D0DA6812F096
:103B4800080F0ED06FF008021A6104232377236848
:103B5800DB6913F0030F4ED02046FFF7B6FF0023B2
:103B6800237723681A6912F0100F12D0DA6812F05E
:103B7800100F0ED06FF010021A6108232377236804
:103B8800DB6913F4407F3DD02046FFF79EFF0023FA
:103B9800237723681A6912F0010F03D0DA6812F04C
:103BA800010F36D123681A6912F0800F03D0DA6842
:103BB80012F0800F34D123681A6912F0400F03D035
:103BC800DA6812F0400F32D123681A6912F0200F18
:103BD80003D0DA6812F0200F30D110BDFFF774FF60
:103BE8002046FFF773FF8AE72046FFF76DFF204660
:103BF800FFF76CFF9BE72046FFF766FF2046FFF7BD
:103C080065FFACE72046FFF75FFF2046FFF75EFF42
:103C1800BDE76FF001021A612046FDF7B3F8C1E76E
:103C28006FF080021A61204600F0FFFCC3E76FF0D6
:103C380040021A612046FFF74AFFC5E76FF02002ED
:103C48001A61204600F0F0FCC7E700000368304A1C
:103C5800904212D0B0F1804F0FD0A2F57C42904232
:103C68000BD002F58062904207D002F58062904244
:103C780003D002F57842904203D123F070034A68DA
:103C88001343234A90422AD0B0F1804F27D0A2F59F
:103C98007C42904223D002F5806290421FD002F508
:103CA800806290421BD002F57842904217D002F50C
:103CB8007052904213D002F5806290420FD002F504
:103CC800806290420BD0A2F59832904207D002F55C
:103CD8008062904203D002F58062904203D123F4BF
:103CE8004073CA68134323F080034A69134303608F
:103CF8008B68C3620B688362054B984203D003F557
:103D08008063984201D10B690363012343617047C3
:103D180000000140002800F08E8010B504460368BA
:103D2800464A934237D0B3F1804F34D0A2F57C4253
:103D3800934230D002F5806293422CD002F5806223
:103D4800934228D002F58062934224D002F5806223
:103D5800934220D002F5704293421CD002F5705273
:103D6800934218D002F58062934214D002F5806223
:103D7800934210D0A2F5983293420CD002F580629B
:103D8800934208D002F58062934204D040F2295150
:103D98002B48FDF71FF9A3683BB1102B05D0202B4A
:103DA80003D0402B01D0602B2DD123692BB1B3F563
:103DB800807F02D0B3F5007F2BD1A3690BB1802B94
:103DC8002DD194F83D3083B3022384F83D30214649
:103DD80051F8040BFFF73AFF012384F8463084F8C2
:103DE8003E3084F83F3084F8403084F8413084F81D
:103DF800423084F8433084F8443084F8453084F8FD
:103E08003D30002010BD40F22A510D48FDF7E2F880
:103E1800CBE740F22B510A48FDF7DCF8CDE740F23A
:103E28002C510748FDF7D6F8CBE784F83C302046FC
:103E3800FDF74AF9C8E70120704700BF00000140BC
:103E4800F04700082DE9F04104460E46036A23F0C6
:103E580010030362056AD0F80480876927F4E647EF
:103E68000B6847EA032725F020058B6845EA031508
:103E7800224B984203D003F5806398420AD1F36835
:103E88000BB1082B27D125F08005F36845EA031507
:103E980025F04005194B9C4203D003F580639C42F2
:103EA80011D1B369B3F5007F00D0D3B97369B3F505
:103EB800807F00D0DBB928F44068736948EA83083A
:103EC800B36948EA8308C4F80480A7617368A363E8
:103ED8002562BDE8F08141F612310948FDF77AF80C
:103EE800D1E74FF4D9510648FDF774F8DEE741F6FB
:103EF80021310348FDF76EF8DDE700BF00000140FF
:103F0800F047000870B504460D4616463AB1042A33
:103F180005D0082A03D00C2A01D03C2A26D12B68C8
:103F2800602B01D0702B27D1AB680BB1022B29D1A4
:103F38002B690BB1042B2BD194F83C30012B00F0EA
:103F48001881012384F83C300C2E00F20D81DFE843
:103F580016F025000B010B010B016E000B010B0184
:103F68000B01A8000B010B010B01D90041F27701ED
:103F78008148FDF72FF8D2E741F278017E48FDF736
:103F880029F8D1E741F279017B48FDF723F8CFE71B
:103F980041F27A017848FDF71DF8CDE72368774AA2
:103FA80093422FD0B3F1804F2CD0A2F57C4293429C
:103FB80028D002F58062934224D002F580629342B1
:103FC80020D002F5784293421CD002F570529342F9
:103FD80018D002F58062934214D002F580629342B1
:103FE80010D0A2F5983293420CD002F58062934229
:103FF80008D002F58062934204D041F284015E4801
:10400800FCF7E8FF29462068FFF7E8FB2268936978
:1040180043F0080393612268936923F004039361D2
:104028002268936929690B43936100209DE0236806
:10403800524A93421FD0B3F1804F1CD0A2F57C4264
:10404800934218D002F58062934214D002F5806240
:10405800934210D002F5784293420CD002F5705288
:10406800934208D0A2F59432934204D041F29501CC
:104078004148FCF7AFFF29462068FFF7E3FE2268B6
:10408800936943F4006393612268936923F480631E
:10409800936122689369296943EA012393610020A7
:1040A80063E02368354A934217D0B3F1804F14D0A8
:1040B800A2F57C42934210D002F5806293420CD064
:1040C80002F58062934208D002F57842934204D008
:1040D80041F2A6012848FCF77DFF29462068FFF732
:1040E800D7FB2268D36943F00803D3612268D369F8
:1040F80023F00403D3612268D36929690B43D36190
:10410800002032E023681D4A934217D0B3F1804F54
:1041180014D0A2F57C42934210D002F580629342FB
:104128000CD002F58062934208D002F5784293429F
:1041380004D041F2B7011048FCF74CFF294620682B
:10414800FFF704FC2268D36943F40063D361226853
:10415800D36923F48063D3612268D369296943EA68
:104168000123D361002000E00120002384F83C30C3
:1041780070BD0220FCE700BFF047000800000140C6
:1041880070B504460D461646284B98422FD0B0F11C
:10419800804F2CD0A3F57C43984228D003F5806348
:1041A800984224D003F58063984220D003F57843E1
:1041B80098421CD003F57053984218D003F58063D9
:1041C800984214D003F58063984210D0A3F5983331
:1041D80098420CD003F58063984208D003F58063B9
:1041E800984204D041F694511148FCF7F3FE3DB1D2
:1041F800042D05D0082D03D00C2D01D03C2D0ED157
:1042080005F01F05012303FA05F2236A23EA0203D6
:104218002362236A06FA05F51D43256270BD41F63F
:1042280095510348FCF7D6FEEAE700BF00000140BD
:10423800F047000838B505460C460368634A9342C0
:1042480012D0B3F1804F0FD0A2F57C4293420BD02D
:1042580002F58062934207D002F58062934203D050
:1042680002F57842934206D1E4B1042C1AD0082C06
:1042780018D00C2C16D0564A934259D0554A93421E
:104288005BD0554A93425BD0544A93425BD0544A20
:1042980093425DD0534A93425DD040F2AF515248A9
:1042A800FCF798FE002C59D195F83E30DBB2013B63
:1042B80018BF0123002B40F08580002C67D1022312
:1042C80085F83E30012221462868FFF759FF2B6800
:1042D8003E4A934203D002F58062934203D15A6C5E
:1042E80042F400425A642B68384A93425FD0B3F1D3
:1042F800804F5CD0A2F57C42934258D002F5806290
:10430800934254D002F58062934250D002F578422D
:1043180093424CD002F57052934248D0A2F59432A1
:10432800934244D01A6842F001021A60002048E023
:10433800002CB7D0042CA1D1B4E7002CB2D0A0E750
:10434800002CAFD0A0E7002CACD0042C9FD1A9E75B
:10435800002CA7D09EE7002CA4D09EE7042C08D000
:10436800082C0DD095F84130DBB2013B18BF012372
:10437800A0E795F83F30DBB2013B18BF012399E76E
:1043880095F84030DBB2013B18BF012392E7042CBB
:1043980005D0082C07D0022385F8413092E7022384
:1043A80085F83F308EE7022385F840308AE79A681F
:1043B80002F00702062A07D01A6842F001021A60C2
:1043C800002038BD0120FCE70020FAE7000001408A
:1043D80000400140004401400048014000180040EE
:1043E800001C004000200040F047000838B5044693
:1043F8000D460368414A93421FD0B3F1804F1CD049
:10440800A2F57C42934218D002F58062934214D000
:1044180002F58062934210D002F5806293420CD07C
:1044280002F58062934208D002F57042934204D0AC
:1044380040F2B1713248FCF7CDFD2B686BB1102BFF
:104448000BD0202B09D0302B07D0402B05D0502B78
:1044580003D0602B01D0702B41D16B68802B01D029
:10446800002B42D194F83C30012B44D0012384F82E
:104478003C30022384F83D3023685968986821F05D
:1044880070012A680A435A6023681C4A93421AD06A
:10449800B3F1804F17D0A2F57C42934213D002F5B6
:1044A800806293420FD002F5806293420BD002F5EE
:1044B8007842934207D002F57052934203D0A2F596
:1044C8009432934204D120F080006A6810439860C7
:1044D800012384F83D30002084F83C0038BD40F2C8
:1044E800B2710748FCF776FDB7E740F2B3710448AC
:1044F800FCF770FDB6E70220F0E700BF00000140BE
:104508002848000838B504460D460368444A9342D3
:1045180008D002F58062934204D040F2EE7141481F
:10452800FCF758FD2B68B3F5006F01D0002B4AD17A
:104538006B68B3F5806F01D0002B4AD1AB6843B1EB
:10454800B3F5807F05D0B3F5007F02D0B3F5407F87
:1045580045D1EB68FF2B48D82B69B3F5805F01D0B4
:10456800002B48D16B6913B1B3F5005F49D1EB69F2
:10457800B3F5804F01D0002B49D194F83C30012B82
:104588004BD0012384F83C30EB6823F44073AA68CD
:10459800134323F480636A68134323F400632A688F
:1045A800134323F480532A69134323F400536A699D
:1045B800134323F48043EA691343226853640020B9
:1045C80084F83C0038BD40F2EF711648FCF702FD54
:1045D800AEE74FF4FE611348FCF7FCFCAEE740F28F
:1045E800F1711048FCF7F6FCB3E740F2F2710D48A0
:1045F800FCF7F0FCB0E740F2F3710A48FCF7EAFC7C
:10460800B0E740F2F4710748FCF7E4FCAFE740F28A
:10461800F5710448FCF7DEFCAFE70220D2E700BFE3
:10462800000001402848000870477047DFF834D080
:104638000D480E490E4A002302E0D458C4500433F2
:10464800C4188C42F9D30B4A0B4C002301E01360C9
:104658000432A242FBD3FCF7C5FD00F011F8FCF7C9
:104668008DFC704700000220000000200C00002094
:10467800704800080C000020CC000020FEE7000075
:1046880070B50D4D0D4C641BA4100026A64209D12F
:104698000B4D0C4C00F020F8641BA4100026A64219
:1046A80005D170BD55F8043B98470136EEE755F83B
:1046B800043B98470136F2E7684800086848000854
:1046C800684800086C48000802440346934200D139
:1046D800704703F8011BF9E7F8B500BFF8BC08BC40
:1046E8009E467047F8B500BFF8BC08BC9E467047A8
:1046F800000000000000000001020304060708098A
:104708000000000001020304447269766572732F89
:1047180053544D3332463478785F48414C5F447285
:10472800697665722F5372632F73746D33326634F2
:1047380078785F68616C5F636F727465782E630068
:10474800447269766572732F53544D333246347808
:10475800785F48414C5F4472697665722F53726383
:104768002F73746D3332663478785F68616C5F6775
:1047780070696F2E63000000447269766572732F4A
:1047880053544D3332463478785F48414C5F447215
:10479800697665722F5372632F73746D3332663482
:1047A80078785F68616C5F6932632E63000000008F
:1047B800447269766572732F53544D333246347898
:1047C800785F48414C5F4472697665722F53726313
:1047D8002F73746D3332663478785F68616C5F72FA
:1047E80063632E6300000000447269766572732F5C
:1047F80053544D3332463478785F48414C5F4472A5
:10480800697665722F5372632F73746D3332663411
:1048180078785F68616C5F74696D2E6300000000D2
:10482800447269766572732F53544D333246347827
:10483800785F48414C5F4472697665722F537263A2
:104848002F73746D3332663478785F68616C5F7487
:08485800696D5F65782E6300B5
:08486000A4BFFF7F010000006E
:04486800AD01000896
:04486C0089010008B6
:0C4870000024F400010000001000000013
:040000050800463574
:00000001FF
